:020000040800F2
:10000000C818002079020008F5200008A11F000888
:10001000F120000871040008C12100080000000060
:10002000000000000000000000000000FD200008AB
:10003000A504000800000000F920000801210008C4
:10004000930200089302000893020008930200083C
:10005000930200089302000893020008930200082C
:10006000930200089302000893020008930200081C
:10007000930200089302000893020008930200080C
:100080008D040008990400089302000893020008F8
:100090007504000881040008930200089302000818
:1000A00093020008930200089302000893020008DC
:1000B00093020008930200089302000893020008CC
:1000C00093020008930200089302000893020008BC
:1000D0009302000893020008B5210008930200086B
:1000E000930200089302000893020008930200089C
:1000F000930200089302000893020008930200088C
:10010000930200089302000893020008930200087B
:10011000930200089302000893020008930200086B
:10012000930200089302000893020008930200085B
:10013000930200089302000893020008930200084B
:10014000930200089302000893020008930200083B
:10015000930200089302000893020008930200082B
:10016000930200089302000893020008930200081B
:1001700093020008930200089302000800000000A8
:1001800093020008930200089302000893020008FB
:1001900093020008930200089302000893020008EB
:1001A00000000000000000009302000800F002F8C8
:1001B00000F052F814A696E8000CB244B344DA45B5
:1001C00001D100F049F8BAE80F000FA696E8300018
:1001D000A5EB040504EB0607AAEB0704A7F101074A
:1001E0004FEA15154FEA3414A4F10104AC4201D3CF
:1001F00000F032F813F0010F18BFFB1A43F00103AF
:1002000000F001F8DBE7184790290000B029000052
:10021000103A24BF78C878C1FAD8520724BF30C832
:1002200030C144BF04680C60704700007047000094
:100230000023002400250026103A28BF78C1FBD8EF
:10024000520728BF30C148BF0B6070471FB502F08E
:1002500085FC1FBD10B510BD00F0DBF81146FFF79F
:10026000F5FF02F0B3FB00F0F9F803B4FFF7F2FF7B
:1002700003BC00F0C3F80000094880470948004764
:10028000FEE7FEE7FEE7FEE7FEE7FEE7FEE7FEE746
:10029000FEE7FEE704480549054A064B70470000A3
:1002A00005210008AD010008C8120020C818002070
:1002B000C8140020C814002053EA020C00F0698022
:1002C0002DE9F04B4FF00006002B1FBFB3FA83F56A
:1002D00003FA05F424FA05F65E4012BF1643B2FA9B
:1002E00082F502FA05F4C5F120051EBF22FA05FCCD
:1002F00044EA0C04203556EA044C4FEA144418BF73
:10030000641C4FF000084FF00009904271EB030CA1
:1003100039D3002919BFB1FA81F701FA07F6B0FA0B
:1003200080F700FA07F6C7F120071EBF20FA07FC86
:1003300046EA0C062037B6FBF4FCA7EB0507103F96
:1003400007F01F0BCBF120062CFA06F60CFA0BFB7C
:1003500044BFB3460026202FA4BF5E464FF0000BDB
:100360005BEA060C08BF4FF0010B19EB0B0948EBD9
:100370000608ABFB027C06FB02CC0BFB03CCC01BCC
:1003800071EB0C01C1E70B46024641464846BDE809
:10039000F08B13B5084318BF4FF0FF300146AFF3A1
:1003A0000080BDE81C4070474FF0000200B51346C6
:1003B00094469646203922BFA0E80C50A0E80C5085
:1003C000B1F12001BFF4F7AF090728BFA0E80C5036
:1003D00048BF0CC05DF804EB890028BF40F8042B2F
:1003E00008BF704748BF20F8022B11F0804F18BF9C
:1003F00000F8012B7047704770477047014918207B
:10040000ABBEFEE726000200004870471000002047
:1004100070477546FFF7F8FFAE460500694653463C
:1004200020F00700854618B020B5FFF733FFBDE880
:1004300020404FF000064FF000074FF000084FF04B
:10044000000BAC46ACE8C009ACE8C009ACE8C00998
:10045000ACE8C00921F007018D46704710B504468D
:10046000AFF300802046BDE81040FFF7FEBE00005D
:10047000FEE7000041F24410C2F2000000F070B943
:1004800041F24410C2F2000000F06AB941F26C106F
:10049000C2F2000000F032BC41F2CC10C2F2000007
:1004A00000F02CBC70470000EFF3108072B600BF64
:1004B000FEE70000B0B590F820E0D0F800C0AEF143
:1004C000010EBEF1010FDCF808E00DD81EF0E05F70
:1004D00010D0CEF3016EBEF1030F11D100F1240351
:1004E00001204FF4000134E000F1240301204FF417
:1004F00080212EE000F1240301204FF4001128E0B8
:10050000012000FA0EF01860886830B14B68CC68A2
:1005100044EAC30343EA000503E00868CB6843EA02
:1005200040550CF5C0744FEA0E10255004EB0E1325
:100530000D69184640F8045F097D012903D101685F
:1005400041F48071016050680121D86010689860A2
:1005500000201A6811431960B0BD000090F82020F7
:10056000013A012A30D8B0B546F20060C4F200006A
:10057000026842F001020260026822F47C520260CA
:10058000D1F814E0CC694A6A0368012C43EA0222DC
:1005900002600EF01F024FF0010303FA02F2C3697A
:1005A0006FEA020C23EA0203C36113D02CBBC368B9
:1005B00003EA0C03C360CB688C8844EA034300EB76
:1005C000CE0423640B4611E0416A41F4802141626C
:1005D00001207047C3681343C3600B688C8844EAEA
:1005E000034300EBCE04236401F10C038C681B88E9
:1005F00043EA044300EBCE04636443688D6943EA35
:100600000204D1F810E0096A002D08BF03EA0C04C7
:1006100044604369BEF1000F43EA020408BF03EAE5
:100620000C040129446102D1C1691143C16101680F
:1006300021F0010101600020B0BD00007047000002
:1006400010B590F820C0ACF1010CBCF1010F77D8C7
:10065000D0F800C000290CBFDCF80CC0DCF810C0DA
:100660005FEA8C7C72D0D0F800C04FEA011E0CF516
:10067000D87C5CF80E4014F0040494605CF80EE042
:100680000CEB011C19BF4FEADE0454604FEA5E54C4
:100690001460DCF80040002904F00204D460DCF8A7
:1006A000044004F00F041461DCF80440C4F3072490
:1006B0009461DCF804404FEA14445461DCF80820EB
:1006C0001A70026802EB0112D2F8B8214FEA122226
:1006D0005A70026802EB0112D2F8B8214FEA1242B6
:1006E0009A70026802EB0112D2F8B8214FEA126246
:1006F000DA70026802EB0112D2F8BC211A710268AA
:1007000002EB0112D2F8BC214FEA12225A710268A0
:1007100002EB0112D2F8BC214FEA12429A71026830
:1007200002EB0112D2F8BC214FEA1262DA710068C2
:100730000CBF00F10C0100F11001002020220AE0A2
:1007400000F1240101204FF4802204E000F1240193
:1007500001204FF400120B681A430A6010BD00001C
:100760002DE9F04F81B0044600684669D0F8049046
:100770008768D0F80CB0D0F810A0D0F81880F10736
:1007800003D1002530071DD425E0F90711D0012140
:1007900081608068B80709D4780700F1B180380714
:1007A00000F1B780204600F049FA02E0204600F050
:1007B00047FA0025F80500F18A80F80300F1B180BE
:1007C000300708D51BF0100005D020681021C1604B
:1007D000C06845F40075700709D51BF0080006D005
:1007E00020680821C160C068204600F0A7F9B00762
:1007F00006D52068C068800702D0204600F0A0F926
:10080000700608D51AF0100005D02068102101618B
:10081000006945F48065B00609D51AF0080006D0D5
:100820002068082101610069204600F0AFF9F00658
:1008300006D520680069800702D0204600F0A8F99C
:10084000B00309D519F0100006D0206810214160CE
:100850004068204600F0C2F9F00309D519F00800FD
:1008600006D02068082141604068204600F0F2F977
:10087000300440F192805FEA497040F18A8006F4CA
:10088000807008EA102028435FEA8871014648BF5B
:1008900041F00201B20558BF01465FEA48700D46BB
:1008A00048BF45F00405700558BF0D46300570D5AA
:1008B00018F070006DD010380009052864D8DFE802
:1008C00000F0035E585B556145F008055CE0206868
:1008D0004FF4807181608068B8050AD4780512D41D
:1008E000380519D4204600F0ADF9F8037FF568AF5C
:1008F00017E0204600F0A8F9F8037FF561AF10E09B
:100900004FF4006556E705F50055F8037FF558AF3D
:1009100007E04FF480554DE705F58045F8037FF576
:100920004FAF20684FF4803181608068B8030AD4EB
:1009300078030FD4380313D4204600F087F930072A
:100940003FF540AF47E7204600F082F930073FF51A
:1009500039AF40E705F5004530073FF533AF3AE7DB
:1009600005F5803530073FF52DAF34E745F08005BC
:100970000AE045F0200507E045F0400504E045F0B9
:10098000100501E045F480752068816921F070014F
:10099000816120680421416040684DB1606A40EA8D
:1009A00005012046616201B0BDE8F04FFFF746BE89
:1009B00001B0BDE8F08F0000002804BF012070479F
:1009C000B0B5044690F8200010B9204600F06EF84B
:1009D0002068016841F00101016000F027FC054634
:1009E00020684168C90705D100F020FC401B0B2896
:1009F000F6D310E0016821F00201016000F016FC5E
:100A0000054600BF2068416889070DD500F00EFC3F
:100A1000401B0B28F6D3606A052140F40030606269
:100A2000012084F82010B0BD217E0268012922F047
:100A3000800208BF80320260617E0268012922F0D4
:100A4000400208BF40320260A17E0268012922F004
:100A5000200208BF20320260E17E0268012922F0F4
:100A6000100218BF10320260217F0268012922F0B3
:100A7000080208BF08320260617F0268012922F083
:100A8000040208BF04320260D4E901C2D4E903358C
:100A900061691A432A431143ACF101021143C16158
:100AA00000200121606284F82010B0BD80B586B0BE
:100AB00046F200410068C4F200010022884205921B
:100AC000CDE903220292019201D006B080BD43F627
:100AD00030000092C4F20200036943F00073036126
:100AE000036903F000730093009B0092036843F0D6
:100AF000080303600068022300F0080000900098DB
:100B00000320019004900920059001F5D43001A93B
:100B1000CDE9023200F0BAFA14200021002200F0E0
:100B20000BFC142000F0F6FB15200021002200F041
:100B300003FC152000F0EEFB06B080BD70470000FE
:100B4000B0B5016846F60002C4F2000291420BD033
:100B500046F20042C4F20002914218BFB0BD40F21A
:100B60007805C2F2000503E040F2A405C2F20005D8
:100B70002C1D05F1200300212246FFF761FD05F140
:100B8000280001682046BDE8B040084770470000D3
:100B9000B0B5016846F60002C4F2000291420BD0E3
:100BA00046F20042C4F20002914218BFB0BD40F2CA
:100BB0007805C2F2000503E040F2A405C2F2000588
:100BC0002C1D05F1200301212246FFF739FD05F117
:100BD000280001682046BDE8B04008477047000083
:100BE000B0B5044690F8200001281DD1022084F8F9
:100BF00020002068016821F00101016000F016FB6F
:100C0000054600BF20684068C00713D000F00EFB07
:100C1000401B0B28F6D3606A40F400306062052068
:100C200084F820000120B0BD606A40F400206062BA
:100C30000120B0BD00206062B0BD00007047000020
:100C400070470000704700007047000070470000C8
:100C5000704700007047000070B5866D044600F0D4
:100C6000E5FA94F83510022925D105462068216C53
:100C7000026822F016020260426922F0800242619C
:100C800009B9A16C19B1016821F00801016001687E
:100C900021F00101016000BF20680068C0070ED08C
:100CA00000F0C4FA401B0628F6D32020606503201C
:100CB00084F835000CE080206065012008E0E06DDC
:100CC0003F2101FA00F0B060012084F835000020D7
:100CD000002184F8341070BD90F83510022909D134
:100CE000052180F835100068016821F001010160DC
:100CF000002070478021416501207047F0B581B028
:100D00000021009140F20001C2F200010B68D0E91D
:100D1000166148F2B51537680822C1F64E358A408B
:100D20003A42A3FB05350CD003681C68640708D55C
:100D30001C6824F004041C60B260426D42F00102A1
:100D4000426501228A403A4208D003685B691B066B
:100D500004D5B260426D42F00202426504228A402C
:100D60003A4208D003681B689B0704D5B260426D05
:100D700042F00402426510228A403A4216D00168CD
:100D80000B681B0712D5B2600B680A685B0306D4B8
:100D9000D20506D40A6822F008020A6001E01103B5
:100DA0003FD4016C11B1044688472046C26D202112
:100DB00001FA02F33B4241D001680F68FF063DD5BE
:100DC000B36090F835700B68052F1AD123F0160325
:100DD0000B604B6923F080034B61036C0BB9836C90
:100DE0001BB10B6823F008030B603F219140B160F9
:100DF000012180F83510016D002280F83420D9BB24
:100E00003EE00A685B0310D4D20512D40A6822F0CF
:100E100010020A60012180F83510002180F834109A
:100E200007E0816C0029BED1C0E7110301D4416CF9
:100E300000E0C16B11B1044688472046416DF9B10D
:100E4000416DC90716D0052180F835100168AA0A3E
:100E50000B6823F001030B60009B01339342009366
:100E600002D80B68DB07F7D1012180F8351000218B
:100E700080F83410C16C19B101B0BDE8F0400847EA
:100E800001B0F0BD2DE9F041044600F0CFF9C4B146
:100E90000546022084F835000020216884F83400DB
:100EA000086820F00100086020680168C9070BD0BD
:100EB00000F0BCF9401B0528F6D9032120220320AD
:100EC0007AE00120BDE8F081016848F23F02CFF2EC
:100ED0001002D4E9013501EA020ED4E9032143EA04
:100EE0000E032B43D4E9056C1A43D4E90778114368
:100EF000314341EA0702616A42EA0802042942EAF0
:100F00000C0303D1D4E90B273A431343036042692E
:100F1000042922F0070241EA02012DD1D4E90A5343
:100F200041EA050143B3BCF5005F08D0BCF1000FF6
:100F300012D1022D16D0012D07D09DB119E0032D3D
:100F400017D8DFE805F00B0F0B02A3F1C072B2FA5D
:100F500082F252094AB90FE0032D02D2012222B9CE
:100F60000AE006D1C3F3006232B101214022012020
:100F700022E00022002AF8D100F0F8024AF6AB2362
:100F8000103ACAF6AA23A2FB033742F68E33416118
:100F90003909C0F60003595C40F2FF3398435F2AD9
:100FA0004FF03F0288BF0430C4E9160102FA01F194
:100FB0008160002201210020626584F83510BDE8BF
:100FC000F081000090F834C0BCF1010F04BF022092
:100FD000704770B54FF0010C80F834C0D0F858E07D
:100FE00090F835C0BCF1010F37D14FF0020C80F8FA
:100FF00035C04FF0000CC0F854C0D0F800C0846871
:10100000056CC06DDCF80060402C26F48026CCF81E
:101010000060CCF804300B4604BF13460A463F215B
:1010200001FA00F0CCF80830CCF80C20CEF808001B
:10103000DCF8000040F01600CCF800002DB1DCF820
:10104000000040F00800CCF80000DCF8000040F0A0
:101050000100CCF80000002070BD002180F83410A1
:10106000022070BDB0B5044600F0E0F8054640F23D
:101070000800C2F200000078611C18BF044400BFE1
:1010800000F0D4F8401BA042FAD3B0BD2DE9F04FD8
:1010900083B000F1200200F13E4742F20045009289
:1010A00007F1FF77C4F202050A224FEAB726A842E9
:1010B00008BF0922092E38BF4FEAB72200274FF098
:1010C000000A4FF0000801920AE000BF08F1010891
:1010D0000AF1020AB8F1100F07F1040700F09D8031
:1010E0000D68012202FA08FC15EA0C09EED04D68E1
:1010F000032205F0030BABF10106012E02FA0AFEF2
:1011000010D88668CC6826EA0E0604FA0AF434433E
:1011100084604468C5F3001524EA0C0605FA08F556
:101120002E434660BBF1030F1BD0C6688D6826EACC
:101130000E0605FA0AF52E43BBF1020FC66010D168
:101140006FF00302009D02EA580655F806C007F04A
:101150001C040F220B69A2402CEA0202A3401A438E
:10116000AA5102684B6822EA0E0203F0030606FA4F
:101170000AF6324313F4403F0260A7D0002243F640
:1011800044030292C4F202031A6843F6004442F494
:1011900080421A601A68C4F2010402F4804202928A
:1011A000029A28F003024FF6084C2244CFF6FF7C47
:1011B00052F80C3007F00C060F25B540AB43019DEB
:1011C00005FA06F6334342F80C30A2684B6842EA4F
:1011D000090643F60C4CDD0258BF22EA0906A66058
:1011E000C4F2010CDCF800209D0242EA090658BF57
:1011F00022EA0906CCF8006062689D0342EA09060B
:1012000058BF22EA090666602268DB0342EA090643
:1012100058BF22EA0906266058E703B0BDE8F08F00
:10122000002A08BF090481617047000041F2C02014
:10123000C2F200000068704740F2080041F2C0218D
:10124000C2F20000C2F2000100780A68104408608F
:101250007047000080B543F60040C4F20200016808
:1012600041F400710160016841F48061016001682E
:1012700041F480710160032000F08AF80F2000F033
:1012800005F800F02BF8002080BD0000B0B540F25A
:101290000802C2F2000240F200011278C2F200011C
:1012A0004FF47A730968B3FBF2F20446B1FBF2F132
:1012B000084600F077FB0F2C4FF001050CD858B909
:1012C0004FF0FF3021460022002500F035F840F2B3
:1012D0000C00C2F2000004602846B0BD82B00020BD
:1012E00043F640010190C4F202014A6842F4804290
:1012F0004A604A6802F480420192019A00900868AC
:1013000040F080500860086800F08050009000981D
:1013100002B07047002848BF704700F01F0101224B
:1013200002FA01F11C2202EAD0004EF20012CEF2C3
:10133000000281507047000010B54EF60C5CCEF2F2
:10134000000CDCF80030C3F3022E8EF00704042CEE
:1013500028BF0424BEF103034FF0FF3E0EFA04F44D
:1013600038BF0023A14399400EFA03F39A43114377
:1013700000F1604200F00F03090102F56442043BF2
:101380006344002848BF03F10C02117010BD000037
:101390004EF60C51CEF200010A684FF6FF031A40D8
:1013A00060F30A2242F0806040F0FD7008607047F0
:1013B00070B582B00020019043F64000C4F20200F4
:1013C0000168402641F0805101600068C4F20E2699
:1013D00000F080500190019847F204050120C4F20A
:1013E00000053060FFF722FF044600BF2868C003F5
:1013F00006D4FFF71BFF001BB0F57A7FF6D90EE08D
:1014000001207060FFF712FF044600BF28688003C8
:1014100008D4FFF70BFF001BB0F57A7FF6D9032045
:1014200002B070BD002002B070BD0000002804BFF3
:10143000012070472DE9F04143F60808C4F2020884
:101440000446D8F8F8030D4600F00F00814207D992
:1014500088F8F853D8F8F80300F00F00A84276D1C6
:101460002068810717D5410705D5D8F8001041F449
:10147000E051C8F80010010705D5D8F8001041F474
:101480006041C8F80010D8F80010A26821F0F001FF
:101490001143C8F80010C0073FD1D8F8F80300F096
:1014A0000F00854207D288F8F853D8F8F80300F007
:1014B0000F00A8424BD12068410707D5D8F800108B
:1014C000E26821F4E0511143C8F80010000708D584
:1014D000D8F80000216920F4604040EAC100C8F853
:1014E000000000F07BF8D8F8001042F67632C1F325
:1014F0000311C0F60002515C40F2000220FA01F133
:1015000040F20C00C2F200000068C2F2000211605A
:10151000FFF7BCFE0020BDE8F0816068811E022953
:1015200007D258F8081C89015CBF0120BDE8F08192
:1015300010E0012807D158F8081C89035CBF01207E
:10154000BDE8F08106E058F8081C890702D40120A4
:10155000BDE8F081D8F8001021F003010843C8F875
:101560000000FFF763FE064641F28837D8F8000016
:10157000616800F00C00B0EB810F8ED0FFF756FED3
:10158000801BB842F2D90320BDE8F08140F2000090
:1015900043F60801C2F20000C4F2020100680968C3
:1015A00042F68632C1F38221C0F60002515CC84087
:1015B0007047000040F2000043F60801C2F200004C
:1015C000C4F202010068096842F68632C1F3423172
:1015D000C0F60002515CC8407047000010B543F6E9
:1015E0000404C4F202046168C1F3810142F20040C4
:1015F000C0F2F400DFE801F00203080210BD41F67A
:101600000030C0F2B70010BD20682168236849028D
:1016100041F60031C0F2B70100F03F02C3F3881079
:101620005CBF42F20041C0F2F401A1FB00010023C3
:10163000FEF742FE21680222C1F3014102EB4101A3
:10164000B0FBF1F010BD0000002804BF012070477E
:101650002DE9F04182B00446007843F60006C00749
:10166000C4F2020649D0B06800F00C00042809D189
:101670003068800341D5606800283ED1012002B067
:10168000BDE8F081B06800F00C00082802D1706855
:101690004002EDD465683068B5F5A02F05D0B5F5EA
:1016A000803F09D140F480300CE040F4802030606D
:1016B000306840F4803005E020F4803030603068DD
:1016C00020F480203060FFF7B1FD002D054611D0D9
:1016D0003068800311D4FFF7A9FD401B6428F7D9B7
:1016E00028E100BFFFF7A2FD401B64284FF0030074
:1016F00000F2E08030688003F4D4207880071BD5A6
:10170000B06810F00C0F09D0B06800F00C00082889
:1017100040F085807068400200F181803068800769
:1017200003D5E068012840F09A803068216920F0F4
:10173000F80040EAC10030602078000734D42078F7
:10174000400746D4A5695DB3B06800F00C000828D6
:1017500040F09C80012D00F082807068E16900F407
:1017600080028A427BD1216A00F03F028A4276D110
:1017700047F6C071626A0140B1EB821F6FD1A16A66
:101780004FF6FF73C903994300F44032A1F580314D
:101790008A4264D1E16A00F07060B0EB016F5ED103
:1017A000002002B0BDE8F081606900285BD0002015
:1017B000C4F247200121C0F8801EFFF737FD05461F
:1017C000706F8007BBD4FFF731FD401B0228F7D9AB
:1017D000B0E0306C5FEAC0080AD400200190306CA1
:1017E00040F080503064306C00F0805001900198DF
:1017F00047F20007C4F200073868C00526D43868ED
:1018000040F480703860FFF711FD05463868C00568
:101810001CD4FFF70BFD401B0228F7D98AE0E068D3
:10182000002840F20000C4F2472053D0012101609B
:10183000FFF7FCFC054600BF306880073FF575AF39
:10184000FFF7F4FC401B0228F6D973E0A568306F5F
:10185000052D51D0012D56D140F0010059E0012055
:1018600002B0BDE8F0810020C4F247200021C0F89A
:10187000801EFFF7DBFC0546706F80077FF55FAFCA
:10188000FFF7D4FC401B0228F6D953E00027C4F22E
:10189000472700203866FFF7C9FC022D05460DD109
:1018A000306880015DD5FFF7C1FC401B02284FF076
:1018B0000300F5D902B0BDE8F08100BF30688001B7
:1018C0007FF56EAFFFF7B2FC401B02284FF003001C
:1018D000F4D9EFE700210160FFF7A8FC054600BF3F
:1018E000306880077FF528AFFFF7A0FC401B022877
:1018F0004FF00300F4D9DDE740F004003067306FAB
:1019000040F0010005E020F001003067306F20F06A
:1019100004003067FFF78AFC002D054641F2883746
:1019200013D000BF306F800712D4FFF77FFC401B3D
:10193000B842F7D9032002B0BDE8F081FFF776FC8A
:10194000401BB8424FF00300B4D8306F8007F5D485
:10195000B8F1000F3FF5F6AE306C20F080503064E7
:10196000F0E604F11C052FCD084340EA8210D903AC
:101970004FF6FF729143A1F5803140EA05600843BC
:10198000706001203866FFF751FC04463068800122
:101990003FF506AFFFF74AFC001B02284FF003009B
:1019A000F4D987E7411E0020B0EB116F1CBF012066
:1019B00070474EF21002CEF2000251604EF62351F3
:1019C000CEF20001F0230B70072190601160704788
:1019D00090F83E30202B0BD1034600294FF0010038
:1019E00018BF002A00D1704793F83C00012801D1AC
:1019F0000220704710B582B0012083F83C001863C4
:101A000018461C4600F088FB216B0120012912D1E9
:101A100000200190206801680191406801900198C0
:101A2000206850E8030F216840F0100041E80302ED
:101A3000002AF5D1002002B010BD000070B50446A8
:101A4000006847F2FF72C4F20002904216DC44F6CE
:101A5000FF32C4F20002904228DC44F20042C4F299
:101A60000002904244D044F60002C4F200029042C8
:101A700061D140F2FC40C2F200004CE040F6FF723F
:101A8000C4F20102904222DC47F60002C4F20002D6
:101A9000904232D047F60042C4F20002904218BF92
:101AA00070BD40F63870C2F2000034E044F60042E7
:101AB000C4F20002904225D045F20002C4F20002B6
:101AC000904238D140F61410C2F2000023E041F2F7
:101AD0000002C4F20102904219D041F20042C4F265
:101AE0000102904227D140F62030C2F2000012E0FD
:101AF00040F2F020C2F200000DE040F62C50C2F29D
:101B0000000008E040F20870C2F2000003E040F27A
:101B1000E400C2F2000000F5017600F5827500F5E0
:101B20000270026828469047328820462946BDE860
:101B30007040FFF74DBF70BD70470000B0B582B078
:101B400001680A68CC684B6902F02F05202D04F06B
:101B5000200505D125B102B0BDE8B04000F09ABD26
:101B60005FEA027C1EBF03F0010E04F4907313EBD6
:101B70000E0340D1036BD50618D5012B16D114F0F6
:101B8000100313D0002201920A6801924A68019260
:101B9000019A4969490647D4818DC28DC38D002BB6
:101BA00018BF914240F00C8102B0B0BD13062AD597
:101BB00014F0800327D090F83D20212AF4D18268C8
:101BC000B2F5805F03D10269002A00F02A81026A1F
:101BD000531C036212784A60C28C013A1304C28417
:101BE000E2D1C86820F08000C860C86840F04000BA
:101BF000C86002B0B0BDD10718BF14F4807159D1CC
:101C000051075DD463E05206CED514F04002CBD02C
:101C1000CA6822F04002CA60202180F83D1002B05C
:101C2000BDE8B04000F0BAB9816B0A68526893B25F
:101C3000002BB9D0858DAB42B6D2C285C969B1F54A
:101C4000807F33D0016851E8031F026821F480715E
:101C500042E80313002BF5D1016851E8051F026823
:101C600021F0010142E80513002BF5D1016851E88C
:101C7000051F026821F0400142E80513002BF5D151
:101C8000202180F83E100021016300BF016851E867
:101C9000031F026821F0100142E80313002BF5D165
:101CA000816B04460846FEF7D7FF2046818DC28D22
:101CB000891AABE0016C41F001010164510706D5BE
:101CC000BEF1000F03D0016C41F0020101649107E5
:101CD00006D5BEF1000F03D0016C41F00401016490
:101CE000BCF1000F06D55EEA050103D0016C41F09E
:101CF00008010164016C00293FF456AF910604D538
:101D00001DB1044600F0C6FC204601684969026C1A
:101D100001F0400102F0080289184AD0016851E838
:101D2000031F026821F4907142E80313002BF5D1E0
:101D3000016851E8051F026821F0010142E805131E
:101D4000002BF5D1016B01290AD100BF016851E8D0
:101D5000031F026821F0100142E80313002BF5D1A4
:101D6000202180F83E10002101630168496949067D
:101D700052D500BF016851E8051F026821F04001FB
:101D800042E80513002BF5D1816B002944D042F2C3
:101D9000E172C0F60002044608460A65FEF79CFFA1
:101DA00000283FF401AFA06B016D02B0BDE8B04068
:101DB00008470446FFF7C0FE0020206402B0B0BD13
:101DC000891A00BF026852E8032F036822F4907258
:101DD00043E80325002DF5D1026852E8052F03687A
:101DE00022F0010243E80525002DF5D1202280F8DC
:101DF0003E200022026300BF026852E8032F0368FE
:101E000022F0100243E80325002DF5D189B202B07B
:101E1000BDE8B040FFF712BE02B0BDE8B040FFF72A
:101E20008BBE026A32F8023B6FF35F234B600262A3
:101E3000D2E60000002804BF0120704710B5044618
:101E400090F83D0028B9002084F83C00204600F0BE
:101E500021F8242084F83D002068C16821F4005155
:101E6000C160204600F0A6FB2068016921F4904182
:101E70000161416921F02A014161C16841F40051C9
:101E8000C16000202021206484F83D1084F83E10B9
:101E900010BD00002DE9F04387B0044644F2004035
:101EA0002168C4F20000002681420696CDE904664E
:101EB0000396029602D007B0BDE8F08343F63001E6
:101EC0000196C4F202010A6946F2880842F400321F
:101ED0000A610A6900F5E43002F400320192019AC5
:101EE00001960A68C4F2020842F008020A60096812
:101EF00001F0080101910199602102910221CDE9CF
:101F00000316032105910721069102A9FFF7BEF8E8
:101F100041F26C15C2F200054FF000674FF4806982
:101F20002846C5E90087C5E90266C5E90496C5E902
:101F30000666C5E90866FEF7A5FF002818BFFEF78C
:101F4000B3FAA563AC6341F2CC1508F11800C2F2F4
:101F500000054021C5E9000705F10800002280E8DE
:101F600006022846C5E90522C5E907226A62FEF78E
:101F700089FF002818BFFEF797FA262000210022CB
:101F80006563AC63FFF7D8F92620FFF7C3F907B004
:101F9000BDE8F08370470000704700007047000004
:101FA000FEE7000080B541F2441046F20041C2F263
:101FB0000000C4F200010922002380E80E0000F1B5
:101FC0000C014FF4803C4FF4801E81E808504FF420
:101FD00080710183C0F81A30FEF7EEFC002808BFBC
:101FE00080BDBDE88040FEF75FBA000080B582B0DA
:101FF0000020019043F63000C4F202000168002284
:1020000041F4001101600068002100F4001001900B
:1020100001981020FFF790F91020FFF77BF91120AD
:1020200000210022FFF788F9112002B0BDE88040AE
:10203000FFF770B970B586B0002543F630000595FE
:10204000CDE90355CDE901550095C4F202000168C0
:1020500041F6004441F0010101600168C4F202044C
:1020600001F001010091009900950168002241F002
:102070000801016001683C2601F008010091009907
:102080000095016841F08001016000683C2100F08A
:102090008000009000982046FFF7C2F801200290CF
:1020A0000220CDE9030501A920460196FEF7EEFFC7
:1020B00006B070BD80B541F22C2044F20041C2F25E
:1020C0000000C4F2000100234FF00C0C4FF4E13289
:1020D00080E80E00C0E90333C0E905C3C361FFF720
:1020E000A9FE002808BF80BDBDE88040FEF7DCB92E
:1020F000FEE70000FEE700007047000070470000A8
:10210000FFF79AB84EF68850CEF20000016841F40D
:10211000700101607047000070B582B01346002660
:102120000446816283850664222084F83E00A06B09
:1021300042F2657C42F251750A462168C0F6000CF5
:10214000C0F60005C0E90FC542F21155C0F6000502
:102150000431C0E91356FEF735FF01962068016887
:102160000191406801900198206984F83C6048B171
:10217000206850E8030F216840F4807041E80302B2
:10218000002AF5D1206850E8050F216840F00100D1
:1021900041E80502002AF5D1206850E8050F2168C2
:1021A00040F0400041E80502002AF5D1002002B0CD
:1021B00070BD000041F22C20C2F20000FFF7BEBC4F
:1021C000FEE7000080B588B002910021CDE903113F
:1021D000CDE9051302A901ABFEF76CF908B080BD8B
:1021E00010B592B006AC20463021FEF7DDF8002095
:1021F00043F640010590CDE90300CDE901000090D0
:10220000C4F202010A6842F080520A60096801F0D3
:10221000805100910099009047F20000C4F2000044
:10222000016841F44041016000684FF4800100F40E
:10223000404000900098012006904FF480300D91AE
:102240000621079002200E91B4210C90CDE90F10C9
:10225000042011902046FFF7F7F920B1EFF310802A
:1022600072B600BFFEE7FFF7A3F820B1EFF31080CE
:1022700072B600BFFEE70F200190022002900020FE
:1022800003904FF4A05004904FF48050059001A8A3
:102290000521FFF7CBF820B1EFF3108072B600BF35
:1022A000FEE712B010BD0000016840F20122914229
:1022B00018BF7047818B40F2DC0209BAC38B090C4E
:1022C000C2F20002118019BA40F2DE02038C090C3E
:1022D000C2F20002118019BA40F2E202090CC2F205
:1022E0000002118090F8220040F2E001C2F20001E9
:1022F0000880704780B58AB05FEA817C08D45201BB
:102300000092022202EA41025B01019202930EE076
:102310004FEAC24CCDF800C04FF0060C0CEA410C5D
:102320004CEAC2020192DA0402924CEAC30203921E
:10233000CA08C1F38001059204910121002208918D
:10234000CDE906210E2109916946FEF707F90AB089
:1023500080BD000070B541F60004C4F2020404F52B
:102360008066054600F0010230462021FEF758FF46
:10237000C5F3400230461021FEF752FFC5F380023C
:1023800030460821FEF74CFFC5F3C0023046042159
:10239000FEF746FF05F01000012686EA1012A4F5AC
:1023A00000604FF40061FEF73BFF05F0200086EA75
:1023B0005012A4F580604FF48041FEF731FF05F024
:1023C000400086EA901220460221FEF729FFE8B27B
:1023D00086EAD01220460421FEF722FF05F4807021
:1023E00086EA102220460821FEF71AFF05F4007045
:1023F00086EA502220461021FEF712FF05F4806085
:1024000086EA902220462021FEF70AFF05F40060AC
:1024100086EAD02220464021FEF702FF05F48050D4
:1024200086EA103220468021FEF7FAFE05F40050BD
:1024300086EA503220464FF48071BDE87040FEF7C6
:10244000EFBE0000F0B58BB00D460446FEF7C8FBAA
:10245000206846F600024169C4F2000241F0020120
:1024600041614169904241F01001416127D046F23B
:102470000041C4F20001884247D140F27800C2F224
:10248000000004608562002501260E2701A9204670
:10249000CDE90555CDE90355CDE901550996CDE9BD
:1024A00007560A97FEF75AF8CDE90355CDE90155CD
:1024B000CDE90566CDE90756CDE9096721E040F28F
:1024C000A400C2F200000460856200250E260127E8
:1024D00001A92046CDE90355CDE90155CDE90556C1
:1024E000CDE90757CDE90976FEF738F80F20CDE999
:1024F0000355CDE90155CDE90570CDE90757CDE983
:10250000097601A92046FEF729F80BB0F0BD0000BE
:10251000806B0168496990F83D20212A11D111F0A2
:1025200080010ED00021C184016851E8031F0268B8
:1025300021F0C00142E80313002BF5D1202180F8DF
:102540003D100168496990F83E20222A2BD111F0F4
:10255000400128D00021C185016851E8031F0268AD
:1025600021F4907142E80313002BF5D1016851E882
:10257000051F026821F0010142E80513002BF5D187
:10258000016B01290AD100BF016851E8031F0268ED
:1025900021F0100142E80313002BF5D1202180F82F
:1025A0003E1000210163016C41F010010164FFF74E
:1025B000C3BA0000B0B50446006804F108030ECBAE
:1025C0000569194325F440552A4302616269E369AC
:1025D0001143C268194349F20C639A431143C16025
:1025E0004169A26921F4407141F20043114340F472
:1025F0008062C4F201039A42416102D1FEF7DAFF20
:1026000001E0FEF7C3FFE1694FF69C75636819228C
:10261000C0F6FF75B1F5004FA0FB02011CD15A00B6
:10262000DB0FFDF749FE48F21F51C5F2EB11A0FB8D
:1026300001235A0905F1805302FB0300322303EB07
:10264000C000A0FB01014FF4F87000EA111000EB8C
:102650000210C1F3421118E09A009B0FFDF72CFE07
:1026600048F21F51C5F2EB11A0FB01235A0902FBEE
:102670000500322303EB0010A0FB0101F02000EA6B
:10268000511000EB0210C1F3431108442168886027
:10269000B0BD000090F83E10222918BF7047826834
:1026A000B2F5805F02D10169002948D0816AB2F594
:1026B000805F07D00AB9026922B10268526802F04D
:1026C0007F0201E0026852680A70816A013181620A
:1026D000C18D01390A04C18500D070470168CA68FC
:1026E00022F02002CA60CA6822F48072CA604A6975
:1026F00022F001024A61202180F83E10016B01297D
:1027000018BFFFF747BC81B000210163016851E8A1
:10271000031F026821F0100142E80313002BF5D1DA
:1027200001680A68D20606D5002200920A68009263
:10273000496800910099818D01B0FFF77FB9016868
:10274000826A49686FF35F2122F8021B8262BFE749
:10275000806B016B012918BFFFF71EBC818D4908F2
:10276000FFF76CB90168806B0968C90530D4002196
:10277000C18500BF016851E8031F026821F4807120
:1027800042E80313002BF5D1016851E8051F0268E8
:1027900021F0010142E80513002BF5D1016851E851
:1027A000051F026821F0400142E80513002BF5D116
:1027B000202180F83E10016B012909D1016851E800
:1027C000031F026821F0100142E80313002BF5D12A
:1027D000016B012918BFFFF7DDBB818DFFF72EB913
:1027E000806B0021C185C184FFF7A6B980ED110A75
:1027F0007047000090ED110A90ED121A90ED013A29
:1028000030EE410AB0EEC02AB4EE432AF1EE10FADF
:1028100005DA9FED630A80ED111AB0EE402A90EDC3
:102820000E5A90ED0F6AB5EE405A0021F1EE10FA03
:102830004FF00002B5EE406A90ED083A18BF012251
:10284000F1EE10FA18BF01211143C907B7EE004A93
:1028500016D0B4EE452AF1EE10FA11DD35EE064A37
:10286000B4EE442AF1EE10FA08DA35EE424A84EE6C
:10287000064AB7EE005A34EE054A01E09FED484A99
:1028800090ED0C5AB5EE405AF1EE10FA18D090EDDA
:10289000097AB1EE456A86EE076AD0ED130AF4EEC6
:1028A000460AF1EE10FA02DA80ED136A08E085EECE
:1028B000076AF4EE460AF1EE10FAC8BF80ED136A1B
:1028C00090ED105A20EE033AB5EE405AF1EE10FAB0
:1028D00004D0B4EE452AF1EE10FA5CDA90ED002A4D
:1028E00090ED136A24EE022A90ED095A22EE002A96
:1028F00032EE062A80ED132A22EE054A017A1422CE
:1029000090ED0A2A90ED005A90ED076A002908BF61
:10291000182200EB020191ED007A08BFB0EE406A88
:1029200036EE476A22EE062A82EE055A90ED046AD8
:1029300090ED112A33EE043A90ED0B7A32EE466AAE
:1029400026EE076A33EE054A90ED0D3A34EE064A5C
:10295000B5EE403AF1EE10FA80ED074A12D0B1EE32
:10296000435AB4EE454AF1EE10FA02DA80ED075A06
:1029700008E0B4EE434AF1EE10FAB0EE435AC8BF95
:1029800080ED075AC16980ED031A80ED042A416188
:1029900080ED060A70479FED024A0021C164ADE751
:1029A0000000000000F1200282EC060A00F138026B
:1029B00080EC023A82EC034A0172704790ED070AFC
:1029C0007047000080ED120A704700002DE9F04FBB
:1029D00081B02DED068BFEF73DFCFFF701FCFFF704
:1029E00029FBFFF703FBFFF7DDFAFFF763FB9FED22
:1029F000528A0F20B0EE480AF0EE480AFFF7AAFC10
:102A000041F24414C2F2000442F2A921C0F60001CE
:102A10002046FFF717FD204604210022002300274F
:102A2000FFF768FC41F270259FED452AC2F20005D0
:102A30009FED421A9FED433AF1EE040A2846B0EEAC
:102A4000480AF0EE481AF0EE422AF0EE483AB0EEAC
:102A5000484AF0EE484AB0EE485A0021FFF7A2FF7C
:102A600040F2D00440F204099FED398A40F2DE0BB7
:102A70009FED389A9FED38AA40F2D40A40F2D80868
:102A800040F27006C2F20004C2F20009C2F2000B6A
:102A9000C2F2000AC2F20008C2F2000637E000BF2C
:102AA000BBF9000000EE100AB8EEC00A30EE000AD2
:102AB00020EE090A80EE0A1A99ED000A28468AEDEE
:102AC000001AFFF793FE9AED000A2846FFF77AFFF7
:102AD0002846FFF78FFE2846FFF770FFBDEEC00ABD
:102AE00010EE100A010A707041F244103170C2F207
:102AF00000004FF400713246082388ED000AC6F842
:102B00000270F780FFF75EFB0120FEF7ABFA20684A
:102B10000130B0F5FA6F2060C2D399ED000A0AA027
:102B2000B4EE480AF1EE10FA08BF043000682760DE
:102B3000C9F80000B4E700BF00000000CDCCCC3DD8
:102B4000000080466F12833A63141D4363149D4353
:102B500063141D43DB0F494000007042F1EE100A80
:102B60004FF6FF71C0F2C03120EA010040F0407022
:102B7000E1EE100A704700000000000000000102B2
:102B80000304060708090000000001020304000610
:102B90001016000610160000B82B000800000020D8
:102BA0001000000010020008C82B000810000020D0
:102BB000B8180000300200080024F40063141D431C
:082BC0000100000010000000FC
:04000005080001AD41
:00000001FF
