:020000040800F2
:10000000101C00206D020008651F0008191E000862
:10001000611F000865040008392000080000000086
:100020000000000000000000000000006D1F00083C
:10003000A904000800000000691F0008711F0008E3
:10004000870200088702000887020008870200086C
:10005000870200088702000887020008870200085C
:10006000870200088702000887020008870200084C
:10007000870200088702000887020008870200083C
:100080008904000899040008870200088702000814
:100090006904000879040008870200088702000844
:1000A000870200088702000887020008870200080C
:1000B00087020008870200088702000887020008FC
:1000C00087020008870200088702000887020008EC
:1000D000870200088702000829200008870200081C
:1000E00087020008870200088702000887020008CC
:1000F00087020008870200088702000887020008BC
:1001000087020008870200088702000887020008AB
:10011000870200088702000887020008870200089B
:10012000870200088702000887020008870200088B
:10013000870200088702000887020008870200087B
:10014000870200088702000887020008870200086B
:10015000870200088702000887020008870200085B
:10016000870200088702000887020008870200084B
:1001700087020008870200088702000800000000CC
:10018000870200088702000887020008870200082B
:10019000870200088702000887020008870200081B
:1001A00000000000000000008702000800F002F8D4
:1001B00000F04CF80AA090E8000C82448344AAF1B5
:1001C0000107DA4501D100F041F8AFF2090EBAE8B3
:1001D0000F0013F0010F18BFFB1A43F0010318477B
:1001E0005C2E00007C2E00000A4410F8014B14F035
:1001F0000F0508BF10F8015B240908BF10F8014B78
:100200006D1E05D010F8013B6D1E01F8013BF9D1C0
:10021000641E03D0641E01F8015BFBD19142E4D35C
:10022000704700000023002400250026103A28BF54
:1002300078C1FBD8520728BF30C148BF0B60704758
:100240001FB502F0E1FE1FBD10B510BD00F0DBF8D8
:100250001146FFF7F5FF02F03BFE00F0F9F803B49A
:10026000FFF7F2FF03BC00F0C3F800000948804725
:1002700009480047FEE7FEE7FEE7FEE7FEE7FEE788
:10028000FEE7FEE7FEE7FEE704480549054A064BA0
:1002900070470000791F0008AD010008101600200B
:1002A000101C0020101800201018002053EA020C27
:1002B00000F069802DE9F04B4FF00006002B1FBFC6
:1002C000B3FA83F503FA05F424FA05F65E4012BF8B
:1002D0001643B2FA82F502FA05F4C5F120051EBFF5
:1002E00022FA05FC44EA0C04203556EA044C4FEA95
:1002F000144418BF641C4FF000084FF000099042EE
:1003000071EB030C39D3002919BFB1FA81F701FA57
:1003100007F6B0FA80F700FA07F6C7F120071EBF0C
:1003200020FA07FC46EA0C062037B6FBF4FCA7EBE4
:100330000507103F07F01F0BCBF120062CFA06F63D
:100340000CFA0BFB44BFB3460026202FA4BF5E4629
:100350004FF0000B5BEA060C08BF4FF0010B19EBE6
:100360000B0948EB0608ABFB027C06FB02CC0BFB3F
:1003700003CCC01B71EB0C01C1E70B4602464146A2
:100380004846BDE8F08B13B5084318BF4FF0FF3067
:100390000146AFF30080BDE81C4070474FF00002FB
:1003A00000B5134694469646203922BFA0E80C506B
:1003B000A0E80C50B1F12001BFF4F7AF090728BF46
:1003C000A0E80C5048BF0CC05DF804EB890028BFC2
:1003D00040F8042B08BF704748BF20F8022B11F0EB
:1003E000804F18BF00F8012B704770477047704767
:1003F00001491820ABBEFEE7260002000048704706
:100400006003002070477546FFF7F8FFAE46050011
:100410006946534620F00700854618B020B5FFF71F
:1004200033FFBDE820404FF000064FF000074FF0CB
:1004300000084FF0000BAC46ACE8C009ACE8C009BE
:10044000ACE8C009ACE8C00921F007018D4670474F
:1004500010B50446AFF300802046BDE81040FFF71A
:10046000FEBE0000FEE7000080B541F29440C2F2FB
:10047000000000F073F980BD80B541F29440C2F2F3
:10048000000000F06BF980BD80B541F2BC40C2F2C3
:10049000000000F029FC80BD80B541F21C50C2F282
:1004A000000000F021FC80BD70470000EFF31080D9
:1004B00072B600BFFEE7000010B590F820E0D0F85B
:1004C00000C0AEF1010EBEF1010FDCF808E00DD85E
:1004D0001EF0E05F10D0CEF3016EBEF1030F11D11C
:1004E00000F1240101204FF4000233E000F1240167
:1004F00001204FF480222DE000F1240101204FF46F
:10050000001227E0012000FA0EF01860886818B188
:100510004B6840EAC30001E008684005D1E90334B4
:1005200003430CEB0E10C0F88031C0F88441097D04
:10053000012905D100F5C2710B6843F480730B608B
:100540005168C0F88C11126800F5C071C0F888219C
:10055000002001220B681A430A6010BDB0B590F864
:100560002020013A012A2FD846F20060C4F2000090
:10057000026842F001020260026822F47C520260CA
:10058000D1F814E0CC694A6A0368012C43EA0222DC
:1005900002600EF01F024FF0010303FA02F2C3697A
:1005A0006FEA020C23EA0203C36113D02CBBC368B9
:1005B00003EA0C03C360CB688C8844EA034300EB76
:1005C000CE0423640B4611E0416A41F4802141626C
:1005D0000120B0BDC3681343C3600B688C8844EA34
:1005E000034300EBCE04236401F10C038C681B88E9
:1005F00043EA044300EBCE04636443688D6943EA35
:100600000204D1F810E0096A002D08BF03EA0C04C7
:1006100044604369BEF1000F43EA020408BF03EAE5
:100620000C040129446102D1C1691143C16101680F
:1006300021F0010101600020B0BD00007047000002
:1006400010B590F82040013C012C0CD8D0F800C027
:1006500079B1DCF81040A4070FD100F1240101208A
:100660004FF4001270E000F1240101204FF48022C9
:100670006AE0DCF80C40A4076AD0046804EB011CB3
:10068000DCF8B0410CF5D87E14F004049460DCF87A
:10069000B04119BFE4085460640D1460DEF80040F6
:1006A000002904F00204D460DCF8B44104F00F0423
:1006B0001461DCF8B441C4F307249461DCF8B4415C
:1006C0004FEA14445461DCF8B8211A70026802EB56
:1006D0000112D2F8B8214FEA12225A70026802EBD6
:1006E0000112D2F8B8214FEA12429A70026802EB66
:1006F0000112D2F8B8214FEA1262DA70026802EBF6
:100700000112D2F8BC211A71026802EB0112D2F870
:10071000BC214FEA12225A71026802EB0112D2F890
:10072000BC214FEA12429A71026802EB0112D2F820
:10073000BC214FEA1262DA71006814BF00F11001A7
:1007400000F10C01002020220B681A430A6010BD42
:1007500000F1240101204FF40012F5E72DE9F04FDC
:1007600081B0044600684669D0F804908768D0F8E4
:100770000CB0D0F810A0D0F81880F10703D10025F4
:1007800030071DD425E0F90711D001218160806870
:10079000B80709D4780700F1B180380700F1B780B5
:1007A000204600F041FA02E0204600F03FFA002522
:1007B000F80500F18A80F80300F1B180300708D510
:1007C0001BF0100005D020681021C160C06845F4FE
:1007D0000075700709D51BF0080006D020680821B5
:1007E000C160C068204600F0A3F9B00706D52068B4
:1007F000C068800702D0204600F09CF9700608D53A
:100800001AF0100005D0206810210161006945F43C
:100810008065B00609D51AF0080006D020680821C6
:1008200001610069204600F0A9F9F00606D52068AC
:100830000069800702D0204600F0A2F9B00309D574
:1008400019F0100006D02068102141604068204651
:1008500000F0BAF9F00309D519F0080006D02068B5
:10086000082141604068204600F0EAF9300440F178
:1008700092805FEA497040F18A8006F4807008EA4D
:10088000102028435FEA8871014648BF41F0020109
:10089000B20558BF01465FEA48700D4648BF45F0B3
:1008A0000405700558BF0D46300570D518F070006E
:1008B0006DD010380009052864D8DFE800F0035532
:1008C000585B5E6145F008055CE020684FF480717C
:1008D00081608068B8050AD4780512D4380519D427
:1008E000204600F0A5F9F8037FF568AF17E0204631
:1008F00000F0A0F9F8037FF561AF10E04FF4006558
:1009000056E705F50055F8037FF558AF07E04FF4BB
:1009100080554DE705F58045F8037FF54FAF20681A
:100920004FF4803181608068B8030AD478030FD413
:10093000380313D4204600F07FF930073FF540AF6D
:1009400047E7204600F07AF930073FF539AF40E736
:1009500005F5004530073FF533AF3AE705F580353B
:1009600030073FF52DAF34E745F010050AE045F0BC
:10097000200507E045F0400504E045F0800501E072
:1009800045F480752068816921F0700181612068DB
:100990000421416040682DB1606A284360622046AE
:1009A000FFF74CFE01B0BDE8F08F0000B0B5C8B154
:1009B000044690F8200010B9204600F071F8206835
:1009C000016841F00101016000F0D6FB054600BF5F
:1009D00020684168C90707D100F0CEFB401B0B28F7
:1009E000F6D312E00120B0BD016821F002010160E0
:1009F00000F0C2FB054600BF2068416889070DD59D
:100A000000F0BAFB401B0B28F6D3606A052140F4C6
:100A100000306062012084F82010B0BD217E0268A1
:100A2000012922F0800208BF80320260617E0268E4
:100A3000012922F0400208BF40320260A17E026814
:100A4000012922F0200208BF20320260E17E026804
:100A5000012922F0100218BF10320260217F0268C3
:100A6000012922F0080208BF08320260617F026893
:100A7000012922F0040208BF04320260D4E901C255
:100A8000D4E9033561691A432A431143ACF10102E9
:100A90001143C16100200121606284F82010B0BDC3
:100AA00080B586B046F200410068C4F20001002221
:100AB00088420592CDE903220292019201D006B04C
:100AC00080BD43F630000092C4F20200036943F097
:100AD00000730361036903F000730093009B0092AD
:100AE000036843F0080303600068022300F0080075
:100AF000009000980320019004900920059001F5D2
:100B0000D43001A9CDE9023200F062FA14200021AC
:100B1000002200F0A9FB142000F0A2FB1520002108
:100B2000002200F0A1FB152000F09AFB06B080BD6A
:100B300070470000B0B5016846F60002C4F200023A
:100B400091420BD046F20042C4F20002914218BF1B
:100B5000B0BD40F2D835C2F2000503E040F20445D2
:100B6000C2F200052C1D05F1200300212246FFF7EB
:100B700067FDA96A20468847B0BD000070470000A5
:100B8000B0B5016846F60002C4F2000291420BD0F3
:100B900046F20042C4F20002914218BFB0BD40F2DA
:100BA000D835C2F2000503E040F20445C2F2000568
:100BB0002C1D05F1200301212246FFF741FDA96A02
:100BC00020468847B0BD000070470000B0B504461D
:100BD00090F8200001281DD1022084F82000206810
:100BE000016821F00101016000F0C6FA054600BF6E
:100BF00020684068C00713D000F0BEFA401B0B28E5
:100C0000F6D3606A40F400306062052084F820006A
:100C10000120B0BD606A40F4002060620120B0BDD8
:100C200000206062B0BD0000704700007047000007
:100C300070470000704700007047000070470000D8
:100C40007047000070B5866D044600F095FA94F880
:100C50003510022925D105462068216C026822F052
:100C600016020260426922F08002426109B9A16C59
:100C700019B1016821F008010160016821F001014A
:100C8000016000BF20680068C0070ED000F074FA51
:100C9000401B0628F6D320206065032084F8350029
:100CA0000CE080206065012008E0E06D3F2101FA42
:100CB00000F0B060012084F835000020002184F8A5
:100CC000341070BD90F83510022909D1052180F843
:100CD00035100068016821F00101016000207047B3
:100CE0008021416501207047F0B581B004460020A5
:100CF000009040F20000C2F200000268D4E91660E1
:100D000048F2B51337680821C1F64E3381403942A5
:100D1000A2FB03250CD0226813685B0708D5136873
:100D200023F004031360B160616D41F0010161655E
:100D300001218140394208D022685269120604D547
:100D4000B160616D41F00201616504218140394269
:100D500008D022681268920704D5B160616D41F035
:100D60000401616510218140394215D02068026874
:100D7000120711D5B16002680168520306D4C90593
:100D800006D4016821F00801016001E0080342D4A3
:100D9000216C09B120468847E16D202000FA01F25C
:100DA0003A4244D020680368DB0640D5B26094F82C
:100DB00035300268052B1ED122F01602026042690E
:100DC00022F080024261226C0AB9A26C1AB1026858
:100DD00022F0080202603F208840B060012084F8C1
:100DE0003500216D0020002984F8340040D02046D1
:100DF000884701B0F0BD0168520310D4C90512D470
:100E0000016821F010010160012084F83500002004
:100E100084F8340007E0A16C0029BBD1BCE70803CB
:100E200001D4616C00E0E16B09B120468847606D38
:100E3000F0B1606DC00717D0052084F83500206838
:100E4000A90A026822F00102026000BF009A013282
:100E50008A42009202D80268D207F7D1012084F8B2
:100E60003500002084F83400E16C09B12046884741
:100E700001B0F0BD2DE9F041044600F07DF9C4B1A8
:100E80000546022084F835000020216884F83400EB
:100E9000086820F00100086026683068C0070BD0A1
:100EA00000F06AF9401B0528F6D90321202203200F
:100EB00042E00120BDE8F081306848F23F01CFF206
:100EC0001001251D00EA010C2ECDD4E9050E41EAE2
:100ED0000C01114319432943D4E90778084340EA38
:100EE0000E01606A3943042841EA080103D1D4E9BC
:100EF0000B231143194331607169042821F0070164
:100F000041EA00050CD1D4E90A1045EA010538B1DF
:100F1000204601F02DFC18B10121402201200BE0F8
:100F20002046756101F032FDE16D3F2202FA01F1C8
:100F30008160002201210020626584F83510BDE83F
:100F4000F0810000B0B5044690F83400012828D0A4
:100F5000012084F83400A56D94F8350001281DD1D6
:100F6000022084F8350000206065204601F0A0FAD8
:100F7000E26D3F23206803FA02F2216CAA60026846
:100F800042F01602026019B1016841F008010160E7
:100F9000016841F0010101600020B0BD002084F82B
:100FA00034000220B0BD0000B0B5044600F0E4F803
:100FB000054640F25430C2F200000078611C18BFB0
:100FC000044400BF00F0D8F8401BA042FAD3B0BDE3
:100FD0002DE9F04F83B000F13E4202F1FF724FEA7B
:100FE000B22242F200470192C4F202070A224FF0F5
:100FF000010E00254FF0000A4FF00008B84208BF6C
:10100000092200920AE000BF08F101080AF1040A6F
:10101000B8F1100F05F1020500F0A4800C680EFA7B
:1010200008FB14EA0B09EFD04C6804F0030CACF198
:10103000010EBEF1010F11D80322876802FA05F6EE
:10104000CA68B743AA403A4382604268C4F30017B3
:1010500022EA0B0207FA08F73A434260BCF1030F99
:101060001CD0C26803238E6803FA05F7BA4306FA58
:1010700005F73A43BCF1020FC2600FD16FF00302D3
:1010800002EA580202440AF01C060F23176A03FA08
:1010900006F40B69A743B3403B4313620268032382
:1010A0004F68AB409A4307F00303AB401A4317F471
:1010B000403F4FF0010E0260A6D0002243F64403E9
:1010C0000292C4F202031A6843F6004442F48042DA
:1010D0001A601A68C4F2010402F480420292029A71
:1010E00028F003024FF6084B2244CFF6FF7B52F85C
:1010F0000B300AF00C070F26BE4023EA060C019BBA
:10110000009E092B38BF1E4606FA07F747EA0C0374
:1011100042F80B30A2684B6842EA090743F60C4CD0
:10112000DE0258BF22EA0907A760C4F2010CDCF80E
:1011300000209E0242EA090758BF22EA0907CCF8BC
:10114000007062689E0342EA090758BF22EA090755
:1011500067602268DB0342EA090358BF22EA0903F9
:10116000236051E703B0BDE8F08F0000002A08BFFC
:10117000090481617047000041F20860C2F200007A
:101180000068704740F2543041F20861C2F200003A
:10119000C2F2000100780A6810440860704700003D
:1011A00080B543F60040C4F20200016841F40071CA
:1011B0000160016841F480610160016841F480715F
:1011C0000160032000F060F80F2000F005F800F047
:1011D0002BF8002080BD0000B0B540F25432C2F2BE
:1011E000000240F200011278C2F200014FF47A735B
:1011F0000968B3FBF2F20446B1FBF2F1084600F0D5
:1012000037FB0F2C4FF001050CD858B94FF0FF30C9
:1012100021460022002500F027F840F25830C2F2A3
:10122000000004602846B0BD82B0002043F64001B3
:101230000190C4F202014A6842F480424A604A685E
:1012400002F480420192019A0090086840F08050B8
:101250000860086800F080500090009802B0704765
:1012600080B501F075FA80BD70B514460D4606468E
:1012700001F0AAFB2946224601F0FEFA014630465B
:1012800001F0E8FA70BD000080B501F0A5FB80BD5B
:1012900070B582B00020019043F64000C4F2020015
:1012A0000168402641F0805101600068C4F20E26BA
:1012B00000F080500190019847F204050120C4F22B
:1012C00000053060FFF758FF044600BF2868C003E0
:1012D00006D4FFF751FF001BB0F57A7FF6D90EE078
:1012E00001207060FFF748FF044600BF28688003B4
:1012F00008D4FFF741FF001BB0F57A7FF6D9032031
:1013000002B070BD002002B070BD00002DE9F041B8
:10131000002800F08B8043F60808C4F20208044657
:10132000D8F8F8030D4600F00F00884207D288F87D
:10133000F853D8F8F80300F00F00A84276D12068DF
:10134000810717D5410705D5D8F8001041F4E051C1
:10135000C8F80010010705D5D8F8001041F4604125
:10136000C8F80010D8F80010A26821F0F00111436D
:10137000C8F80010C0073FD1D8F8F80300F00F00FC
:10138000A84207D988F8F853D8F8F80300F00F00FE
:10139000A8424BD12068410707D5D8F80010E26871
:1013A00021F4E0511143C8F80010000708D5D8F81F
:1013B0000000216920F4604040EAC100C8F8000044
:1013C00000F07EF8D8F8001043F22202C1F30311B6
:1013D000C0F60002515C40F2000220FA01F140F236
:1013E0005830C2F200000068C2F200021160FFF73C
:1013F000F3FE0020BDE8F0816068811E022907D25B
:1014000058F8081C89015CBF0120BDE8F08110E09C
:10141000012807D158F8081C89035CBF0120BDE8EA
:10142000F08106E058F8081C890702D40120BDE8C5
:10143000F081D8F8001021F003010843C8F800003B
:10144000FFF79AFE064641F2883700BFD8F8000041
:10145000616800F00C00B0EB810F8DD0FFF78CFEBF
:10146000801BB842F2D90320BDE8F08140F20000B1
:10147000C2F200000068704780B5FFF7F7FF43F63F
:101480000801C4F20201096843F23202C1F3822169
:10149000C0F60002515CC84080BD000080B5FFF777
:1014A000E5FF43F60801C4F20201096843F2320283
:1014B000C1F34231C0F60002515CC84080BD00005B
:1014C00010B543F60404C4F20204606800F00C0096
:1014D00008280AD0042819BF42F20040C0F2F400E4
:1014E00041F60030C0F2B70010BD206821682368C3
:1014F000490241F60031C0F2B70100F03F02C3F3E8
:1015000088105CBF42F20041C0F2F401A1FB00016F
:101510000023FEF7CBFE21680222C1F3014102EB5A
:101520004101B0FBF1F010BD2DE9F04182B000287F
:1015300000F0A2800446007843F60006C007C4F21B
:10154000020643D0B06800F00C00042805D13068D2
:1015500080033BD56068C8BB8EE0B06800F00C002B
:10156000082802D170684002F1D46568B5F5A02F53
:101570000AD0B5F5803F0BD0306820F48030306061
:10158000306820F4802006E0306840F4802030602D
:10159000306840F480303060FFF7EEFD002D0546E6
:1015A00011D000BF3068800310D4FFF7E5FD401B69
:1015B0006428F7D922E100BFFFF7DEFD401B642855
:1015C0004FF0030055D830688003F5D420788007A9
:1015D0001AD5B06810F00C0F09D0B06800F00C00FC
:1015E000082840F08A807068400200F186803068E8
:1015F000800702D5E06801283ED13068216920F0DB
:10160000F80040EAC10030602078000738D4207824
:1016100040074CD4A5695DB3B06800F00C00082801
:1016200040F09E80012D27D07068E16900F48002AF
:101630008A4221D1216A00F03F028A421CD147F63A
:10164000C071626A0140B1EB821F15D1A26A00230A
:10165000CFF6FF7303EBC23200F440316FF30F0299
:10166000914209D1E16A00F07060B0EB016F03D1E3
:10167000002002B0BDE8F081012002B0BDE8F08199
:101680006069002840F20000C4F2472057D00121D1
:10169000C0F8801EFFF770FD054600BF706F800721
:1016A000B5D4FFF769FD401B0228F7D9A6E0306CDE
:1016B00010F080580AD100200190306C40F080502A
:1016C0003064306C00F080500190019847F20007C0
:1016D000C4F200073868C00524D4386840F480702C
:1016E0003860FFF749FD05463868C0051AD4FFF792
:1016F00043FD401B0228F7D980E0E068002851D064
:101700000020C4F2472001210160FFF735FD0546A6
:10171000306880073FF571AFFFF72EFD401B0228B0
:10172000F6D96BE0A568052D50D0012D52D0306F51
:1017300020F001003067306F20F004004DE0002100
:10174000C0F8801EFFF718FD054600BF706F8007C8
:101750007FF55DAFFFF710FD401B0228F6D94DE085
:101760000027C4F2472700203866FFF705FD022D49
:1017700005460BD13068800158D5FFF7FDFC401BB2
:1017800002284FF00300F5D973E700BF30688001ED
:101790007FF56EAFFFF7F0FC401B02284FF003000F
:1017A000F4D966E70020C4F2472000210160FFF76A
:1017B000E3FC0546306880077FF526AFFFF7DCFCC9
:1017C000401B02284FF00300F4D952E7306F40F07D
:1017D00004003067306F40F001003067FFF7CCFC49
:1017E000002D054641F2883714D000BF306F8007C6
:1017F00013D4FFF7C1FC401BB842F7D9032002B055
:10180000BDE8F081FFF7B8FC401BB8424FF0030081
:101810003FF62FAF306F8007F4D4B8F1000F7FF49C
:10182000F9AE306C20F080503064F3E604F11C0512
:101830002FCD08430021CFF6FF7140EA821001EB63
:10184000C3316FF30F0140EA056008437060012067
:101850003866FFF791FC0446306880013FF508AF19
:10186000FFF78AFC001B02284FF00300F4D900E7C1
:1018700080B500F05BFE80BDB0B582B0044690F844
:101880003E0020280BD100294FF0010518BF002A87
:1018900006D094F83C00012805D1022500E002257D
:1018A000284602B0B0BD0125204684F83C5025638F
:1018B00000F06CFB206B0128F2D100200190206821
:1018C0000168019140680190019800BF206850E8CC
:1018D000030F216840F0100041E80302002AF5D10F
:1018E0000025DDE770B50446006847F2FF72C4F2D8
:1018F0000002904216DC44F6FF32C4F2000290422D
:1019000027DC44F20042C4F20002904244D044F684
:101910000002C4F2000290425ED140F64806C2F2D4
:1019200000064CE040F6FF72C4F20102904221DC56
:1019300047F60002C4F20002904232D047F600425D
:10194000C4F20002904247D141F28426C2F200065E
:1019500035E044F60042C4F20002904226D045F23F
:101960000002C4F20002904236D140F66046C2F254
:10197000000624E041F20042C4F2010290421AD073
:1019800041F20002C4F20102904218BF70BD40F261
:101990003046C2F2000612E040F23C66C2F2000697
:1019A0000DE041F27806C2F2000608E040F6542647
:1019B000C2F2000603E040F66C66C2F20006D6F8FA
:1019C000082206F582752846904706F501700288C0
:1019D00020462946FFF750FF70BD00007047000009
:1019E000B0B582B0036804461868D9685A6900F037
:1019F0002F05202D01F0200505D125B1204600F04E
:101A00001BFE02B0B0BD5FEA007C1EBF02F0010EFB
:101A100001F4907212EB0E0248D1226B0840C1060D
:101A20003BD5012A39D100200190186801905868EF
:101A3000019001985869400640D4A08DE18DE28D57
:101A4000002A1CBF401A5FEA004101D102B0B0BDBC
:101A5000216851E8031F226821F4907142E80313C2
:101A6000002BF5D1216851E8051F226821F0010102
:101A700042E80513002BF5D1202184F83E10002107
:101A8000216300BF216851E8031F226821F0100183
:101A900042E80313002BF5D152E0010656D440066C
:101AA000D4D5204600F03EFF02B0B0BDC20718BF3B
:101AB00011F480724FD1420753D459E0A06B0168F2
:101AC00049688AB2002AC1D0A38D9A42BED2E1856C
:101AD000C069B0F5807F30D0206850E8030F2168DE
:101AE00020F4807041E80302002AF5D1206850E814
:101AF000050F216820F0010041E80502002AF5D118
:101B0000206850E8050F216820F0400041E80502F8
:101B1000002AF5D1202084F83E000020206300BF79
:101B2000206850E8030F216820F0100041E803020C
:101B3000002AF5D1A06BFFF785F8A08DE18D401A42
:101B400081B22046FFF7CEFE02B0B0BD204600F0C5
:101B5000D5FD02B0B0BD226C42F001022264420702
:101B600006D5BEF1000F03D0226C42F002022264BF
:101B7000820706D5BEF1000F03D0226C42F00402AA
:101B80002264BCF1000F06D55EEA050203D0226C88
:101B900042F008022264226C002A3FF457AF08404A
:101BA000800602D5204600F047FD20684069216C80
:101BB00000F0400001F00801401827D0204600F056
:101BC00013FE2068406940061BD500BF206850E81E
:101BD000050F216820F0400041E80502002AF5D1F8
:101BE000A06B70B142F63D11C0F600010165FFF730
:101BF00069F800283FF42AAFA06B016D884702B056
:101C0000B0BD2046FFF7EAFE02B0B0BD2046FFF7A8
:101C1000E5FE0020206402B0B0BD0000002804BF33
:101C20000120704710B5044690F83D0028B9002007
:101C300084F83C00204600F021F8242084F83D0080
:101C40002068C16821F40051C160204600F086FC84
:101C50002068016921F490410161416921F02A0164
:101C60004161C16841F40051C1600020202120641D
:101C700084F83D1084F83E1010BD00002DE9F043BB
:101C800087B0044644F200402168C4F200000026F8
:101C900081420696CDE904660396029602D007B00B
:101CA000BDE8F08343F630010196C4F202010A69EF
:101CB00046F2880842F400320A610A6900F5E4300D
:101CC00002F400320192019A01960A68C4F20208F5
:101CD00042F008020A60096801F0080101910199C7
:101CE000602102910221CDE903160321059107210C
:101CF000069102A9FFF76CF941F2BC45C2F200055A
:101D00004FF000674FF480692846C5E90087C5E9B0
:101D10000266C5E90496C5E90666C5E90866FFF7E7
:101D2000A9F8002818BFFEF7C1FBA563AC6341F218
:101D30001C5508F11800C2F200054021C5E9000752
:101D400005F10800002280E806022846C5E90522C0
:101D5000C5E907226A62FFF78DF8002818BFFEF771
:101D6000A5FB2620002100226563AC63FFF77CFA07
:101D70002620FFF775FA07B0BDE8F0837047000032
:101D80007047000070B5044690F83D0020280AD145
:101D90004FF00100D9B3002A134608BF70BD94F874
:101DA0003C00012801D1022070BD012084F83C00D4
:101DB000002621202162A384E384266484F83D0068
:101DC0002268606B42F64D1C42F2DD7E42F2E14534
:101DD000C0F6000CC0F6000EC0F600050432C0E9E3
:101DE0000FCEC0E91356FFF7ADF820686FF0400141
:101DF000016084F83C6000BF206850E8050F21684E
:101E000040F0800041E80502002AF5D1002070BDB5
:101E10007047000070470000FEE7000080B541F207
:101E2000944046F20041C2F20000C4F200010922CF
:101E3000002380E80E0000F10C014FF4803C4FF4C9
:101E4000801E81E808504FF480710183C0F81A3079
:101E5000FEF7ACFD002818BFFEF728FB80BD000090
:101E600080B582B00020019043F63000C4F2020039
:101E70000168002241F4001101600068002100F4B3
:101E80000010019001981020FFF7EEF91020FFF7E5
:101E9000E7F9112000210022FFF7E6F91120FFF7F2
:101EA000DFF902B080BD000070B586B0002543F6B2
:101EB00030000595CDE90355CDE901550095C4F2F3
:101EC0000200016841F6004441F00101016001682F
:101ED000C4F2020401F0010100910099009501682B
:101EE000002241F00801016001683C2601F0080170
:101EF000009100990095016841F08001016000683F
:101F00003C2100F08000009000982046FFF72EF959
:101F1000012002900220CDE9030501A92046019687
:101F2000FFF756F806B070BD80B541F27C5044F220
:101F30000041C2F20000C4F2000100234FF00C0C7B
:101F40004FF4E13280E80E00C0E90333C0E905C375
:101F5000C361FFF763FE002818BFFEF7A7FA80BD34
:101F6000FEE70000FEE70000704700007047000039
:101F700080B5FFF707F980BD4EF68850CEF200001D
:101F8000016841F4700101607047000070B582B0D3
:101F9000134600260446816283850664222084F865
:101FA0003E000A462168A06B42F6A50C42F2C17EB3
:101FB00042F2E145C0F6000CC0F6000EC0F6000586
:101FC0000431C0E90FCEC0E91356FEF7BBFF0196FE
:101FD000206801680191406801900198206984F8A7
:101FE0003C6048B1206850E8030F216840F48070DD
:101FF00041E80302002AF5D1206850E8050F216866
:1020000040F0010041E80502002AF5D1206850E8BF
:10201000050F216840F0400041E80502002AF5D193
:10202000002002B070BD000080B541F27C50C2F2C9
:102030000000FFF7D5FC80BDFEE7000080B502463A
:1020400041F60040C4F202001021FFF78FF880BD76
:1020500080B5024641F60040C4F202002021FFF79D
:1020600085F880BD80B5024641F60040C4F202000A
:102070000421FFF77BF880BD80B5024641F60040A1
:10208000C4F202000821FFF771F880BD80B588B066
:1020900002910021CDE90311CDE9051302A901AB9D
:1020A000FEF70AFA08B080BD90ED001AB4EE401AAF
:1020B000F1EE10FA02DA80ED000A7047B4EE601A11
:1020C000F1EE10FAB0EE600AC8BF80ED000A70476A
:1020D00080B5FFF757FE80BD41F29442C2F2000284
:1020E000904200D07047023940F2C8300929C2F24C
:1020F000000088BF7047DFE801F00507090B1016E4
:102100001C22272D0230704704307047063070477C
:1021100040F2C030C2F20000704740F2C030C2F25C
:1021200000000230704740F2C030C2F200000430BC
:10213000704740F2C030C2F200000630704740F2F3
:10214000D030C2F20000704740F2D030C2F200003E
:102150000230704740F2D030C2F2000004307047C5
:1021600010B592B006AC20463021FEF717F90020DA
:1021700043F640010590CDE90300CDE90100009050
:10218000C4F202010A6842F080520A60096801F054
:10219000805100910099009047F20000C4F20000C5
:1021A000016841F44041016000684FF4800100F48F
:1021B000404000900098012006904FF480300D912F
:1021C0000621079002200E91B4210C90CDE90F104A
:1021D000042011902046FFF7A7F9B0B9FFF758F88F
:1021E00098B90F20019002200290002003904FF434
:1021F000A05004904FF48050059001A80521FFF7EE
:1022000085F8002804BF12B010BDFEF74FF900009A
:1022100080B5016840F20122914218BF80BD00F1F3
:102220001C0140F25C20C2F2000000F0E5FB80BD22
:1022300080B58AB05FEA817C08D452010092062200
:1022400002EA41025B01019202930EE04FEAC24CA6
:10225000CDF800C04FF0060C0CEA410C4CEAC2026B
:102260000192DA0402924CEAC3020392CA08C1F353
:10227000800105920491012100220891CDE90621F7
:102280000E2109916946FEF769F90AB080BD000088
:1022900010B541F29044C2F20004206840F2C83206
:1022A0000130206041F29440C2F20000C2F200020C
:1022B0004FF400710823FFF7E9FE2068092804BFE6
:1022C0000020206010BD000080B540F23C60C2F2EA
:1022D0000000011D41F27C50C2F200003122FFF7E4
:1022E000F7FE80BD70B50446C6B200F00100FFF7EE
:1022F000AFFEC4F34000FFF7A1FEC4F38000FFF778
:10230000BBFEC4F3C000FFF7ADFE012525EA1610A1
:1023100000F0C2F825EA561000F0B2F825EA96104F
:1023200000F05CF8E043C0B2C00900F061F825EAB3
:10233000142000F067F825EA542000F06DF825EA33
:10234000942000F073F825EAD42000F079F825EA0B
:10235000143000F07FF825EA543000F085F870BDA5
:1023600070B50D460446FEF731FC206846F2004287
:102370004169C4F2000241F00201416141699042A9
:1023800041F0100141610FD046F60001C4F2000196
:10239000884218BF70BD40F20440C2F2000000F154
:1023A00028027C26702107E040F2D830C2F20000FB
:1023B00000F128020C26002104601560204600224E
:1023C0000023FFF735FF2046314600220023FFF7A8
:1023D0002FFF70BDB0EEC00A7047000080B5024606
:1023E00041F60000C4F202000221FEF7BFFE80BDEC
:1023F00080B5024641F60000C4F202000421FEF757
:10240000B5FE80BD80B5024641F60000C4F2020070
:102410000821FEF7ABFE80BD80B5024641F6000004
:10242000C4F202001021FEF7A1FE80BD80B5024675
:1024300041F60000C4F202002021FEF797FE80BDA5
:1024400080B5024641F60000C4F202004021FEF7CA
:102450008DFE80BD80B5024641F60000C4F2020048
:102460008021FEF783FE80BD80B5024641F6000064
:10247000C4F202004FF48071FEF778FE80BD0000C8
:1024800080B5024641F20040C4F202004FF48041A0
:10249000FEF76CFE80BD000080B5024641F20000F0
:1024A000C4F202004FF40061FEF760FE80BD000040
:1024B00080B5D0F800C0D0F808E0DCF80000BEF12C
:1024C000400F20F48020CCF800000846CCF80430FF
:1024D00004BF10460A46CCF80800CCF80C2080BD9A
:1024E00010B5846B2068406994F83D10212907D10C
:1024F00010F0800004D00020E084204600F09CF919
:102500002068406994F83E10222907D110F040005D
:1025100004D00020E085204600F066F9206C40F0F1
:10252000100020642046FFF759FA10BDB0B50138FD
:102530000024B4EB106F1CBF0120B0BD4EF210059B
:10254000CEF2000568604FF0FF300F2100F082F9F5
:102550000720AC6028602046B0BD000010B50446DE
:102560000068D4E902C22369016921F44051114392
:102570000161626943EA0C01E3691143C2681943CE
:1025800049F20C639A431143C1604169A26921F485
:10259000407141F20043114340F48062C4F20103F0
:1025A0009A42416102D1FEF779FF01E0FEF764FF34
:1025B000E16963681922B1F5004FA0FB02011CD14B
:1025C0005A00DB0FFDF772FE48F21F51C5F2EB1106
:1025D000A0FB01235A096FF0630302FB03003223BF
:1025E00003EBC000A0FB01014FF4F87000EA1110EA
:1025F00000EB0210C1F342111AE09A009B0FFDF7A5
:1026000055FE48F21F51C5F2EB11A0FB01235A09F8
:102610006FF0630302FB0300322303EB0010A0FB07
:102620000101F02000EA511000EB0210C1F3431148
:1026300022680843906010BD80B582B090F83E10CB
:1026400022291ED18268B2F5805F02D1016900297A
:1026500048D0816AB2F5805F07D00AB9026922B119
:102660000268526802F07F0201E0026852680A7054
:102670000121826A11448162C18D01390A04C18538
:1026800001D002B080BD0168CA6822F02002CA6091
:10269000CA6822F48072CA604A6922F001024A6163
:1026A000202180F83E10016B012923D10021016314
:1026B000016851E8031F026821F0100142E803138A
:1026C000002BF5D101680A68D20606D500220192D6
:1026D0000A680192496801910199818DFFF702F919
:1026E00002B080BD0168826A49686FF35F21118082
:1026F0000221BEE7FFF742FB02B080BD90F83D101B
:10270000212923D18168B1F5805F01D1016931B1FF
:10271000016A02684B1C03620978516007E0016A94
:10272000036831F8022B6FF35F225A600162C18C9B
:1027300001390A04C18418BF70470068C16821F0DC
:102740008001C160C16841F04001C1607047000074
:10275000002848BF704700F01F01012202FA01F172
:102760004EF200124009CEF2000242F820107047EB
:102770008269816AB2F5005F06D06AB9022912D077
:10278000012914D0D1B90EE0032917D8DFE801F0F0
:10279000020B020F0120704703293CBF0120704744
:1027A0001CBF00207047C06AC0F300607047C06A59
:1027B000A0F1C070B0FA80F0400970470020704767
:1027C00080B5806B016B012904D1818D4908FFF729
:1027D00089F880BDFFF7D4FA80BD000080B5806B1A
:1027E000FFF718FB80BD0000016851E8031F026875
:1027F00021F4907142E80313002BF5D1016851E8F0
:10280000051F026821F0010142E80513002BF5D1F4
:10281000016B01290AD100BF016851E8031F02685A
:1028200021F0100142E80313002BF5D1202180F89C
:102830003E10002101637047016851E8031F0268E0
:1028400021F0C00142E80313002BF5D1202180F8CC
:102850003D1070474EF6145300F00F02CEF2000305
:1028600009011A4400F16043B0F1FF3FC8BF03F50E
:10287000644211707047000000F0070080F0070309
:10288000042B28BF04234FF0FF3C03380CFA03F35A
:1028900038BF0020994381400CFA00F022EA000082
:1028A0000843704780B50168806B0968C9052FD45B
:1028B0000021C185016851E8031F026821F480717D
:1028C00042E80313002BF5D1016851E8051F0268A7
:1028D00021F0010142E80513002BF5D1016851E810
:1028E000051F026821F0400142E80513002BF5D1D5
:1028F000202180F83E10016B012909D1016851E8BF
:10290000031F026821F0100142E80313002BF5D1E8
:10291000016B012903D1818DFEF7E4FF80BDFFF734
:102920002DFA80BD80B50168CA6822F04002CA60F5
:10293000202180F83D10FFF76BFA80BD80B5806BD9
:102940000021C185C184FFF749F880BD80B50168C9
:10295000806B0968C90516D40021C184016851E85B
:10296000051F026821F0800142E80513002BF5D114
:10297000016851E8031F026841F0400142E8031377
:10298000002BF5D180BDFFF743FA80BDD0F800C021
:102990006FF00F024AF6AB2352FA8CF2CAF6AA2362
:1029A0000146A2FB0330000905A31B5C40F2FF3087
:1029B0002CEA00005F2A88BF0430C1E91603704783
:1029C00000061016000610164EF60C50CEF200004F
:1029D0000068C0F3022070474EF60C51CEF20001A1
:1029E0000A684FF6FF031A4060F30A2242F0806043
:1029F00040F0FD700860704770B5D0F8B820B0F8AE
:102A0000C0400132C0F8B820A0F8C8400A8815BA02
:102A10002A0CA0F8C0204B881BBA1E0CA0F8C2607C
:102A20008B881BBA4FEA134CA0F8C4C091F806E09B
:102A3000C4EB154109B211F5805FA0F8C6E001DAD8
:102A4000012104E0B1F5805F06DD4FF0FF31D0F8E1
:102A5000D0301944C0F8D010D0F8D010B0F8B4304D
:102A60009FED193A01FB032101EE103A00EE101A16
:102A7000B8EEC00AB8EE411A80EE010A9FED111AB5
:102A800032B290ED2B2AC0F8CC100FFA8CF180F8FE
:102A9000E4E030EE000A20EE010A01EE102AB8EE62
:102AA000C11A21EE031A80EE020A81EE021A02EE2A
:102AB000101AB8EEC22A80ED382A80ED360A80ED71
:102AC000371A70BDDB0F49405077D63DB0B504468C
:102AD00090F8E500032812D8DFE800F0021423364E
:102AE00094ED2C0A94ED3C1AB4F8B60081EE000A7D
:102AF00001EE100AB8EE411A20EE010A46E09FED01
:102B0000270A43E094ED2C0A94ED3C1AB4F8B60081
:102B100081EE000A01EE100AB8EE411A20EE010A19
:102B200034E094ED3B0A04F15005284600F0F4F837
:102B300094ED370A284600F0C7F9284600F0F0F86F
:102B4000284600F0BDF921E094ED3A0A204600F055
:102B5000E3F894ED360A204600F0B6F9204600F07E
:102B6000DFF8204600F0ACF904F15005284684ED6A
:102B70003B0A00F0D1F894ED370A284600F0A4F99A
:102B8000284600F0CDF8284600F09AF9204600F0DB
:102B900045F8204600F02EF8B0BD00BF0000000050
:102BA00010B594460A6846F20044C4F20004A242FA
:102BB00004460AD046F60000C4F2000082420AD160
:102BC00040F20440C2F2000003E040F2D830C2F20A
:102BD0000000C4F8A0000846614684F8A4C084F848
:102BE000E53084ED2B0AC4ED2C0AFFF775FAC4F822
:102BF000A80010BD90ED3D0AD0F8A820BDEEC00A97
:102C000010EE101A090A117090ED3D0AD0F8A800D4
:102C1000BDEEC00A10EE101A4170704780ED3D0AFB
:102C20007047000010B50C6847F2FF71DDF80CC06A
:102C3000C4F20001DDF808E08C4216DC44F6FF31F6
:102C4000C4F200018C4227DC44F20041C4F20001CE
:102C50008C4243D044F60001C4F200018C4251D1B1
:102C600040F64801C2F200014BE040F6FF71C4F2A9
:102C700001018C4221DC47F60001C4F200018C42C4
:102C800031D047F60041C4F200018C423AD141F202
:102C90008421C2F2000134E044F60041C4F2000194
:102CA0008C4225D045F20001C4F200018C4229D1AA
:102CB00040F66041C2F2000123E041F20001C4F29B
:102CC00001018C4219D041F20041C4F201018C4251
:102CD00018D140F66C61C2F2000112E040F23C6192
:102CE000C2F200010DE041F27801C2F2000108E0F9
:102CF00040F65421C2F2000103E040F23041C2F23A
:102D00000001016001680271836080F80CE080F8C6
:102D10000DC081F804C010BD80ED110A704700009D
:102D200010B52DED088B90ED110A90ED121A0446A6
:102D300030EE418AB0EE480AFFF74CFB94ED011AE1
:102D4000B0EE409AB4EE410AF1EE10FA05DA9FEDCA
:102D5000558AA06CB0EE489A606494ED0E1A94ED1A
:102D600008AAB5EE401AF1EE10FA02D1B7EE00BA99
:102D700020E094ED0F0AB4EE409AF1EE10FA10DD67
:102D8000B4EE490AF1EE10FA0DDA31EE002AB4EE93
:102D9000429AF1EE10FA06DA32EE492A82EE01BAD0
:102DA00001E0B7EE00BAB4EE409AF1EE10FAA8BF17
:102DB0009FED3CBA94ED0C1AB5EE401AF1EE10FA04
:102DC0000BD094ED092AB1EE410A80EE020AC1EE61
:102DD000020A04F14C00FFF767F994ED100AB5EE12
:102DE000400AF1EE10FA04D0B4EE409AF1EE10FA77
:102DF00052DA94ED000A94ED132A2BEE000A94EDBA
:102E0000091A28EE000A32EE000A84ED130A21EEB8
:102E1000000A207A94ED0A2A28EE0A1A20B194EDCD
:102E2000073A04F1140003E004F11800B0EE483A48
:102E300090ED004A94ED115A33EE443A94ED004A75
:102E400022EE032A82EE042A94ED043A94ED0B4A12
:102E5000D4ED0D0A35EE433A31EE000A23EE043A82
:102E6000F5EE400AF1EE10FA30EE020A30EE030AF7
:102E700084ED070A05D004F11C00B1EE600AFFF7EB
:102E800013F9E069D4E911216061C4E9031284ED0A
:102E9000068ABDEC088B10BD9FED020A0020E0649D
:102EA000B7E700BF0000000000F1200282EC060A34
:102EB00000F1380280EC023A82EC034A017270475A
:102EC00090ED070A7047000080ED120A704700007D
:102ED000B0B52DED0E8B82B0FEF762F9FFF740F929
:102EE000FEF7E2FFFEF7BCFFFEF798FFFFF71CF8C6
:102EF0009FED408A0F20B0EE480AF0EE480AFFF737
:102F0000F1F941F29445C2F2000542F21121C0F6F6
:102F100000012846FFF724FA0620009041F2C05035
:102F200041F27C5140F20403AB24C2F20000C2F231
:102F30000001C2F2000306220194FFF773FE40F283
:102F40005C249FED2DBA9FED2D2A9FED2DDAC2F264
:102F50000004B2EE049AB1EE04AAB7EE00CA20460D
:102F6000B0EE490AF0EE4A0AB0EE4B1AF0EE4C1AF7
:102F7000F0EE422AB0EE4D3AF0EE483AB0EE484A52
:102F80000021F0EE484AB0EE485AFFF78DFF9FED62
:102F90001DEA04F15000B0EE490AF0EE4A0AB0EE24
:102FA0004B1AF0EE4C1AB0EE4E2AF0EE4E2AB0EE6E
:102FB0004D3AF0EE483AB0EE484AF0EE484AB0EEEC
:102FC000485A0021FFF770FF2046294601220323BB
:102FD000B0EE4C0AF0EE4E0AFFF7E2FD2046FFF796
:102FE00075FDFFF755F9FFF76FF90020FDF7DCFFDE
:102FF000F4E700BF00000000CDCCCC3DD2537B42B3
:103000006F12833A00008046F1EE100A4FF6FF710E
:10301000C0F2C03120EA010040F04070E1EE100A39
:1030200070470000000000000000010203040607D2
:1030300008090000000001020304000060300008DD
:103040000000002060030000E8010008983000083C
:1030500060030020B01800002402000800000000F7
:1030600007630024F40070610363696103636461B2
:103070000363706F0363696F03FF646F0111352C85
:10308000A09941072E804600200040021303420110
:083090008210000000000000A6
:04000005080001AD41
:00000001FF
