:020000040800F2
:1000000000000320411A0008E9080008EB08000876
:10001000ED080008EF080008F108000800000000E3
:10002000000000000000000000000000F3080008CD
:10003000F508000800000000F7080008F9080008AB
:10004000911A0008911A0008911A0008911A0008E4
:10005000911A0008911A0008911A0008911A0008D4
:10006000911A0008911A0008911A0008911A0008C4
:10007000911A0008911A0008911A0008911A0008B4
:10008000911A0008911A0008911A0008911A0008A4
:10009000911A0008911A0008911A0008911A000894
:1000A000911A0008911A0008911A0008911A000884
:1000B000911A0008911A0008911A0008911A000874
:1000C000911A0008911A0008911A0008911A000864
:1000D000911A0008911A0008911A0008911A000854
:1000E000911A0008911A0008911A0008911A000844
:1000F000911A0008911A0008911A0008911A000834
:10010000911A0008911A000801090008911A0008C4
:10011000911A0008911A0008911A0008911A000813
:10012000911A0008911A0008911A0008911A000803
:10013000911A0008911A0008911A0008911A0008F3
:10014000911A0008911A0008911A0008911A0008E3
:10015000911A0008911A0008911A0008911A0008D3
:10016000911A0008911A0008911A0008911A0008C3
:10017000911A0008911A0008911A00080000000066
:10018000911A0008911A0008911A0008911A0008A3
:10019000911A0008911A0008911A0008911A000893
:0C01A0000000000000000000911A0008A0
:1001AC000348044B834202D0034B03B118477047FA
:1001BC000C0000200C00002000000000054806493F
:1001CC000B1AD90F01EBA301491002D0034B03B159
:1001DC00184770470C0000200C00002000000000A5
:1001EC0010B5064C237843B9FFF7DAFF044B13B173
:1001FC000448AFF300800123237010BD0C000020D5
:10020C0000000000941A000808B5044B1BB1044907
:10021C000448AFF30080BDE80840CFE700000000C1
:10022C0010000020941A000870B50D4E0D4D761B71
:10023C00B61006D0002455F8043B01349847A6426A
:10024C00F9D1094E094D761B01F01EFCB61006D0F3
:10025C00002455F8043B01349847A642F9D170BDEF
:10026C00C41A0008C41A0008C81A0008C41A0008E6
:10027C00830730B548D0541E002A3FD0CAB203467B
:10028C0001E0013C3AD303F8012B9D07F9D1032C73
:10029C002DD9CDB245EA05250F2C45EA054536D9B1
:1002AC00A4F1100222F00F0C03F1200EE6444FEAE9
:1002BC00121C03F1100242E9045542E902551032B6
:1002CC007245F8D10CF1010214F00C0F03EB021281
:1002DC0004F00F0C13D0ACF1040323F0030304332C
:1002EC00134442F8045B9342FBD10CF003042CB191
:1002FC00CAB21C4403F8012B9C42FBD130BD6446AE
:10030C001346002CF4D1F9E703461446BFE71A460E
:10031C00A446E0E753B94AB9002908BF00281CBF1E
:10032C004FF0FF314FF0FF3000F074B9ADF1080C15
:10033C006DE904CE00F006F8DDF804E0DDE90223F7
:10034C0004B070472DE9F047089D04468E46002BFB
:10035C004DD18A42944669D9B2FA82F252B101FA6D
:10036C0002F3C2F1200120FA01F10CFA02FC41EA7D
:10037C00030E94404FEA1C48210CBEFBF8F61FFA02
:10038C008CF708FB16E341EA034306FB07F199429D
:10039C000AD91CEB030306F1FF3080F01F81994250
:1003AC0040F21C81023E63445B1AA4B2B3FBF8F02A
:1003BC0008FB103344EA034400FB07F7A7420AD9B1
:1003CC001CEB040400F1FF3380F00A81A74240F2D9
:1003DC0007816444023840EA0640E41B00261DB144
:1003EC00D4400023C5E900433146BDE8F0878B4279
:1003FC0009D9002D00F0EF800026C5E90001304638
:10040C003146BDE8F087B3FA83F6002E4AD18B4211
:10041C0002D3824200F2F980841A61EB03030120BB
:10042C009E46002DE0D0C5E9004EDDE702B9FFDEA7
:10043C00B2FA82F2002A40F09280A1EB0C014FEA52
:10044C001C471FFA8CFE0126200CB1FBF7F307FBAF
:10045C00131140EA01410EFB03F0884208D91CEB52
:10046C00010103F1FF3802D2884200F2CB804346EF
:10047C00091AA4B2B1FBF7F007FB101144EA0144CE
:10048C000EFB00FEA64508D91CEB040400F1FF315D
:10049C0002D2A64500F2BB800846A4EB0E0440EA4B
:1004AC0003409CE7C6F12007B34022FA07FC4CEA54
:1004BC00030C20FA07F401FA06F31C43F9404FEA47
:1004CC001C4900FA06F3B1FBF9F8200C1FFA8CFE5C
:1004DC0009FB181140EA014108FB0EF0884202FAB0
:1004EC0006F20BD91CEB010108F1FF3A80F0888071
:1004FC00884240F28580A8F102086144091AA4B22E
:10050C00B1FBF9F009FB101144EA014100FB0EFEAE
:10051C008E4508D91CEB010100F1FF346CD28E45DD
:10052C006AD90238614440EA0840A0FB0294A1EB6E
:10053C000E01A142C846A64656D353D05DB1B3EBCB
:10054C00080261EB0E0101FA07F722FA06F3F140FB
:10055C001F43C5E9007100263146BDE8F087C2F1A2
:10056C002003D8400CFA02FC21FA03F3914001431A
:10057C004FEA1C471FFA8CFEB3FBF7F007FB103653
:10058C000B0C43EA064300FB0EF69E4204FA02F4FF
:10059C0008D91CEB030300F1FF382FD29E422DD952
:1005AC00023863449B1B89B2B3FBF7F607FB163387
:1005BC0041EA034106FB0EF38B4208D91CEB010107
:1005CC0006F1FF3816D28B4214D9023E6144C91A87
:1005DC0046EA004638E72E46284605E70646E3E697
:1005EC001846F8E64B45A9D2B9EB020864EB0C0EA1
:1005FC000138A3E74646EAE7204694E74046D1E7B0
:10060C00D0467BE7023B614432E7304609E764445D
:10061C00023842E7704700BF72B6FEE700B595B0EE
:10062C003022002108A8FFF723FE00230393049334
:10063C000593069307930193224A116C41F0805164
:10064C001164126C02F080520192019A02931E4ABC
:10065C00116841F440411160126802F44042029268
:10066C00029A0222089201210B9110210C910E92F8
:10067C000F9308231093B423119312920423139312
:10068C0008A800F0BBFCB0B901F0BAF8A8B90F2368
:10069C00039302230493002305934FF4A053069372
:1006AC004FF480530793052103A800F0F5FE30B9F1
:1006BC0015B05DF804FBFFF7AFFFFFF7ADFFFFF7D9
:1006CC00ABFF00BF003802400070004008B501F0DD
:1006DC0067F9FFF7A3FF00F035F800F0BDF8002133
:1006EC00154800F0C1FB0EE0144A13880A339BB284
:1006FC001380114A1268536344F62062934216D059
:10070C00012001F079F90E4B1B78002BECD00B4A31
:10071C00138814339BB21380074A1268536344F650
:10072C0020629342ECD1064B01221A70E8E7044B8D
:10073C0000221A70E4E700BF2C0000202A000020E1
:10074C002800002030B589B000240394049405944B
:10075C00069407940094184B1A6B42F001021A632A
:10076C001A6B02F001020092009A01941A6B42F08B
:10077C0080021A631A6B02F080020192019A0294B1
:10078C001A6B42F040021A631B6B03F04003029396
:10079C00029B0A4D22460221284601F02BF8022327
:1007AC000393012304930594069403A9284600F0AF
:1007BC0023FF09B030BD00BF0038024000180240D2
:1007CC0002680E4B9A4200D0704700B583B00021EE
:1007DC00019103F50B331A6C42F008021A641B6C7E
:1007EC0003F008030193019B0A46322001F058F8EC
:1007FC00322001F08DF803B05DF804FB000C0040D2
:10080C0000B587B0002301930293039304930593DF
:10081C0002680E4B9A4202D007B05DF804FB00232D
:10082C0000930B4B1A6B42F080021A631B6B03F0A4
:10083C0080030093009B4FF4806301930223029387
:10084C00059301A9034800F0D7FEE5E7000C004032
:10085C0000380240001C024000B58BB00023089306
:10086C0009930193029303930493059306930793BF
:10087C001848194A0260436083604FF6FF72C260E9
:10088C000361836100F00EFAD0B900230893099339
:10089C0008A9104800F06AFBA8B96023019342F242
:1008AC001073029300220392059201A9094800F0EB
:1008BC005DFA58B90748FFF7A3FF0BB05DF804FBCE
:1008CC00FFF7AAFEE1E7FFF7A7FEE6E7FFF7A4FEB6
:1008DC00F0E700BF2C000020000C0040FEE7FEE714
:1008EC00FEE7FEE7FEE770477047704708B501F07A
:1008FC0071F808BD08B5024800F0B9F808BD00BF92
:10090C002C00002082B0002100910B4B5A6C42F459
:10091C0080425A645A6C02F480420092009A01910F
:10092C001A6C42F080521A641B6C03F080530193D2
:10093C00019B02B0704700BF0038024030B4036A1C
:10094C00026A22F0010202624268846924F0730494
:10095C000D682C4323F0020C8B6843EA0C03104DFA
:10096C00A84203D005F58065A84205D123F0080301
:10097C00CD682B4323F00403094DA84203D005F5A1
:10098C008065A84205D122F440724D692A438D69D5
:10099C002A43426084614A684263036230BC7047F8
:1009AC000000014030B4036A026A22F480720262D1
:1009BC004268C46924F0730C0C6844EA0C0523F4F7
:1009CC0000738C6843EA0423114CA04203D004F555
:1009DC008064A04206D123F40063CC6843EA04236C
:1009EC0023F480630A4CA04203D004F58064A04237
:1009FC0007D122F440524C6942EA04128C6942EA53
:100A0C0004124260C5614A68C263036230BC70471D
:100A1C000000014030B4036A026A22F48052026280
:100A2C004468C26922F4E6420D6842EA052223F4C6
:100A3C0000538D6843EA0533094DA84203D005F5F0
:100A4C008065A84204D124F480444D6944EA85149D
:100A5C004460C2614A680264036230BC704700BFE4
:100A6C00000001407047704770477047704770B581
:100A7C0004460368DE681D6915F0020F10D016F0ED
:100A8C00020F0DD06FF002021A6101230377036885
:100A9C009B6913F0030F5ED0FFF7E6FF002323776B
:100AAC0015F0040F12D016F0040F0FD023686FF05E
:100ABC0004021A610223237723689B6913F4407F95
:100ACC004FD02046FFF7D0FF0023237715F0080FF7
:100ADC0012D016F0080F0FD023686FF008021A61BD
:100AEC00042323772368DB6913F0030F40D02046DF
:100AFC00FFF7BAFF0023237715F0100F12D016F072
:100B0C00100F0FD023686FF010021A61082323779F
:100B1C002368DB6913F4407F31D02046FFF7A4FF34
:100B2C000023237715F0010F02D016F0010F2DD101
:100B3C0015F0800F02D016F0800F2FD115F0400F5A
:100B4C0002D016F0400F31D115F0200F02D016F064
:100B5C00200F33D170BDFFF786FF2046FFF785FFCE
:100B6C009CE72046FFF77FFF2046FFF77EFFABE7B1
:100B7C002046FFF778FF2046FFF777FFBAE72046BD
:100B8C00FFF771FF2046FFF770FFC9E723686FF08E
:100B9C0001021A612046FFF765FFC9E723686FF071
:100BAC0080021A61204600F028FAC7E723686FF02C
:100BBC0040021A612046FFF759FFC5E723686FF022
:100BCC0020021A61204600F017FAC3E70368344A82
:100BDC00904212D0B0F1804F0FD0A2F57C429042DF
:100BEC000BD002F58062904207D002F580629042F1
:100BFC0003D002F57842904203D123F070034A6887
:100C0C001343274A90422AD0B0F1804F27D0A2F547
:100C1C007C42904223D002F5806290421FD002F5B4
:100C2C00806290421BD002F57842904217D002F5B8
:100C3C007052904213D002F5806290420FD002F5B0
:100C4C00806290420BD0A2F59832904207D002F508
:100C5C008062904203D002F58062904203D123F46B
:100C6C004073CA68134323F080034A69134303603B
:100C7C008B68C3620B688362094B984203D003F5FF
:100C8C008063984201D10B690363012343610369BB
:100C9C0013F0010F03D0036923F0010303617047C4
:100CAC000000014040B310B5044690F83D30F3B15C
:100CBC00022384F83D30214651F8040BFFF786FFE0
:100CCC00012384F8463084F83E3084F83F3084F8B1
:100CDC00403084F8413084F8423084F8433084F852
:100CEC00443084F8453084F83D30002010BD80F845
:100CFC003C30FFF765FDDBE70120704730B4036A39
:100D0C00026A22F0100202624468826922F4E6420E
:100D1C000D6842EA052223F020038D6843EA05138F
:100D2C00114DA84203D005F58065A84206D123F0E9
:100D3C008003CD6843EA051323F040030A4DA84213
:100D4C0003D005F58065A84207D124F440644D69B1
:100D5C0044EA85048D6944EA8504446082614A68EA
:100D6C008263036230BC70470000014038B590F8D4
:100D7C003C30012B66D004460D46012380F83C30F4
:100D8C000C2A5AD8DFE802F0075959591B595959FE
:100D9C003059595944000068FFF7D0FD2268936917
:100DAC0043F0080393612268936923F00403936171
:100DBC002268936929690B43936100203EE0006827
:100DCC00FFF79CFF2268936943F4006393612268E8
:100DDC00936923F48063936122689369296943EAD8
:100DEC0001239361002029E00068FFF7DBFD2268F6
:100DFC00D36943F00803D3612268D36923F0040359
:100E0C00D3612268D36929690B43D361002015E0B3
:100E1C000068FFF7FFFD2268D36943F40063D361D8
:100E2C002268D36923F48063D3612268D36929696A
:100E3C0043EA0123D361002000E00120002384F861
:100E4C003C3038BD0220FCE701F01F01012303FAFE
:100E5C0001FC036A23EA0C030362036A02FA01F140
:100E6C000B4303627047000010B504460846002986
:100E7C0042D194F83E30DBB2013B18BF0123002B6A
:100E8C006ED1002851D1022384F83E300122014654
:100E9C002068FFF7D9FF2368334A934203D002F549
:100EAC008062934203D15A6C42F400425A64236824
:100EBC002D4A934249D0B3F1804F46D0A2F57C42E3
:100ECC00934242D002F5806293423ED002F580629A
:100EDC0093423AD002F57842934236D002F57052E2
:100EEC00934232D0A2F5943293422ED01A6842F03B
:100EFC0001021A60002032E0042908D008290DD024
:100F0C0094F84130DBB2013B18BF0123B7E794F8EA
:100F1C003F30DBB2013B18BF0123B0E794F84030FF
:100F2C00DBB2013B18BF0123A9E7042805D0082830
:100F3C0007D0022384F84130A8E7022384F83F301D
:100F4C00A4E7022384F84030A0E79A6802F0070275
:100F5C00062A07D01A6842F001021A60002010BD60
:100F6C000120FCE70020FAE70000014090F83C303B
:100F7C00012B3DD010B4012380F83C30022380F8C3
:100F8C003D3003685A689C6822F0700C0A6842EA8B
:100F9C000C025A600368174A93421AD0B3F1804F7F
:100FAC0017D0A2F57C42934213D002F58062934293
:100FBC000FD002F5806293420BD002F57842934237
:100FCC0007D002F57052934203D0A2F594329342AB
:100FDC0004D124F080044A6814439C60012380F8F7
:100FEC003D30002380F83C3018465DF8044B7047C8
:100FFC00022070470000014070477047002800F045
:10100C00E08170B582B00446036813F0010F3BD049
:10101C009F4B9B6803F00C03042B2CD09C4B9B68C0
:10102C0003F00C03082B21D06368B3F5803F4FD03D
:10103C00B3F5A02F52D0964B1A6822F480321A6066
:10104C001A6822F480221A606368002B50D000F0DA
:10105C00CDFC05468E4B1B6813F4003F14D100F0F9
:10106C00C5FC401B6428F5D90320B1E1884B5B68B3
:10107C0013F4800FD8D0864B1B6813F4003F03D0B9
:10108C006368002B00F09F81236813F0020F54D08B
:10109C007F4B9B6813F00C0F3ED07D4B9B6803F08D
:1010AC000C03082B33D0E368002B68D0794B01225A
:1010BC001A6000F09BFC0546754B1B6813F0020F81
:1010CC0054D100F093FC401B0228F5D903207FE19A
:1010DC006F4A136843F480331360B5E76C4B1A689E
:1010EC0042F480221A601A6842F480321A60ABE72C
:1010FC0000F07CFC0546664B1B6813F4003FC3D024
:10110C0000F074FC401B6428F5D9032060E1604BAF
:10111C005B6813F4800FC6D15D4B1B6813F0020F94
:10112C0003D0E368012B40F05081594A136823F037
:10113C00F803216943EAC1031360236813F0080F15
:10114C0042D063696BB3534B0122C3F8802E00F07D
:10115C004DFC05464E4B5B6F13F0020F34D100F083
:10116C0045FC401B0228F5D9032031E1484A13689D
:10117C0023F0F803216943EAC1031360DDE7454B13
:10118C0000221A6000F032FC0546414B1B6813F03C
:10119C00020FD2D000F02AFC401B0228F5D9032004
:1011AC0016E13C4B0022C3F8802E00F01FFC0546D4
:1011BC00374B5B6F13F0020F06D000F017FC401B8F
:1011CC000228F5D9032003E1236813F0040F77D02C
:1011DC002F4B1B6C13F0805F33D1002301932C4BEE
:1011EC001A6C42F080521A641B6C03F0805301930A
:1011FC00019B0125284B1B6813F4807F23D0A36827
:10120C00012B34D0052B38D0214B1A6F22F0010260
:10121C001A671A6F22F004021A67A368002B3DD0DC
:10122C0000F0E4FB06461A4B1B6F13F0020F46D17D
:10123C0000F0DCFB801B41F288339842F3D9032089
:10124C00C6E00025D6E7144A136843F48073136094
:10125C0000F0CCFB0646104B1B6813F4807FCED1FC
:10126C0000F0C4FB801B0228F5D90320B0E0084A2B
:10127C00136F43F001031367CFE7054B1A6F42F06E
:10128C0004021A671A6F42F001021A67C5E700BF21
:10129C0000380240000047420070004000F0A6FBFE
:1012AC000646524B1B6F13F0020F08D000F09EFB4A
:1012BC00801B41F288339842F3D9032088E0EDB9C2
:1012CC00A369002B00F08380484A926802F00C025C
:1012DC00082A51D0022B17D0454B00221A6600F079
:1012EC0085FB0446414B1B6813F0007F42D000F095
:1012FC007DFB001B0228F5D9032069E03B4A136CE7
:10130C0023F080531364DBE7394B00221A6600F09C
:10131C006DFB0546354B1B6813F0007F06D000F0C3
:10132C0065FB401B0228F5D9032051E0E369226AD2
:10133C001343626A43EA8213A26A5208013A43EAEF
:10134C000243E26A43EA0263284A5360284B0122B3
:10135C001A6600F04BFB0446244B1B6813F0007F0D
:10136C0006D100F043FB001B0228F5D903202FE027
:10137C0000202DE000202BE0012B2BD01B4B5B68B9
:10138C0003F48001E269914226D103F03F02216A05
:10139C008A4223D1616A47F6C0721A40B2EB811FB0
:1013AC001ED103F44031A26A5208013AB1EB024F4C
:1013BC0018D103F07063E26AB3EB026F14D1002012
:1013CC0006E001207047012002E0012000E000202F
:1013DC0002B070BD0120FBE70120F9E70120F7E71F
:1013EC000120F5E70120F3E70120F1E70038024086
:1013FC000000474208B5254B9B6803F00C03042BF7
:10140C003FD0082B3FD1214B5A6802F03F025B685A
:10141C0013F4800F12D01D4B5968C1F388111C486E
:10142C000023A1FB0001FEF775FF184B5B68C3F3AB
:10143C00014301335B00B0FBF3F025E0134B59681B
:10144C00C1F3881C4FEA4C11B1EB0C006EEB0E0E85
:10145C004FEA8E1343EA90638101091A63EB0E0382
:10146C00DB0043EA5173C90011EB0C0C43F1000390
:10147C00990200234FEA8C2041EA9C51FEF74AFF67
:10148C00D3E7034800E0034808BD00BF0038024022
:10149C0040787D010024F400002800F09B8070B59A
:1014AC000D4604464F4B1B6803F00F038B4208D2CA
:1014BC00CBB24C4A1370136803F00F038B4240F00D
:1014CC008B80236813F0020F17D013F0040F04D095
:1014DC00454A936843F4E0539360236813F0080F74
:1014EC0004D0414A936843F4604393603E4A936846
:1014FC0023F0F003A1680B439360236813F0010FF2
:10150C0032D06368012B21D09A1E012A25D9364A84
:10151C00126812F0020F61D033498A6822F003027C
:10152C0013438B6000F062FA06462F4B9B6803F066
:10153C000C036268B3EB820F16D000F057FA801BD5
:10154C0041F288339842F0D9032042E0264A1268CF
:10155C0012F4003FE0D101203BE0234A126812F064
:10156C00007FD9D1012034E01E4B1B6803F00F0320
:10157C00AB4207D9EAB21B4B1A701B6803F00F037E
:10158C00AB422DD1236813F0040F06D0164A936892
:10159C0023F4E053E1680B439360236813F0080FC6
:1015AC0007D0114A936823F46043216943EAC103CD
:1015BC009360FFF71FFF0C4B9B68C3F303130B4A9D
:1015CC00D35CD8400A4B18600A4B186800F0C2F97B
:1015DC00002070BD012070470120FAE70120F8E7D8
:1015EC000120F6E7003C024000380240AC1A00082B
:1015FC00080000200400002000230F2B00F2F180D3
:10160C0070B582B061E085685E000324B44025EAC1
:10161C000405CC68B4402C438460456825EA020577
:10162C004C68C4F300129A402A4342605BE0DC0829
:10163C00083450F8246003F0070295000F22AA40EA
:10164C0026EA020E0A69AA4042EA0E0240F8242059
:10165C005DE0092200E0002202FA0EF22A43023475
:10166C00604D45F82420604A94686FEA0C0224EA25
:10167C000C054E6816F4801F01D04CEA04055A4C38
:10168C00A560E46802EA04054E6816F4001F01D058
:10169C004CEA0405544CE560646802EA04054E68A3
:1016AC0016F4003F01D04CEA04054F4C65602468E9
:1016BC0022404D6815F4803F01D04CEA04024A4C9C
:1016CC00226001330F2B00F28A8001229A400C68B1
:1016DC0004EA020C32EA0404F3D14C6804F003046B
:1016EC00013C012C8FD94A6802F00302032A09D06D
:1016FC00C4685D000322AA4024EA02048A68AA4056
:10170C002243C2604A6802F00302022A8FD00468A6
:10171C004FEA430E032202FA0EF224EA02044A684C
:10172C0002F0030202FA0EF2224302604A6812F43B
:10173C00403FC6D0002201922C4A546C44F48044A1
:10174C005464526C02F480420192019A9C08A51CCC
:10175C00244A52F8255003F003024FEA820E0F225E
:10176C0002FA0EF225EA0205214A90423FF473AFC9
:10177C0002F58062904222D002F58062904220D025
:10178C0002F5806290421ED002F5806290421CD01D
:10179C0002F5806290421AD002F58062904218D015
:1017AC0002F58062904216D002F58062904214D00D
:1017BC0002F5806290423FF44CAF0A224CE70122C2
:1017CC004AE7022248E7032246E7042244E70522BF
:1017DC0042E7062240E707223EE708223CE702B038
:1017EC0070BD704700380140003C01400038024099
:1017FC00000002400AB181617047090481617047A1
:10180C0010B582B000230193194B1A6C42F0805230
:10181C001A641B6C03F080530193019B154B01223E
:10182C001A6400F0E3F80446134B5B6813F4803F32
:10183C0008D100F0DBF8001BB0F57A7FF4D9032057
:10184C0002B010BD0B4B01225A6400F0CFF80446D5
:10185C00094B5B6813F4003F07D100F0C7F8001B7D
:10186C00B0F57A7FF4D90320EAE70020E8E700BF5F
:10187C000038024000000E4200700040074AD36856
:10188C0023F4E0631B041B0C000200F4E060034330
:10189C0043F0BF6343F40033D360704700ED00E0C6
:1018AC0000B5194BDB68C3F30223C3F1070CBCF181
:1018BC00040F28BF4FF0040C03F1040EBEF1060F09
:1018CC0018D9033B4FF0FF3E0EFA0CFC21EA0C0139
:1018DC0099400EFA03F322EA0303194300280BDBA9
:1018EC000901C9B200F1604000F5614080F80013B5
:1018FC005DF804FB0023E5E700F00F000901C9B215
:10190C00024B1954F4E700BF00ED00E014ED00E0C9
:10191C00002807DB00F01F02400901239340024A14
:10192C0042F82030704700BF00E100E00138B0F110
:10193C00807F0BD24FF0E0235861054AF02182F8EA
:10194C0023100020986107221A617047012070470C
:10195C0000ED00E010B504460E4B18784FF47A7386
:10196C00B3FBF0F30C4A1068B0FBF3F0FFF7DEFFAB
:10197C0068B90F2C01D901200AE0002221464FF052
:10198C00FF30FFF78DFF054B1C60002000E00120AD
:10199C0010BD00BF00000020080000200400002043
:1019AC0008B50B4B1A6842F400721A601A6842F4BC
:1019BC0080621A601A6842F480721A600320FFF782
:1019CC005DFF0F20FFF7C6FFFEF79CFF002008BD50
:1019DC00003C0240034A1168034B1B780B44136014
:1019EC00704700BF7400002000000020014B1868F5
:1019FC00704700BF7400002038B50446FFF7F6FFAF
:101A0C000546B4F1FF3F02D0044B1B781C44FFF792
:101A1C00EDFF401BA042FAD338BD00BF00000020F0
:101A2C00034AD2F8883043F47003C2F88830704708
:101A3C0000ED00E0DFF834D0FFF7F2FF0C480D4961
:101A4C000D4A002302E0D458C4500433C4188C420D
:101A5C00F9D30A4A0A4C002301E013600432A24273
:101A6C00FBD3FEF7E1FBFEF731FE704700000320CD
:101A7C00000000200C000020CC1A00080C000020F4
:101A8C0078000020FEE70000F8B500BFF8BC08BCE9
:101A9C009E467047F8B500BFF8BC08BC9E46704720
:101AAC000000000000000000010203040607080902
:081ABC0094E8FF7F0100000027
:041AC40015020008FF
:041AC800ED01000824
:0C1ACC0001000000100000000024F400E5
:0400000508001A4194
:00000001FF
