:020000040800F2
:10000000101D00209D020008E12200080D210008BB
:10001000DD22000865050008B92300080000000083
:10002000000000000000000000000000E9220008BD
:10003000A505000800000000E5220008ED220008E8
:10004000B7020008B7020008B7020008B7020008AC
:10005000B7020008B7020008B7020008B70200089C
:10006000B7020008B7020008B7020008B70200088C
:10007000B7020008B7020008B7020008B70200087C
:10008000810500088D050008B7020008B7020008C6
:100090006905000875050008B7020008B7020008E6
:1000A000B7020008B7020008B7020008B70200084C
:1000B000B7020008B7020008B7020008B70200083C
:1000C000B7020008B7020008B7020008B70200082C
:1000D000B7020008A1230008AD230008B7020008FA
:1000E000B7020008B7020008B7020008B70200080C
:1000F000B7020008B7020008B7020008B7020008FC
:10010000B7020008B7020008B7020008B7020008EB
:10011000B7020008B7020008B7020008B7020008DB
:10012000B7020008B702000899050008B7020008E6
:10013000B7020008B7020008B7020008B7020008BB
:10014000B7020008B7020008B7020008B7020008AB
:10015000B7020008B7020008B7020008B70200089B
:10016000B7020008B7020008B7020008B70200088B
:10017000B7020008B7020008B7020008000000003C
:10018000B7020008B7020008B7020008B70200086B
:10019000B7020008B7020008B7020008B70200085B
:1001A0000000000000000000B702000800F002F8A4
:1001B00000F064F814A696E8000CB244B344DA45A3
:1001C00001D100F05BF8BAE80F000FA696E8300006
:1001D000A5EB040504EB0607AAEB0704A7F101074A
:1001E0004FEA15154FEA3414A4F10104AC4201D3CF
:1001F00000F044F813F0010F18BFFB1A43F001039D
:1002000000F001F8DBE718474046000060460000B8
:100210000A4410F8014B14F00F0508BF10F8015BF9
:10022000240908BF10F8014B6D1E05D010F8013BE2
:100230006D1E01F8013BF9D1641E03D0641E01F864
:10024000015BFBD19142E4D370470000704700008E
:100250000023002400250026103A28BF78C1FBD8CF
:10026000520728BF30C148BF0B6070471FB504F06C
:1002700014FA00F017F91FBD10B510BD00F043F9D6
:100280001146FFF7F3FF03F0C5F900F061F903B47D
:10029000FFF7F2FF03BC00F027F900000948804790
:1002A00009480047FEE7FEE7FEE7FEE7FEE7FEE758
:1002B000FEE7FEE7FEE7FEE704480549054A064B70
:1002C00070470000F1220008AD010008101700205F
:1002D000101D0020101900201019002053EA020CF4
:1002E00000F069802DE9F04B4FF00006002B1FBF96
:1002F000B3FA83F503FA05F424FA05F65E4012BF5B
:100300001643B2FA82F502FA05F4C5F120051EBFC4
:1003100022FA05FC44EA0C04203556EA044C4FEA64
:10032000144418BF641C4FF000084FF000099042BD
:1003300071EB030C39D3002919BFB1FA81F701FA27
:1003400007F6B0FA80F700FA07F6C7F120071EBFDC
:1003500020FA07FC46EA0C062037B6FBF4FCA7EBB4
:100360000507103F07F01F0BCBF120062CFA06F60D
:100370000CFA0BFB44BFB3460026202FA4BF5E46F9
:100380004FF0000B5BEA060C08BF4FF0010B19EBB6
:100390000B0948EB0608ABFB027C06FB02CC0BFB0F
:1003A00003CCC01B71EB0C01C1E70B460246414672
:1003B0004846BDE8F08B13B5084318BF4FF0FF3037
:1003C0000146AFF30080BDE81C4070474FF00002CB
:1003D00000B5134694469646203922BFA0E80C503B
:1003E000A0E80C50B1F12001BFF4F7AF090728BF16
:1003F000A0E80C5048BF0CC05DF804EB890028BF92
:1004000040F8042B08BF704748BF20F8022B11F0BA
:10041000804F18BF00F8012B70470000000000005B
:1004200030B44FF0013C50F8042B51F8043BCCFAA7
:1004300052F4D51A20D1FCB950F8042B51F8043BE2
:10044000CCFA52F4D51A17D1B4B950F8042B51F89C
:10045000043BCCFA52F4D51A0ED16CB950F8042BE7
:1004600051F8043BCCFA52F4D51A05D1002CDAD05D
:1004700030BC4FF00000704729BAB1FA81F111F099
:100480001801D1F120008440F2D1CA40CB4012F0D3
:10049000FF0213F0FF0330BCD01A7047704770475B
:1004A0007047000008487CB57844009007487844BD
:1004B000009C0546019004E02046016808448047FE
:1004C000241DAC42F8D17CBDBC430000BA430000FF
:1004D00010B500F00FF8006810BD10B5044600F02C
:1004E00009F8046010BD000001491820ABBEFEE70A
:1004F000260002000048704768020020004870474C
:100500006802002070477546FFF7F8FFAE46050009
:100510006946534620F00700854618B020B5FFF71E
:10052000CBFEBDE820404FF000064FF000074FF033
:1005300000084FF0000BAC46ACE8C009ACE8C009BD
:10054000ACE8C009ACE8C00921F007018D4670474E
:1005500010B50446AFF300802046BDE81040FFF719
:1005600096BE0000FEE7000041F2F830C2F2000043
:1005700000F076B941F2F830C2F2000000F070B934
:1005800041F28040C2F2000000F038BC41F2E0408D
:10059000C2F2000000F032BC41F22040C2F2000082
:1005A00000F02CBC70470000EFF3108072B600BF63
:1005B000FEE70000B0B590F820E0D0F800C0AEF142
:1005C000010EBEF1010FDCF808E00DD81EF0E05F6F
:1005D00010D0CEF3016EBEF1030F11D100F1240350
:1005E00001204FF4000134E000F1240301204FF416
:1005F00080212EE000F1240301204FF4001128E0B7
:10060000012000FA0EF01860886830B14B68CC68A1
:1006100044EAC30343EA000503E00868CB6843EA01
:1006200040550CF5C0744FEA0E10255004EB0E1324
:100630000D69184640F8045F097D012903D101685E
:1006400041F48071016050680121D86010689860A1
:1006500000201A6811431960B0BD000090F82020F6
:10066000013A012A30D8B0B546F20060C4F2000069
:10067000026842F001020260026822F47C520260C9
:10068000D1F814E0CC694A6A0368012C43EA0222DB
:1006900002600EF01F024FF0010303FA02F2C36979
:1006A0006FEA020C23EA0203C36113D02CBBC368B8
:1006B00003EA0C03C360CB688C8844EA034300EB75
:1006C000CE0423640B4611E0416A41F4802141626B
:1006D00001207047C3681343C3600B688C8844EAE9
:1006E000034300EBCE04236401F10C038C681B88E8
:1006F00043EA044300EBCE04636443688D6943EA34
:100700000204D1F810E0096A002D08BF03EA0C04C6
:1007100044604369BEF1000F43EA020408BF03EAE4
:100720000C040129446102D1C1691143C16101680E
:1007300021F0010101600020B0BD00007047000001
:1007400010B590F820C0ACF1010CBCF1010F77D8C6
:10075000D0F800C000290CBFDCF80CC0DCF810C0D9
:100760005FEA8C7C72D0D0F800C04FEA011E0CF515
:10077000D87C5CF80E4014F0040494605CF80EE041
:100780000CEB011C19BF4FEADE0454604FEA5E54C3
:100790001460DCF80040002904F00204D460DCF8A6
:1007A000044004F00F041461DCF80440C4F307248F
:1007B0009461DCF804404FEA14445461DCF80820EA
:1007C0001A70026802EB0112D2F8B8214FEA122225
:1007D0005A70026802EB0112D2F8B8214FEA1242B5
:1007E0009A70026802EB0112D2F8B8214FEA126245
:1007F000DA70026802EB0112D2F8BC211A710268A9
:1008000002EB0112D2F8BC214FEA12225A7102689F
:1008100002EB0112D2F8BC214FEA12429A7102682F
:1008200002EB0112D2F8BC214FEA1262DA710068C1
:100830000CBF00F10C0100F11001002020220AE0A1
:1008400000F1240101204FF4802204E000F1240192
:1008500001204FF400120B681A430A6010BD00001B
:100860002DE9F04F81B0044600684669D0F8049045
:100870008768D0F80CB0D0F810A0D0F81880F10735
:1008800003D1002530071DD425E0F90711D001213F
:1008900081608068B80709D4780700F1B180380713
:1008A00000F1B780204600F049FA02E0204600F04F
:1008B00047FA0025F80500F18A80F80300F1B180BD
:1008C000300708D51BF0100005D020681021C1604A
:1008D000C06845F40075700709D51BF0080006D004
:1008E00020680821C160C068204600F0A7F9B00761
:1008F00006D52068C068800702D0204600F0A0F925
:10090000700608D51AF0100005D02068102101618A
:10091000006945F48065B00609D51AF0080006D0D4
:100920002068082101610069204600F0AFF9F00657
:1009300006D520680069800702D0204600F0A8F99B
:10094000B00309D519F0100006D0206810214160CD
:100950004068204600F0C2F9F00309D519F00800FC
:1009600006D02068082141604068204600F0F2F976
:10097000300440F192805FEA497040F18A8006F4C9
:10098000807008EA102028435FEA8871014648BF5A
:1009900041F00201B20558BF01465FEA48700D46BA
:1009A00048BF45F00405700558BF0D46300570D5A9
:1009B00018F070006DD010380009052864D8DFE801
:1009C00000F0035E585B556145F008055CE0206867
:1009D0004FF4807181608068B8050AD4780512D41C
:1009E000380519D4204600F0ADF9F8037FF568AF5B
:1009F00017E0204600F0A8F9F8037FF561AF10E09A
:100A00004FF4006556E705F50055F8037FF558AF3C
:100A100007E04FF480554DE705F58045F8037FF575
:100A20004FAF20684FF4803181608068B8030AD4EA
:100A300078030FD4380313D4204600F087F9300729
:100A40003FF540AF47E7204600F082F930073FF519
:100A500039AF40E705F5004530073FF533AF3AE7DA
:100A600005F5803530073FF52DAF34E745F08005BB
:100A70000AE045F0200507E045F0400504E045F0B8
:100A8000100501E045F480752068816921F070014E
:100A9000816120680421416040684DB1606A40EA8C
:100AA00005012046616201B0BDE8F04FFFF746BE88
:100AB00001B0BDE8F08F0000002804BF012070479E
:100AC000B0B5044690F8200010B9204600F06EF84A
:100AD0002068016841F00101016000F027FC054633
:100AE00020684168C90705D100F020FC401B0B2895
:100AF000F6D310E0016821F00201016000F016FC5D
:100B0000054600BF2068416889070DD500F00EFC3E
:100B1000401B0B28F6D3606A052140F40030606268
:100B2000012084F82010B0BD217E0268012922F046
:100B3000800208BF80320260617E0268012922F0D3
:100B4000400208BF40320260A17E0268012922F003
:100B5000200208BF20320260E17E0268012922F0F3
:100B6000100218BF10320260217F0268012922F0B2
:100B7000080208BF08320260617F0268012922F082
:100B8000040208BF04320260D4E901C2D4E903358B
:100B900061691A432A431143ACF101021143C16157
:100BA00000200121606284F82010B0BD80B586B0BD
:100BB00046F200410068C4F200010022884205921A
:100BC000CDE903220292019201D006B080BD43F626
:100BD00030000092C4F20200036943F00073036125
:100BE000036903F000730093009B0092036843F0D5
:100BF000080303600068022300F0080000900098DA
:100C00000320019004900920059001F5D43001A93A
:100C1000CDE9023200F0BAFA14200021002200F0DF
:100C20000BFC142000F0F6FB15200021002200F040
:100C300003FC152000F0EEFB06B080BD70470000FD
:100C4000B0B5016846F60002C4F2000291420BD032
:100C500046F20042C4F20002914218BFB0BD40F219
:100C6000E025C2F2000503E040F20C35C2F20005B7
:100C70002C1D05F1200300212246FFF761FD05F13F
:100C8000280001682046BDE8B040084770470000D2
:100C9000B0B5016846F60002C4F2000291420BD0E2
:100CA00046F20042C4F20002914218BFB0BD40F2C9
:100CB000E025C2F2000503E040F20C35C2F2000567
:100CC0002C1D05F1200301212246FFF739FD05F116
:100CD000280001682046BDE8B04008477047000082
:100CE000B0B5044690F8200001281DD1022084F8F8
:100CF00020002068016821F00101016000F016FB6E
:100D0000054600BF20684068C00713D000F00EFB06
:100D1000401B0B28F6D3606A40F400306062052067
:100D200084F820000120B0BD606A40F400206062B9
:100D30000120B0BD00206062B0BD0000704700001F
:100D400070470000704700007047000070470000C7
:100D5000704700007047000070B5866D044600F0D3
:100D6000E5FA94F83510022925D105462068216C52
:100D7000026822F016020260426922F0800242619B
:100D800009B9A16C19B1016821F00801016001687D
:100D900021F00101016000BF20680068C0070ED08B
:100DA00000F0C4FA401B0628F6D32020606503201B
:100DB00084F835000CE080206065012008E0E06DDB
:100DC0003F2101FA00F0B060012084F835000020D6
:100DD000002184F8341070BD90F83510022909D133
:100DE000052180F835100068016821F001010160DB
:100DF000002070478021416501207047F0B581B027
:100E00000021009140F20001C2F200010B68D0E91C
:100E1000166148F2B51537680822C1F64E358A408A
:100E20003A42A3FB05350CD003681C68640708D55B
:100E30001C6824F004041C60B260426D42F00102A0
:100E4000426501228A403A4208D003685B691B066A
:100E500004D5B260426D42F00202426504228A402B
:100E60003A4208D003681B689B0704D5B260426D04
:100E700042F00402426510228A403A4216D00168CC
:100E80000B681B0712D5B2600B680A685B0306D4B7
:100E9000D20506D40A6822F008020A6001E01103B4
:100EA0003FD4016C11B1044688472046C26D202111
:100EB00001FA02F33B4241D001680F68FF063DD5BD
:100EC000B36090F835700B68052F1AD123F0160324
:100ED0000B604B6923F080034B61036C0BB9836C8F
:100EE0001BB10B6823F008030B603F219140B160F8
:100EF000012180F83510016D002280F83420D9BB23
:100F00003EE00A685B0310D4D20512D40A6822F0CE
:100F100010020A60012180F83510002180F8341099
:100F200007E0816C0029BED1C0E7110301D4416CF8
:100F300000E0C16B11B1044688472046416DF9B10C
:100F4000416DC90716D0052180F835100168AA0A3D
:100F50000B6823F001030B60009B01339342009365
:100F600002D80B68DB07F7D1012180F8351000218A
:100F700080F83410C16C19B101B0BDE8F0400847E9
:100F800001B0F0BD2DE9F041044600F0CFF9C4B145
:100F90000546022084F835000020216884F83400DA
:100FA000086820F00100086020680168C9070BD0BC
:100FB00000F0BCF9401B0528F6D9032120220320AC
:100FC0007AE00120BDE8F081016848F23F02CFF2EB
:100FD0001002D4E9013501EA020ED4E9032143EA03
:100FE0000E032B43D4E9056C1A43D4E90778114367
:100FF000314341EA0702616A42EA0802042942EAEF
:101000000C0303D1D4E90B273A431343036042692D
:10101000042922F0070241EA02012DD1D4E90A5342
:1010200041EA050143B3BCF5005F08D0BCF1000FF5
:1010300012D1022D16D0012D07D09DB119E0032D3C
:1010400017D8DFE805F00B0F0B02A3F1C072B2FA5C
:1010500082F252094AB90FE0032D02D2012222B9CD
:101060000AE006D1C3F3006232B10121402201201F
:1010700022E00022002AF8D100F0F8024AF6AB2361
:10108000103ACAF6AA23A2FB033744F64003416193
:101090003909C0F60003595C40F2FF3398435F2AD8
:1010A0004FF03F0288BF0430C4E9160102FA01F193
:1010B0008160002201210020626584F83510BDE8BE
:1010C000F081000090F834C0BCF1010F04BF022091
:1010D000704770B54FF0010C80F834C0D0F858E07C
:1010E00090F835C0BCF1010F37D14FF0020C80F8F9
:1010F00035C04FF0000CC0F854C0D0F800C0846870
:10110000056CC06DDCF80060402C26F48026CCF81D
:101110000060CCF804300B4604BF13460A463F215A
:1011200001FA00F0CCF80830CCF80C20CEF808001A
:10113000DCF8000040F01600CCF800002DB1DCF81F
:10114000000040F00800CCF80000DCF8000040F09F
:101150000100CCF80000002070BD002180F83410A0
:10116000022070BDB0B5044600F0E0F8054640F23C
:101170005C20C2F200000078611C18BF044400BF6C
:1011800000F0D4F8401BA042FAD3B0BD2DE9F04FD7
:1011900083B000F1200200F13E4742F20045009288
:1011A00007F1FF77C4F202050A224FEAB726A842E8
:1011B00008BF0922092E38BF4FEAB72200274FF097
:1011C000000A4FF0000801920AE000BF08F1010890
:1011D0000AF1020AB8F1100F07F1040700F09D8030
:1011E0000D68012202FA08FC15EA0C09EED04D68E0
:1011F000032205F0030BABF10106012E02FA0AFEF1
:1012000010D88668CC6826EA0E0604FA0AF434433D
:1012100084604468C5F3001524EA0C0605FA08F555
:101220002E434660BBF1030F1BD0C6688D6826EACB
:101230000E0605FA0AF52E43BBF1020FC66010D167
:101240006FF00302009D02EA580655F806C007F049
:101250001C040F220B69A2402CEA0202A3401A438D
:10126000AA5102684B6822EA0E0203F0030606FA4E
:101270000AF6324313F4403F0260A7D0002243F63F
:1012800044030292C4F202031A6843F6004442F493
:1012900080421A601A68C4F2010402F48042029289
:1012A000029A28F003024FF6084C2244CFF6FF7C46
:1012B00052F80C3007F00C060F25B540AB43019DEA
:1012C00005FA06F6334342F80C30A2684B6842EA4E
:1012D000090643F60C4CDD0258BF22EA0906A66057
:1012E000C4F2010CDCF800209D0242EA090658BF56
:1012F00022EA0906CCF8006062689D0342EA09060A
:1013000058BF22EA090666602268DB0342EA090642
:1013100058BF22EA0906266058E703B0BDE8F08FFF
:10132000002A08BF090481617047000041F20C7077
:10133000C2F200000068704740F25C2041F20C717C
:10134000C2F20000C2F2000100780A68104408608E
:101350007047000080B543F60040C4F20200016807
:1013600041F400710160016841F48061016001682D
:1013700041F480710160032000F08AF80F2000F032
:1013800005F800F02BF8002080BD0000B0B540F259
:101390005C22C2F2000240F200011278C2F20001A7
:1013A0004FF47A730968B3FBF2F20446B1FBF2F131
:1013B000084600F077FB0F2C4FF001050CD858B908
:1013C0004FF0FF3021460022002500F035F840F2B2
:1013D0006020C2F2000004602846B0BD82B0002048
:1013E00043F640010190C4F202014A6842F480428F
:1013F0004A604A6802F480420192019A00900868AB
:1014000040F080500860086800F08050009000981C
:1014100002B07047002848BF704700F01F0101224A
:1014200002FA01F11C2202EAD0004EF20012CEF2C2
:10143000000281507047000010B54EF60C5CCEF2F1
:10144000000CDCF80030C3F3022E8EF00704042CED
:1014500028BF0424BEF103034FF0FF3E0EFA04F44C
:1014600038BF0023A14399400EFA03F39A43114376
:1014700000F1604200F00F03090102F56442043BF1
:101480006344002848BF03F10C02117010BD000036
:101490004EF60C51CEF200010A684FF6FF031A40D7
:1014A00060F30A2242F0806040F0FD7008607047EF
:1014B00070B582B00020019043F64000C4F20200F3
:1014C0000168402641F0805101600068C4F20E2698
:1014D00000F080500190019847F204050120C4F209
:1014E00000053060FFF722FF044600BF2868C003F4
:1014F00006D4FFF71BFF001BB0F57A7FF6D90EE08C
:1015000001207060FFF712FF044600BF28688003C7
:1015100008D4FFF70BFF001BB0F57A7FF6D9032044
:1015200002B070BD002002B070BD0000002804BFF2
:10153000012070472DE9F04143F60808C4F2020883
:101540000446D8F8F8030D4600F00F00814207D991
:1015500088F8F853D8F8F80300F00F00A84276D1C5
:101560002068810717D5410705D5D8F8001041F448
:10157000E051C8F80010010705D5D8F8001041F473
:101580006041C8F80010D8F80010A26821F0F001FE
:101590001143C8F80010C0073FD1D8F8F80300F095
:1015A0000F00854207D288F8F853D8F8F80300F006
:1015B0000F00A8424BD12068410707D5D8F800108A
:1015C000E26821F4E0511143C8F80010000708D583
:1015D000D8F80000216920F4604040EAC100C8F852
:1015E000000000F07BF8D8F8001044F62802C1F3A0
:1015F0000311C0F60002515C40F2000220FA01F132
:1016000040F26020C2F200000068C2F200021160E5
:10161000FFF7BCFE0020BDE8F0816068811E022952
:1016200007D258F8081C89015CBF0120BDE8F08191
:1016300010E0012807D158F8081C89035CBF01207D
:10164000BDE8F08106E058F8081C890702D40120A3
:10165000BDE8F081D8F8001021F003010843C8F874
:101660000000FFF763FE064641F28837D8F8000015
:10167000616800F00C00B0EB810F8ED0FFF756FED2
:10168000801BB842F2D90320BDE8F08140F200008F
:1016900043F60801C2F20000C4F2020100680968C2
:1016A00044F63802C1F38221C0F60002515CC84002
:1016B0007047000040F2000043F60801C2F200004B
:1016C000C4F202010068096844F63802C1F34231ED
:1016D000C0F60002515CC8407047000010B543F6E8
:1016E0000404C4F202046168C1F3810142F20040C3
:1016F000C0F2F400DFE801F00203080210BD41F679
:101700000030C0F2B70010BD20682168236849028C
:1017100041F60031C0F2B70100F03F02C3F3881078
:101720005CBF42F20041C0F2F401A1FB00010023C2
:10173000FEF7D4FD21680222C1F3014102EB410111
:10174000B0FBF1F010BD0000002804BF012070477D
:101750002DE9F04182B00446007843F60006C00748
:10176000C4F2020649D0B06800F00C00042809D188
:101770003068800341D5606800283ED1012002B066
:10178000BDE8F081B06800F00C00082802D1706854
:101790004002EDD465683068B5F5A02F05D0B5F5E9
:1017A000803F09D140F480300CE040F4802030606C
:1017B000306840F4803005E020F4803030603068DC
:1017C00020F480203060FFF7B1FD002D054611D0D8
:1017D0003068800311D4FFF7A9FD401B6428F7D9B6
:1017E00028E100BFFFF7A2FD401B64284FF0030073
:1017F00000F2E08030688003F4D4207880071BD5A5
:10180000B06810F00C0F09D0B06800F00C00082888
:1018100040F085807068400200F181803068800768
:1018200003D5E068012840F09A803068216920F0F3
:10183000F80040EAC10030602078000734D42078F6
:10184000400746D4A5695DB3B06800F00C000828D5
:1018500040F09C80012D00F082807068E16900F406
:1018600080028A427BD1216A00F03F028A4276D10F
:1018700047F6C071626A0140B1EB821F6FD1A16A65
:101880004FF6FF73C903994300F44032A1F580314C
:101890008A4264D1E16A00F07060B0EB016F5ED102
:1018A000002002B0BDE8F081606900285BD0002014
:1018B000C4F247200121C0F8801EFFF737FD05461E
:1018C000706F8007BBD4FFF731FD401B0228F7D9AA
:1018D000B0E0306C5FEAC0080AD400200190306CA0
:1018E00040F080503064306C00F0805001900198DE
:1018F00047F20007C4F200073868C00526D43868EC
:1019000040F480703860FFF711FD05463868C00567
:101910001CD4FFF70BFD401B0228F7D98AE0E068D2
:10192000002840F20000C4F2472053D0012101609A
:10193000FFF7FCFC054600BF306880073FF575AF38
:10194000FFF7F4FC401B0228F6D973E0A568306F5E
:10195000052D51D0012D56D140F0010059E0012054
:1019600002B0BDE8F0810020C4F247200021C0F899
:10197000801EFFF7DBFC0546706F80077FF55FAFC9
:10198000FFF7D4FC401B0228F6D953E00027C4F22D
:10199000472700203866FFF7C9FC022D05460DD108
:1019A000306880015DD5FFF7C1FC401B02284FF075
:1019B0000300F5D902B0BDE8F08100BF30688001B6
:1019C0007FF56EAFFFF7B2FC401B02284FF003001B
:1019D000F4D9EFE700210160FFF7A8FC054600BF3E
:1019E000306880077FF528AFFFF7A0FC401B022876
:1019F0004FF00300F4D9DDE740F004003067306FAA
:101A000040F0010005E020F001003067306F20F069
:101A100004003067FFF78AFC002D054641F2883745
:101A200013D000BF306F800712D4FFF77FFC401B3C
:101A3000B842F7D9032002B0BDE8F081FFF776FC89
:101A4000401BB8424FF00300B4D8306F8007F5D484
:101A5000B8F1000F3FF5F6AE306C20F080503064E6
:101A6000F0E604F11C052FCD084340EA8210D903AB
:101A70004FF6FF729143A1F5803140EA05600843BB
:101A8000706001203866FFF751FC04463068800121
:101A90003FF506AFFFF74AFC001B02284FF003009A
:101AA000F4D987E7411E0020B0EB116F1CBF012065
:101AB00070474EF21002CEF2000251604EF62351F2
:101AC000CEF20001F0230B70072190601160704787
:101AD00090F83E30202B0BD1034600294FF0010037
:101AE00018BF002A00D1704793F83C00012801D1AB
:101AF0000220704710B582B0012083F83C001863C3
:101B000018461C4600F0FEFB216B0120012912D172
:101B100000200190206801680191406801900198BF
:101B2000206850E8030F216840F0100041E80302EC
:101B3000002AF5D1002002B010BD000041F2405251
:101B4000C2F20002904218BF704740F23830C9B26A
:101B5000C2F2000000F09ABC70470000B0B582B03D
:101B600001680A68CC684B6902F02F05202D04F04B
:101B7000200505D125B102B0BDE8B04001F0C4B8E0
:101B80005FEA027C1EBF03F0010E04F4907313EBB6
:101B90000E0340D1036BD50618D5012B16D114F0D6
:101BA000100313D0002201920A6801924A68019240
:101BB000019A4969490647D4818DC28DC38D002B96
:101BC00018BF914240F00C8102B0B0BD13062AD577
:101BD00014F0800327D090F83D20212AF4D18268A8
:101BE000B2F5805F03D10269002A00F02A81026AFF
:101BF000531C036212784A60C28C013A1304C284F7
:101C0000E2D1C86820F08000C860C86840F0400099
:101C1000C86002B0B0BDD10718BF14F4807159D1AB
:101C200051075DD463E05206CED514F04002CBD00C
:101C3000CA6822F04002CA60202180F83D1002B03C
:101C4000BDE8B04000F05EBA816B0A68526893B29A
:101C5000002BB9D0858DAB42B6D2C285C969B1F52A
:101C6000807F33D0016851E8031F026821F480713E
:101C700042E80313002BF5D1016851E8051F026803
:101C800021F0010142E80513002BF5D1016851E86C
:101C9000051F026821F0400142E80513002BF5D131
:101CA000202180F83E100021016300BF016851E847
:101CB000031F026821F0100142E80313002BF5D145
:101CC000816B04460846FFF747F82046818DC28D98
:101CD000891AABE0016C41F001010164510706D59E
:101CE000BEF1000F03D0016C41F0020101649107C5
:101CF00006D5BEF1000F03D0016C41F00401016470
:101D0000BCF1000F06D55EEA050103D0016C41F07D
:101D100008010164016C00293FF456AF910604D517
:101D20001DB1044600F0F0FF204601684969026CCD
:101D300001F0400102F0080289184AD0016851E818
:101D4000031F026821F4907142E80313002BF5D1C0
:101D5000016851E8051F026821F0010142E80513FE
:101D6000002BF5D1016B01290AD100BF016851E8B0
:101D7000031F026821F0100142E80313002BF5D184
:101D8000202180F83E10002101630168496949065D
:101D900052D500BF016851E8051F026821F04001DB
:101DA00042E80513002BF5D1816B002944D042F69F
:101DB0005D62C0F60002044608460A65FFF70CF8AB
:101DC00000283FF401AFA06B016D02B0BDE8B04048
:101DD00008470446FFF7C0FE0020206402B0B0BDF3
:101DE000891A00BF026852E8032F036822F4907238
:101DF00043E80325002DF5D1026852E8052F03685A
:101E000022F0010243E80525002DF5D1202280F8BB
:101E10003E200022026300BF026852E8032F0368DD
:101E200022F0100243E80325002DF5D189B202B05B
:101E3000BDE8B040FFF782BE02B0BDE8B040FFF79A
:101E40008BBE026A32F8023B6FF35F234B60026283
:101E5000D2E60000002804BF0120704710B50446F8
:101E600090F83D0028B9002084F83C00204600F09E
:101E700021F8242084F83D002068C16821F4005135
:101E8000C160204600F0D0FE2068016921F4904135
:101E90000161416921F02A014161C16841F40051A9
:101EA000C16000202021206484F83D1084F83E1099
:101EB00010BD00002DE9F04387B00446006844F2ED
:101EC0000041C4F2000100268842CDE90566CDE953
:101ED0000366029653D041F20001C4F20101884228
:101EE00040F0BC8043F630000196C4F20200416924
:101EF00041F010014161416901F010010191019926
:101F00000196016841F002010160006802A900F039
:101F1000020001900198C02002900220CDE9030642
:101F2000032005900720069040F20040C4F2020012
:101F3000FFF72CF946F28800C4F2020041F2204576
:101F400000F56E70C2F200054FF000614FF4806240
:101F50004FF4807385E843002846C5E90362C5E96C
:101F60000566C5E907366E62FFF70CF800284FF0EA
:101F700025064FF0380718BFFEF716FB64E043F65E
:101F800030000196C4F20200016946F2880841F46B
:101F9000003101610169C4F2020801F400310191CC
:101FA00001990196016841F008010160006802A9E9
:101FB00000F0080001900198602002900220CDE915
:101FC0000306032005900720069040F20040C4F26B
:101FD000020000F50060FFF7D9F841F28045C2F237
:101FE00000054FF000674FF480692846C5E9008777
:101FF000C5E90266C5E90496C5E90666C5E908664D
:10200000FEF7C0FF002818BFFEF7CEFAA563AC6349
:1020100041F2E04508F11800C2F200054021C5E98F
:10202000000705F10800002280E806022846C5E9FD
:102030000522C5E907226A62FEF7A4FF26264FF0B3
:10204000340708B1FEF7B0FA304600210022E5510E
:10205000AC63FFF7F1F93046FFF7DCF907B0BDE8F4
:10206000F08300007047000070470000B0B590F8A2
:102070003D40202C0CD1134600294FF0010218BF1F
:10208000002B01D11046B0BD90F83C20012A01D1AF
:102090000220B0BD012280F83C20002521220162EF
:1020A0008384C384056480F83D20D0F834C042F6B0
:1020B000696E42F6D954C0F6000EC0F600040268FC
:1020C000CCE90FE442F68534C0F60004CCE91345B0
:1020D000043204466046FEF7F5FF216820466FF0A3
:1020E00040020A6084F83C50016851E8051F02680C
:1020F00041F0800142E80513002BF5D10022104683
:10210000B0BD00007047000070470000FEE700000F
:1021100080B541F2F83046F20041C2F20000C4F24C
:1021200000010922002380E80E0000F10C014FF4A9
:10213000803C4FF4801E81E808504FF48071018389
:10214000C0F81A30FEF7B8FC002808BF80BDBDE813
:102150008040FEF729BA000080B582B0002043F627
:1021600030010190C4F202010A6842F400120A60D0
:102170000A6802F400120192019A00900868002295
:1021800040F4800008600868002100F4800000909E
:1021900000981020FFF750F91020FFF73BF91120AD
:1021A00000210022FFF748F91120FFF733F93A2008
:1021B00000210022FFF740F93A2002B0BDE880403C
:1021C000FFF728B970B586B0002543F630000595B5
:1021D000CDE90355CDE901550095C4F2020001682F
:1021E00041F6004441F0010101600168C4F20204BB
:1021F00001F001010091009900950168002241F071
:102200000201016001683C2601F002010091009981
:102210000095016841F008010160016801F00801C2
:10222000009100990095016841F08001016000680B
:102230003C2100F08000009000982046FFF770F8E5
:10224000012002900220CDE9030501A92046019654
:10225000FEF79CFF06B070BD10B541F2405041F250
:10226000000C48F2A062C2F20000C4F2010CC0F2FD
:1022700001024FF4805300214FF4806E0C24C0E91A
:1022800000C2C0E90231C0E904E4C0E90611FFF769
:10229000E1FD002808BF10BDBDE81040FEF784B97D
:1022A00080B541F2845044F20041C2F20000C4F211
:1022B000000100234FF00C0C4FF4E13280E80E00D7
:1022C000C0E90333C0E905C3C361FFF7C3FD0028BC
:1022D00008BF80BDBDE88040FEF766B9FEE700009C
:1022E000FEE700007047000070470000FFF724B8C9
:1022F0004EF68850CEF20000016841F47001016092
:102300007047000070B582B0134600260446816213
:1023100083850664222084F83E00A06B42F6E15CCF
:1023200042F6C5550A462168C0F6000CC0F6000505
:10233000C0E90FC542F68535C0F600050431C0E995
:102340001356FEF7BFFE01962068016801914068B0
:1023500001900198206984F83C6048B1206850E8F9
:10236000030F216840F4807041E80302002AF5D190
:10237000206850E8050F216840F0010041E805029F
:10238000002AF5D1206850E8050F216840F0400090
:1023900041E80502002AF5D1002002B070BD00001E
:1023A00041F24050C2F20000FFF7D8BB41F2845026
:1023B000C2F20000FFF7D2BBFEE70000B0B540F26A
:1023C0004A30C2F20000018841F2F032C2F200024B
:1023D0001180C16841F2F432C2F200021160807AC9
:1023E00041F2C061C2F20001087041F2C46041F2E2
:1023F000C855C2F200000024C2F20005A0F8404017
:10240000446405F10C004421FDF7E0FF05F15C0098
:102410004421FDF7DBFF4AF22C00C4F2991042F28E
:10242000000205F1AC034FF08D41C4F2000217C366
:102430004FF44070C5E9334485F8D440C5E92F44D2
:10244000C5F8C440A5F8C840C5E93644C5F8E04021
:10245000A5F8E400C5E93A44C5E93C44B0BD000034
:1024600080B541F2405040F23831C2F20000C2F271
:1024700000011222FFF72CFB41F22040C2F20000C3
:102480000068016821F00801016080BD80B500F09E
:102490008FF841F2405040F23831C2F20000C2F2EF
:1024A00000011222FFF714FB41F22040C2F20000AB
:1024B0000068016821F00801016040F24A30C2F270
:1024C00000003221C18580BD10B592B006AC204617
:1024D0003021FDF77BFF002043F640010590CDE958
:1024E0000300CDE901000090C4F202010A6842F045
:1024F00080520A60096801F08051009100990090B3
:1025000047F20000C4F20000016841F4404101605C
:1025100000684FF4800100F44040009000980120D2
:1025200006904FF480300D910621079002200E9105
:10253000B4210C90CDE90F10042011902046FFF734
:1025400003F920B1EFF3108072B600BFFEE7FEF78B
:10255000AFFF20B1EFF3108072B600BFFEE70F208F
:10256000019002200290002003904FF4A0500490AC
:102570004FF48050059001A80521FEF7D7FF20B148
:10258000EFF3108072B600BFFEE712B010BD00007E
:10259000016840F20122914218BF704700F11C010E
:1025A00041F2C850C2F2000000F08EBC00000000F2
:1025B000002800F0C480122918BF70472DE9F04FA1
:1025C00085B00178427840F24A3462F30A21C2F2BF
:1025D00000042180427883784FEAD20963F34A19D4
:1025E000A4F80290C27883780779920042EA931A9D
:1025F00067F38A2AA4F804A0027943794FEA520BC0
:1026000063F3CA1B027C437CA4F806B042EA0322AF
:10261000228101924279A1F5B6719209A2720492C7
:1026200042790290C2F3011208460392E27201F06D
:1026300069FE02460B4601F061FC9FED410B58EC30
:10264000105B2A46434601F001FD9FED3F0B56EC1F
:10265000107B3A46334601F051FC9FED3D0B53ECA5
:10266000102B01F04BFC01F017FCE060A9F5B670EF
:1026700001F048FE02460B4601F040FC2A46434664
:1026800001F0E4FC3A46334601F038FC01F004FC6A
:102690002061AAF5B67001F035FE02460B4601F046
:1026A0002DFC2A46434601F0D1FC3A46334601F060
:1026B00025FC01F0F1FB6061ABF5B67001F022FE84
:1026C00002460B4601F01AFC2A46434601F0BEFCC6
:1026D0003A46334601F012FC01F0DEFBA0614FF6F2
:1026E00094600199CFF6FF7010FA81F001F00AFEB4
:1026F00002460B4601F002FC2A46434601F0A6FCC6
:102700003A46334601F0FAFB01F0C6FBE06104985B
:10271000029984F82000039884F82100C888608416
:102720000889A0844889E084087B84F82800487BD5
:1027300084F82900C889608505B0BDE8F04F70476E
:102740000000000000A09440000000000000F0BF66
:102750000000004099B8A5BF10B541F2C464C2F2B0
:1027600000040146204600F0B3FC204600F0A4FC23
:10277000052888BF10BDC0B2DFE800F003552C402B
:10278000176941F2C460C2F2000000F099FC51ECFC
:10279000100B01F081FB00EE100A41F2C850C2F2AA
:1027A0000000BDE8104000F02DBF41F2C460C2F24D
:1027B000000000F085FC51EC100B01F06DFB00EE09
:1027C000100A41F2C850C2F200005030BDE810407B
:1027D00000F014BF41F2C460C2F2000000F070FCCF
:1027E00051EC100B01F058FB00EE100A41F2C850FA
:1027F000C2F20000BDE8104000F0FCBE41F2C4602F
:10280000C2F2000000F05CFC51EC100B01F044FB44
:1028100000EE100A41F2C850C2F200005030BDE88C
:10282000104000F0EFBE41F2C460C2F2000000F0C0
:1028300047FC51EC100B01F02FFB00EE100A41F2A7
:10284000C850C2F20000BDE8104000F0D7BE41F20F
:10285000C460C2F2000000F033FC51EC100B01F038
:102860001BFB00EE100A41F2C850C2F200005030CB
:10287000BDE8104000F0BEBEB0B588B041F2EC3407
:10288000C2F20004206840F2D022013020604FF4F0
:10289000007002900820069041F2F8300025C2F244
:1028A0000000C2F2000202A901ABCDE90355059573
:1028B000FDF780FE2068092808BF256008B0B0BD7C
:1028C00040F29850C2F20000011D41F28450C2F261
:1028D00000003122FFF7CABB70B541F60004C4F214
:1028E000020404F58066054600F00102304620210E
:1028F000FEF716FDC5F3400230461021FEF710FD2D
:10290000C5F3800230460821FEF70AFDC5F3C00278
:1029100030460421FEF704FD05F01000012686EA8A
:102920001012A4F500604FF40061FEF7F9FC05F009
:10293000200086EA5012A4F580604FF48041FEF733
:10294000EFFC05F0400086EA901220460221FEF7D7
:10295000E7FCE8B286EAD01220460421FEF7E0FC4C
:1029600005F4807086EA102220460821FEF7D8FC84
:1029700005F4007086EA502220461021FEF7D0FCB4
:1029800005F4806086EA902220462021FEF7C8FCEC
:1029900005F4006086EAD02220464021FEF7C0FC04
:1029A00005F4805086EA103220468021FEF7B8FCFC
:1029B00005F4005086EA503220464FF48071BDE89D
:1029C0007040FEF7ADBC0000F0B58BB00D4604467C
:1029D000FEF786F9206846F600024169C4F200025B
:1029E00041F0020141614169904241F010014161B1
:1029F00027D046F20041C4F20001884247D140F29C
:102A0000E020C2F2000004608562002501260E2746
:102A100001A92046CDE90555CDE90355CDE901557C
:102A20000996CDE907560A97FDF718FECDE903553B
:102A3000CDE90155CDE90566CDE90756CDE9096730
:102A400021E040F20C30C2F20000046085620025F3
:102A50000E26012701A92046CDE90355CDE90155F0
:102A6000CDE90556CDE90757CDE90976FDF7F6FD25
:102A70000F20CDE90355CDE90155CDE90570CDE92C
:102A80000757CDE9097601A92046FDF7E7FD0BB010
:102A9000F0BD0000D0F800C047F2FF73C4F200039D
:102AA0009C4516DC44F6FF33C4F200039C4528DC49
:102AB00044F20043C4F200039C4544D044F60003B2
:102AC000C4F200039C455BD140F2A473C2F2000340
:102AD0004CE040F6FF73C4F201039C4522DC47F64C
:102AE0000003C4F200039C4532D047F60043C4F211
:102AF00000039C4518BF704741F2E013C2F2000387
:102B000034E044F60043C4F200039C4525D045F26E
:102B10000003C4F200039C4532D140F6BC33C2F23C
:102B2000000323E041F20003C4F201039C4519D0E5
:102B300041F20043C4F201039C4521D140F6C85341
:102B4000C2F2000312E040F29853C2F200030DE01B
:102B500040F6D473C2F2000308E040F6B013C2F2AC
:102B6000000303E040F28C33C2F2000303F5827CE1
:102B7000C3F8081261461860A3F80422FEF7A8BF44
:102B800070470000806B0168496990F83D20212A58
:102B900011D111F080010ED00021C184016851E8EB
:102BA000031F026821F0C00142E80313002BF5D196
:102BB000202180F83D100168496990F83E20222AC2
:102BC0002BD111F0400128D00021C185016851E8C6
:102BD000031F026821F4907142E80313002BF5D122
:102BE000016851E8051F026821F0010142E8051360
:102BF000002BF5D1016B01290AD100BF016851E812
:102C0000031F026821F0100142E80313002BF5D1E5
:102C1000202180F83E1000210163016C41F0100179
:102C20000164FEF799BF0000B0B50446006804F1E6
:102C300008030ECB0569194325F440552A43026168
:102C40006269E3691143C268194349F20C639A430C
:102C50001143C1604169A26921F4407141F200430E
:102C6000114340F48062C4F201039A42416102D1EF
:102C7000FEF720FD01E0FEF709FDE1694FF69C75C6
:102C800063681922C0F6FF75B1F5004FA0FB020181
:102C90001CD15A00DB0FFDF721FB48F21F51C5F292
:102CA000EB11A0FB01235A0905F1805302FB03003D
:102CB000322303EBC000A0FB01014FF4F87000EADF
:102CC000111000EB0210C1F3421118E09A009B0FA3
:102CD000FDF704FB48F21F51C5F2EB11A0FB0123E5
:102CE0005A0902FB0500322303EB0010A0FB01018F
:102CF000F02000EA511000EB0210C1F34311084428
:102D000021688860B0BD000090F83E10222918BFED
:102D100070478268B2F5805F02D10169002948D00E
:102D2000816AB2F5805F07D00AB9026922B10268F0
:102D3000526802F07F0201E0026852680A70816AFC
:102D400001318162C18D01390A04C18500D070470B
:102D50000168CA6822F02002CA60CA6822F4807240
:102D6000CA604A6922F001024A61202180F83E10BF
:102D7000016B012918BFFFF775B981B0002101630C
:102D8000016851E8031F026821F0100142E80313B3
:102D9000002BF5D101680A68D20606D50022009200
:102DA0000A680092496800910099818D01B0FEF790
:102DB000C5BE0168826A49686FF35F2122F8021B71
:102DC0008262BFE7806B016B012918BFFFF74CB926
:102DD000818D4908FEF7B2BE806BFFF795B9000000
:102DE0000168806B0968C90530D40021C18500BF26
:102DF000016851E8031F026821F4807142E803135F
:102E0000002BF5D1016851E8051F026821F001018E
:102E100042E80513002BF5D1016851E8051F02684F
:102E200021F0400142E80513002BF5D1202180F864
:102E30003E10016B012909D1016851E8031F0268A6
:102E400021F0100142E80313002BF5D1016B012999
:102E500018BFFFF707B9818DFEF770BE806B0021A8
:102E6000C185C184FEF778BE0168806B0968C90519
:102E700048BFFFF747B90021C18400BF016851E88E
:102E8000051F026821F0800142E80513002BF5D1EF
:102E9000016851E8031F026841F0400142E8031352
:102EA000002BF5D17047000090ED360A7047000006
:102EB00090ED370A7047000090ED3A0A7047000025
:102EC00090ED3B0A7047000070B5D0F8B820B0F81C
:102ED000C0400132C0F8B820A0F8C8400A8815BA2E
:102EE0002A0CA0F8C0204B881BBA1E0CA0F8C260A8
:102EF0008B881BBA4FEA134CA0F8C4C091F806E0C7
:102F0000C4EB154109B211F5805FA0F8C6E001DA03
:102F1000012104E0B1F5805F06DD4FF0FF31D0F80C
:102F2000D0301944C0F8D010D0F8D010B0F8B43078
:102F30009FED193A01FB032101EE103A00EE101A41
:102F4000B8EEC00AB8EE411A80EE010A9FED111AE0
:102F500032B290ED2B2AC0F8CC100FFA8CF180F829
:102F6000E4E030EE000A20EE010A01EE102AB8EE8D
:102F7000C11A21EE031A80EE020A81EE021A02EE55
:102F8000101AB8EEC22A80ED382A80ED360A80ED9C
:102F9000371A70BDDB0F49405077D63DB0B50446B7
:102FA00090F8E500032838D8DFE800F00202111499
:102FB00094ED2C0A94ED3C1AB4F8B60081EE000AA8
:102FC00001EE100AB8EE411A20EE010A27E094ED56
:102FD0003B0A11E094ED3A0A204600F023FA94ED02
:102FE000360A204600F012FB204600F01FFA204669
:102FF00000F0FCFA84ED3B0A04F15005284600F08D
:1030000011FA94ED370A284600F000FB284600F03C
:103010000DFA284600F0EAFA01E09FED0B0A84ED74
:103020003D0ABDEEC00A10EE100AD4F8A810000A3E
:10303000087094ED3D0AD4F8A800BDEEC00A10EE69
:10304000101A4170B0BD00BF00000000D1F800C0F0
:1030500046F20041C4F200018C450AD046F6000158
:10306000C4F200018C450AD140F20C31C2F20001D9
:1030700003E040F2E021C2F20001C0F8A010911E6E
:10308000C9B2092980F8A42080F8E53080ED2B0A28
:10309000C0ED2C0A08D844F60002C0F6000252F82F
:1030A0002110C0F8A810704740F2D021C2F20001F0
:1030B000C0F8A8107047000090F941007047000068
:1030C00080B5406C01F078FA41EC100B80BD000037
:1030D0002DE9F04F99B00468834694F8041100205C
:1030E0003D294FF000080AD004F2051200276B4674
:1030F000D955D15D07F101083D294746F8D19BF824
:103100000490694601F80800B9F1000F494618BF5C
:10311000012128D0DBF8085068462946FDF780F9E0
:10312000B8B127466435A9F101040026EA4600BF7C
:10313000B44215D050462946FDF772F9643500288F
:1031400006F10106F4D100213C464E4538BF01216D
:1031500001E0002601218BF8416008F1010002E046
:10316000002100203C46002902BFFF208BF84100CF
:1031700008F101009BF841100022FF29CBF8442000
:1031800041D004F58272C1B2555C9FED200A012343
:103190002D2D08BF53FA80F10020B2EE041A01E091
:1031A00008460131535C2E2BFAD073B1232B0CD07F
:1031B000303B02EE103AB8EEC22A20EE010A30EEA1
:1031C000020A8BED110A0131ECE790B1081A00EE0A
:1031D000100AB8EEC00ABFEE001A70EE010AB2EE95
:1031E000040A00F001FB9BED111A81EE000A8BED41
:1031F000110A9BED110A2D2DB1EE401A08BFB0EE59
:10320000410A8BED110A19B0BDE8F08F00000000F3
:1032100000F07AB810B50C6847F2FF71DDF80CC009
:10322000C4F20001DDF808E08C4216DC44F6FF3100
:10323000C4F200018C4227DC44F20041C4F20001D8
:103240008C4243D044F60001C4F200018C4251D1BB
:1032500040F2A471C2F200014BE040F6FF71C4F2EB
:1032600001018C4221DC47F60001C4F200018C42CE
:1032700031D047F60041C4F200018C423AD141F20C
:10328000E011C2F2000134E044F60041C4F2000152
:103290008C4225D045F20001C4F200018C4229D1B4
:1032A00040F6BC31C2F2000123E041F20001C4F259
:1032B00001018C4219D041F20041C4F201018C425B
:1032C00018D140F6C851C2F2000112E040F2985104
:1032D000C2F200010DE040F6D471C2F2000108E034
:1032E00040F6B011C2F2000103E040F28C31C2F2AC
:1032F0000001016001680271836080F80CE080F8D1
:103300000DC081F804C010BD80B50421002200BFAB
:1033100003685A540131B1F5827FF9D1417B0268CB
:103320001171017B07295BD8DFE801F0192B041923
:103330002B04043F90F84010002908BF80BD0021F5
:1033400000EB810212690368126803EB8103C3F882
:10335000052090F8402001319142F1D340E090F8EF
:103360004010E9B3002100BF00EB8102126903683D
:1033700012780B445A7190F8402001319142F3D3F6
:103380002EE090F8401059B3002100BF00EB8102FD
:1033900012690368128803EB4103A3F8052090F833
:1033A000402001319142F1D31AE090F84010B9B1B8
:1033B00000216FF0020200BF00EB81031B69D0F80F
:1033C00000C0D3F804E01B689444CCF80CE0CCF8BF
:1033D000083090F840300131994202F10802EBD3F5
:1033E00080BD000082B080B581B0CDE9032303AA7F
:1033F000009279B1009A00F10C0C131F8E4600BFA9
:1034000003F10802009253F8042FBEF1010E4CF8AC
:10341000042FF5D180F8401001B0BDE8804002B023
:103420007047000080ED110A7047000090ED110A0E
:1034300090ED121A90ED013A30EE410AB0EEC02A3A
:10344000B4EE432AF1EE10FA05DA9FED610A80ED41
:10345000111AB0EE402A90ED0E6A90ED083AB5EEE2
:10346000406AF1EE10FA02D1B7EE004A20E090ED8A
:103470000F5AB4EE452AF1EE10FA10DDB4EE425ABE
:10348000F1EE10FA0DDA36EE057AB4EE472AF1EED7
:1034900010FA06DA37EE424A84EE064A01E0B7EE49
:1034A000004AB4EE452AF1EE10FAA8BF9FED484A53
:1034B00090ED0C5AB5EE405AF1EE10FA18D090ED9E
:1034C000097AB1EE456A86EE076AD0ED130AF4EE8A
:1034D000460AF1EE10FA02DA80ED136A08E085EE92
:1034E000076AF4EE460AF1EE10FAC8BF80ED136ADF
:1034F00090ED105A20EE033AB5EE405AF1EE10FA74
:1035000004D0B4EE452AF1EE10FA5CDA90ED002A10
:1035100090ED136A24EE022A90ED095A22EE002A59
:1035200032EE062A80ED132A22EE054A017A142291
:1035300090ED0A2A90ED005A90ED076A002908BF25
:10354000182200EB020191ED007A08BFB0EE406A4C
:1035500036EE476A22EE062A82EE055A90ED046A9C
:1035600090ED112A33EE043A90ED0B7A32EE466A72
:1035700026EE076A33EE054A90ED0D3A34EE064A20
:10358000B5EE403AF1EE10FA80ED074A12D0B1EEF6
:10359000435AB4EE454AF1EE10FA02DA80ED075ACA
:1035A00008E0B4EE434AF1EE10FAB0EE435AC8BF59
:1035B00080ED075AC16980ED031A80ED042A41614C
:1035C00080ED060A70479FED024A0021C164ADE715
:1035D0000000000000F1200282EC060A00F138022F
:1035E00080EC023A82EC034A0172704790ED070AC0
:1035F0007047000080ED0A0A7047000080ED090A5C
:103600007047000080ED080A7047000080ED120A44
:10361000704700002DE9F04381B02DED088B82B09A
:10362000FDF798FEFEF750FFFEF7CCFDFEF794FD88
:10363000FEF76EFDFEF734FEFEF70EFEFEF70CFE03
:10364000FEF70EFF9FED598A0F20B0EE480AF0EE0C
:10365000480AFFF741F941F2F836C2F2000642F299
:103660009151C0F600013046FFF7AEF941F28455A2
:10367000C2F2000542F25971C0F6000128466422E8
:10368000FFF708FA41F2C468C2F2000840F20403EE
:10369000AB270624C2F20003404629460622CDE9A4
:1036A0000047FFF7B7FD41F2C8559FED412A9FED56
:1036B00041BAC2F20005B2EE049AB1EE08AA284659
:1036C000B0EE490AF0EE4A0AB0EE481AF0EE481A97
:1036D000F0EE422AB0EE4B3AF0EE483AB0EE484AED
:1036E000F0EE484AB0EE485A0021FFF773FF9FED15
:1036F000322A05F15000B0EE490AF0EE4A0AB0EE67
:10370000481AF0EE481AF0EE422AB0EE4B3AF0EECC
:10371000483AB0EE484AF0EE484AB0EE485A002126
:10372000FFF758FFDFED250AB7EE000A28463146BD
:1037300001220323FFF78AFC40F2843940F27C37F0
:1037400040F2883440F28036C2F20009C2F200072B
:10375000C2F20004C2F200062846FFF7ADFB28467D
:1037600089ED000AFFF7A0FB284687ED000AFFF766
:10377000A7FB284684ED000AFFF79AFB4046042188
:103780004A463B4686ED000ACDE90046FFF72AFE91
:103790004046FFF73DFD2846FFF700FCFFF76CF8B9
:1037A000FFF78EF80020FDF7DDFCD5E700000000F4
:1037B000DD7E3C426F12833A00401C45000080468B
:1037C0004100080218BF04200A0E18BF40F0010093
:1037D0004FF07F4232EA010108BF40F002000128A9
:1037E00008BF05207047000010B510EE100A2DED3F
:1037F000068BB7EE001A10EE901AB0EE418A002246
:10380000A0F5000CDFEDFE9A4FF00073BCF1FE4F07
:103810004FF07F4403EB410C80F0B481BCF1804F4A
:10382000C0F02082F74901449FEDF73AB1F5005FFF
:1038300040F2D48200F58021CB0C03F00F0101EEA1
:10384000901AC3F307137F3BA0EBC350B8EEE12AF5
:1038500000EE100A1A44DFEDED2AF0EE411A42EEB6
:10386000221AF0EE613A70EE232A30EE632A12EE4D
:10387000900A00F500606FF30B0001EE900A73EE02
:10388000E13A33EE804AC1EE223A22EE230A10EEEC
:10389000100A00F500606FF30B0000EE100A00EE56
:1038A000612A00EE442A62EE232A70EE221A21EEEB
:1038B000A12ADFEDD73A02EE233A23EE023A20EEB8
:1038C000012A22EE811A03EE211A32EE010A10EECD
:1038D000100A00F500606FF30B0000EE100A72EEA4
:1038E000401A31EE812A9FEDCB1A60EE011A9FED4E
:1038F000CA1A20EE011A9FEDC90A02EE001A31EE33
:10390000810A10EE100A00F500606FF30B0000EE64
:10391000100AC34871EEC01A31EE812A784400EBD8
:10392000C10090ED003AD0ED011A100101EE100A2D
:10393000F8EEC12A32EE211A31EE001A31EE031AE6
:1039400031EE221A11EE100A00F500606FF30B0041
:1039500009EE100A39EE621A31EE431A31EE400ACE
:1039600030EE610A32EE40AA10EE900A002100F516
:1039700000606FF30B0008EE900A084670EEE8AAAC
:103980004FF0000029EE280A00F00C01F0EEC00A0A
:1039900010EE900AB0F18B4F0DDD10EE900AB4EBF3
:1039A000400F08D310EE100A4FF08B4262F31E0056
:1039B00008EE900A13E069EE2A0A38EEAA1A4AEED7
:1039C000010A30EE201A11EE100A00F500606FF3C4
:1039D0000B0008EE900A30EE680A70EE209A0C2078
:1039E0004FF0000038EEA90AB5EEC00AF1EE10FA69
:1039F00034BFFEEE000AF6EE000A30EE800ABDEE9D
:103A0000C00A10EE100A011100EE101AF8EEC00AFA
:103A100000EE100AB8EEC00A38EEC00A30EE290AED
:103A2000DFED801A9FED801A00EE211ADFED7F1A7C
:103A30007F4900F00F0040EE011A21EE800A794420
:103A400001EB800191ED001A7A49794401EB800184
:103A5000D1ED001A784901EE801A794401EB80001B
:103A6000764990ED000A31EE001AB0EEE00A10EE51
:103A7000100A884215DA10EE100AB4EB400F10D38A
:103A80009FED6F0A30EE800ADFED6E0A20EE200A0D
:103A900068EE010ABDEC068BBCEEC00A20EE200ADF
:103AA00010BD10EE100A6849884243DA10EE100A81
:103AB000B4EB400F3ED3BDEEE00A68EE010A10EE13
:103AC000100A00EBD0725110C90501F17E5100EED1
:103AD000101AA0EB6200C00560EE200A00F17E50D3
:103AE00000EE100A60EE808A18EE900AB4EB400FE8
:103AF0000FD10220FCF7F1FC00F0BEF910EE101A15
:103B000018EE100ABDEC068B61F31E0000EE100AE1
:103B100010BD18EE900A400011D018EE900AFFF781
:103B20004FFE042808BF00F0AFF9B0EE680ABDEC04
:103B3000068B10BDF5EEC00AF1EE10FA0FD202208E
:103B4000FCF7CBFC00F0A0F910EE101A18EE100AEA
:103B5000BDEC068B61F31E0000EE100A10BD0220C2
:103B6000FCF7BBFC00F088F910EE101AB0EE480A22
:103B700010EE100ABDEC068B61F31E0000EE100A79
:103B800010BD00BFBCF1804F6CD300BF00F1FF43FC
:103B9000B3F1FE4F24D200BFB0EEC00A10EE100AFF
:103BA000C1F3C7537F2B0DDB972BBFF63BAEC3F1A1
:103BB00096034FF0010C0CFA03F3A3F1010C1CEA7D
:103BC000010F08D00120FCF788FCBDEC068BBDE896
:103BD000104000F049B90B4218BFBFEE008A21E641
:103BE00043001CBF4FF08073B3EB400F34D96FF02C
:103BF0001A02DFED161A20EE210A10EE100A27E055
:103C000000000000001080C0ABAAAA3E0000803D6A
:103C10007EE24C3E00B03842D49AB8BB3BAA384250
:103C2000A00D0000FC596337C9FF753A1872313D89
:103C30003E0D0000720D0000E20C00000000FC428E
:103C40000000FE420000004B000040430000004D19
:103C500010F0004FA0D1E5E5A0F50003B3F1FE4F51
:103C600021D2DFE503EB4103B3F1007F11D3F5EE81
:103C7000C00AF1EE10FA05D1430018BFB4EB400FB3
:103C800076D883E701F0004141F0FC5100EE901A34
:103C90007CE7B3F1807F06D210EE903AA3F50003E3
:103CA00000EE903A72E720F000426FF0FF4C604C5B
:103CB00002EB0C03A34210D321F000439C44A44523
:103CC0000BD3B0F17E5F18BF5FEA410C50D0B2F168
:103CD000FF4F98BFB3F1FF4F05D9BDEC068BBDE890
:103CE000104000F0BDB8B0F1FF4F0FD0C1F3C75284
:103CF0007F2A09DB972A11DAC2F19602012303FA1F
:103D000002F2531E0B4205D0002208E011F0004FD2
:103D100055D128E00A4218BF012200D1022210F535
:103D2000000F13D028B3B0F1004F26D010F1814F0F
:103D30004FD04FF0FE42B2EB400F94BF0120002065
:103D4000012202EBE171884239D10CE011F0004F01
:103D500002D0012A38D032E0012A02BF9FED350A95
:103D6000BDEC068B10BD9FED340ABDEC068B10BD7B
:103D70002FE011F0004F0CD121E0B1F1FF4F1ED028
:103D800011F5000F05D011F0004F15D00AB1012A2E
:103D900008D00220FCF7A1FBBDEC068BBDE810406B
:103DA00000F054B80220FCF798FB00F04FF8BDEC8F
:103DB000068BB1EE400A10BD0AB1012A04D0B0EE64
:103DC000690ABDEC068B10BDBDEC068B9FED1B0A8E
:103DD00010BDBDEC068BB7EE000A10BD30EE410AF7
:103DE000B5EE001A9FED172A00EE413AB6EE001A22
:103DF00060EE001A00EE431A61EEC11A9FED101A30
:103E000020EE011A20EE020A9FED0F2A01EE820A2F
:103E100071EE001A11EE900A00F500606FF30B00CE
:103E200009EE100A31EE491A31EE00AA9CE50000B5
:103E3000FFFF3F00000080FF0000807F0000008047
:103E400000B0B841D49A38BB3BAAB841DFED030AB1
:103E5000B7EE001A81EE200A704700000000000053
:103E600030EE200A70470000DFED020A80EEA00A63
:103E700070470000000000009FED020A20EE000ADB
:103E800070470000000000709FED020A20EE000A5B
:103E9000704700000000001021F0004201F00043D4
:103EA000A2F16052B2F5801F28BFD2F17F6C0BD90E
:103EB0005FEA001C43EAC20242EB507018BF704731
:103EC00028BF20F001007047B2F5801FBCBF184624
:103ED00070474FEA410C1CF5001F02D2084600F063
:103EE000E9BB70B500F025FA00000089FFF7F6BFC6
:103EF0004FF00040A0F580007047000010B591EA37
:103F0000030F48BF83F0004300F17082841A71EB05
:103F1000030C05D2121943EB0C03001B61EB0C01DF
:103F20004FEA1154A4EB135CDFF81CE11EEA430FC7
:103F300018BF9EEA445F00F0748021EA045123EA2E
:103F40000E0343F48013DCF1200E32D322FA0CFE70
:103F500010EB0E0023FA0CFE41EB0E01CCF1200E0B
:103F600003FA0EFE10EB0E00CCF1200E51F1000111
:103F7000B1F5801F32D201EB045112FA0EF2BDE806
:103F8000104058BF7047401C38BF5FEA420218BF5C
:103F90007047002814BF20F0010041F100014FEAF2
:103FA000410313F5001F38BF7047A1F1C04100F075
:103FB0000EBA012A43EB0302ACF1200CDCF11F0E18
:103FC00032BF4FF0000E23FA0CF310EB030041EB6D
:103FD0000451B4EB115FD0D0A1EB045101F5801175
:103FE000490801EB04515FEA30000ED350F10000A4
:103FF00038BF12FA0EFE08D1BDE81040C9E7401CD8
:1040000038BF5FEA4202CAD1C3E7BDE810404FEAB9
:10401000410313F5001F38BF7047A1F1C04100F004
:10402000D6B99EEA445F08D011EA5E0FBDE81040A1
:1040300004BF01F0004100207047BDE8104070B59A
:1040400000F077F964FBBE3E0000E0FF2DE9C041BF
:1040500030B4DFF8A8C23CEA111418BF3CEA1314CC
:1040600000F0F0801CEA111481EA030544EAD574DB
:1040700018BF1CEA131500F0CB80A4EB050404F173
:104080007F7404F500344FF0004545EAC12145EA4C
:10409000C32341EA505143EA52534FEAC0204FEA4A
:1040A000C222994208BF904200F0A0804FEA1365F7
:1040B0000FF24816765D4FEA134506FB05F7C7F188
:1040C000807706FB07F74FEAD737A7FB03687642EE
:1040D000A7FB06CEC8F5803838BFA8F1010807FB5A
:1040E00008E6A6FB028C4FF0000EE6FB03CED8F1EB
:1040F00000086FEA0C0C5CF1000C6FEA0E0E4EF13A
:10410000004EA6FB0C584FF00007E6FB0E87A1FB04
:1041100008C6A0FB07CE16EB0E064FF0000545F1D2
:104120000005E1FB076515F1E04E7EBFA4F5803484
:104130005FEA46066D4116F1800745F100054FEA3A
:10414000172747EA05674FEA15254FEA0666A6F1E5
:10415000DE46B6F1805F20D9384605EBC47124F005
:10416000010C01EB0C11BCF1FE6F02D8F0BCBDE8F4
:10417000008124425CBF01F5801E9EEAC47F02D408
:10418000F0BCBDE80081244200F13980A1F1C041BA
:10419000F0BCBDE8004100F01AB94FEAD02040EA77
:1041A00041504FEAD1214FEAD22242EA43524FEA2C
:1041B000D323A7FB028607FB036605FB02661EEA04
:1041C0000E0F58BFA6EB0056B6EB00564FEA520E44
:1041D0004EEAC37E18EB0E0E56EB530EBCD518EB11
:1041E00002085E417F1C55F10005B5E74FF48015CC
:1041F0004FF000074FF000064FF00008ACE701F168
:10420000C04101F000414FF00000F0BCBDE800816A
:104210000CEA131511EA0C1F00D00CE013EA0C1F76
:1042200000F025804FF0000081EA030101F0004119
:10423000F0BCBDE80081F0BCBDE8004181EA0301AB
:1042400000F0C5B8F0BCBDE8004170B500F071F8F1
:10425000097EFC3E00F007B84FF0000081EA030140
:1042600001F00041704781EA030100F0B0B8F0BCF2
:10427000BDE8004122494FF000007047FFFDFBF907
:10428000F7F5F4F2F0EEEDEBE9E8E6E4E3E1E0DE89
:10429000DDDBDAD8D7D5D4D3D1D0CFCDCCCBCAC8FB
:1042A000C7C6C5C4C2C1C0BFBEBDBCBBBAB9B8B722
:1042B000B6B5B4B3B2B1B0AFAEADACABAAA9A8A815
:1042C000A7A6A5A4A3A3A2A1A09F9F9E9D9C9C9BE3
:1042D0009A9999989797969595949393929191908E
:1042E0008F8F8E8E8D8C8C8B8B8A8989888887871F
:1042F0008685858484838382828181800000FF0794
:104300000000F87F10F0004248BF4042B0FA80F34E
:1043100010FA03F10AD0C3F11D0303F5806302EB29
:1043200003524FEA415002EBD12170474FF0000099
:1043300070470EF1020E2EF0030E5EF8046B36424B
:1043400005D4012A43EB030515F5001F12D80128F7
:1043500041EB010C1CF5001F0CD80ED14FEAD17CAB
:104360000CEB4C0C0CF1020C15F5001F08BF4CEBCC
:10437000D37C04E04FF0080C01E04FEAD37C0CEB57
:104380004C0526FA05F606F00706B6F1040C06D22F
:104390000EEB860CBDE870404CF0010C6047DFE886
:1043A0000CF0090B02024FF00041A1F500214FF083
:1043B000000070BD19461046012851EB010418BFDA
:1043C000D4F5001484BF002001F0004170BD08083E
:1043D000A0F500114FEA31017047000010B591EAD5
:1043E000030F48BF83F000433FF590AD841A71EB93
:1043F000030C07D28CF0004C121943EB0C03001B8A
:1044000061EB0C014FEA1154A4EB135CDFF8A4E15B
:104410001EEA430F18BF9EEA445F00F0B48021EA11
:10442000045123EA6E035242C3EB6E0338BF5B1E96
:10443000DCF1200E25D322FA0CFE10EB0E0043FA1D
:104440000CFE41EB0E01CCF1200E03FA0EFE10EB38
:104450000E00CCF1200E51F1000129D401EB0451E2
:1044600012FA0EF2BDE8104058BF7047401C1CBF46
:10447000B2F1004F704700280CBF491C20F001002A
:10448000704712EB020E43EB030218BF4FF0010E10
:104490004EEA4202ACF1200CDCF11E0E56D943FA72
:1044A0000CFE10EB0E00CCF11E0E51F1FF31D5D5F4
:1044B0000EF1010E12FA0EFE404141EB010101EB3B
:1044C000445C5FEA5C5C10D901EB045110EBDE70D8
:1044D00038BFBEF1004FBDE8104018BF704700283C
:1044E0000CBF491C20F00100704734D24FEAD42C95
:1044F00024F4006411F500111BD0B1FA81F20B3ADB
:10450000A41AA41ED2F12003914030FA03F31943F8
:10451000904001EBCC7101EB0451002CBDE8104040
:10452000A8BF704701F1C04101F000414FF0000009
:104530007047B0FA80F310FA03F102D1BDE81040E1
:104540007047E41A173C4805C90AE2E701EB045139
:10455000BDE81040704749104FEA300001EB0451AC
:10456000BDE8104002E04FF0000170474A0008BF6C
:104570000042F8D0B2F5001F28BF704701F000419B
:104580004FF0000070479EEA445F07D011EA5E0FCB
:10459000BDE8104004BF002100207047BDE8104076
:1045A00070B5FFF7C6FE00BF40DFF63E104683F051
:1045B000004170470000E0FF43004FEAD30C4FEA90
:1045C0003C0C43401FBF40070CF1605113F0FE4FFD
:1045D00070471CF0006F03D10CF0004100207047C1
:1045E0000CF0004343EA507040EACC0010B500F0F4
:1045F0000EF800BF000000924FEA0001FFF7E7BE8F
:104600004FF00041A1F500214FF0000070470EF17E
:10461000020E2EF0030E5EF8044B244204D44FEA3F
:104620004102B2F17F4F11D84FEA4003B3F17F4FFF
:104630000CD80ED14FEAD07C0CEB4C0C0CF1020CD8
:10464000B2F17F4F08BF4CEBD17C04E04FF0080C77
:1046500001E04FEAD17C0CEB4C0324FA03F404F0A4
:104660000704B4F1040C06D20EEB840CBDE8104034
:104670004CF0010C6047DFE80CF0070802024FF035
:104680000040A0F5800010BD0846420018BFD2F1DE
:10469000807288BF00F0004010BDF1EE100A4FF6A6
:1046A000FF71C0F2C03120EA010040F04070E1EE3D
:1046B000100A7047FF2141EAD050C0057047000042
:1046C00000000000000000000000B33FB2BE7D3AD1
:1046D00000002E40DFCF513800007E40BF51FABAB3
:1046E00000E0A44019DAC3BA00E0C840C2ED8AB9BC
:1046F0000040EB40CD1F2CBA001006412AFFFABA49
:1047000000C01541DFCFD13700D024419A97703ACD
:104710000050334189478E3600404141E75B9D3868
:1047200000B04E41C00A98B900A05B41558F943A41
:1047300000306841DA92C0BA0040744162B3C63AB0
:104740000000803F00A0853F00908B3F00C0913F5C
:104750000030983F00F09E3F00F0A53F0050AD3F75
:104760000000B53F0000BD3F0060C53F0020CE3FC8
:104770000040D73F00C0E03F00C0EA3F0020F53FC7
:10478000000000007D36AC397D3C3839EBDCF43874
:10479000320A7E39124C26399B6AED39A4EE8339F0
:1047A0007F661E39F6398A392B426539A482113960
:1047B0005B991F39C3EECD39DDE7C637A5A22F3986
:1047C0000000803FC3AA853FC2958B3FD3C3913F72
:1047D000F037983F32F59E3FD7FEA53F3F58AD3F9B
:1047E000F304B53FA408BD3F2A67C53F8C24CE3FE4
:1047F000FD44D73FDFCCE03FC7C0EA3F7D25F53F12
:10480000D2020020D4020020D6020020C8020020DC
:10481000CA020020CC020020CE020020D8020020D4
:10482000DA020020DC02002000000000000000008E
:104830000102030406070809000000000102030446
:104840000006101600061016704800080000002030
:10485000680200001002000890480008680200206A
:10486000A81A00005002000855DBFFFF00000000FE
:1048700007630024F400706103636961036364618A
:104880000363706F0363696F0363646F4201821097
:04000005080001AD41
:00000001FF
