:020000040800F2
:1000000000000320711A0008F9080008FB08000826
:10001000FD080008FF0800080109000800000000B2
:1000200000000000000000000000000003090008BC
:100030000509000800000000070900080909000878
:10004000C11A0008C11A0008C11A0008C11A000824
:10005000C11A0008C11A0008C11A0008C11A000814
:10006000C11A0008C11A0008C11A0008C11A000804
:10007000C11A0008C11A0008C11A0008C11A0008F4
:10008000C11A0008C11A0008C11A0008C11A0008E4
:10009000C11A0008C11A0008C11A0008C11A0008D4
:1000A000C11A0008C11A0008C11A0008C11A0008C4
:1000B000C11A0008C11A0008C11A0008C11A0008B4
:1000C000C11A0008C11A0008C11A0008C11A0008A4
:1000D000C11A0008C11A000811090008C11A000855
:1000E000C11A0008C11A0008C11A0008C11A000884
:1000F000C11A0008C11A0008C11A0008C11A000874
:10010000C11A0008C11A0008C11A0008C11A000863
:10011000C11A0008C11A0008C11A0008C11A000853
:10012000C11A0008C11A0008C11A0008C11A000843
:10013000C11A0008C11A0008C11A0008C11A000833
:10014000C11A0008C11A0008C11A0008C11A000823
:10015000C11A0008C11A0008C11A0008C11A000813
:10016000C11A0008C11A0008C11A0008C11A000803
:10017000C11A0008C11A0008C11A000800000000D6
:10018000C11A0008C11A0008C11A0008C11A0008E3
:10019000C11A0008C11A0008C11A0008C11A0008D3
:0C01A0000000000000000000C11A000870
:1001AC000348044B834202D0034B03B118477047FA
:1001BC000C0000200C00002000000000054806493F
:1001CC000B1AD90F01EBA301491002D0034B03B159
:1001DC00184770470C0000200C00002000000000A5
:1001EC0010B5064C237843B9FFF7DAFF044B13B173
:1001FC000448AFF300800123237010BD0C000020D5
:10020C0000000000C41A000808B5044B1BB10449D7
:10021C000448AFF30080BDE80840CFE700000000C1
:10022C0010000020C41A000870B50D4E0D4D761B41
:10023C00B61006D0002455F8043B01349847A6426A
:10024C00F9D1094E094D761B01F036FCB61006D0DB
:10025C00002455F8043B01349847A642F9D170BDEF
:10026C00FC1A0008FC1A0008001B0008FC1A000805
:10027C00830730B548D0541E002A3FD0CAB203467B
:10028C0001E0013C3AD303F8012B9D07F9D1032C73
:10029C002DD9CDB245EA05250F2C45EA054536D9B1
:1002AC00A4F1100222F00F0C03F1200EE6444FEAE9
:1002BC00121C03F1100242E9045542E902551032B6
:1002CC007245F8D10CF1010214F00C0F03EB021281
:1002DC0004F00F0C13D0ACF1040323F0030304332C
:1002EC00134442F8045B9342FBD10CF003042CB191
:1002FC00CAB21C4403F8012B9C42FBD130BD6446AE
:10030C001346002CF4D1F9E703461446BFE71A460E
:10031C00A446E0E753B94AB9002908BF00281CBF1E
:10032C004FF0FF314FF0FF3000F074B9ADF1080C15
:10033C006DE904CE00F006F8DDF804E0DDE90223F7
:10034C0004B070472DE9F047089D04468E46002BFB
:10035C004DD18A42944669D9B2FA82F252B101FA6D
:10036C0002F3C2F1200120FA01F10CFA02FC41EA7D
:10037C00030E94404FEA1C48210CBEFBF8F61FFA02
:10038C008CF708FB16E341EA034306FB07F199429D
:10039C000AD91CEB030306F1FF3080F01F81994250
:1003AC0040F21C81023E63445B1AA4B2B3FBF8F02A
:1003BC0008FB103344EA034400FB07F7A7420AD9B1
:1003CC001CEB040400F1FF3380F00A81A74240F2D9
:1003DC0007816444023840EA0640E41B00261DB144
:1003EC00D4400023C5E900433146BDE8F0878B4279
:1003FC0009D9002D00F0EF800026C5E90001304638
:10040C003146BDE8F087B3FA83F6002E4AD18B4211
:10041C0002D3824200F2F980841A61EB03030120BB
:10042C009E46002DE0D0C5E9004EDDE702B9FFDEA7
:10043C00B2FA82F2002A40F09280A1EB0C014FEA52
:10044C001C471FFA8CFE0126200CB1FBF7F307FBAF
:10045C00131140EA01410EFB03F0884208D91CEB52
:10046C00010103F1FF3802D2884200F2CB804346EF
:10047C00091AA4B2B1FBF7F007FB101144EA0144CE
:10048C000EFB00FEA64508D91CEB040400F1FF315D
:10049C0002D2A64500F2BB800846A4EB0E0440EA4B
:1004AC0003409CE7C6F12007B34022FA07FC4CEA54
:1004BC00030C20FA07F401FA06F31C43F9404FEA47
:1004CC001C4900FA06F3B1FBF9F8200C1FFA8CFE5C
:1004DC0009FB181140EA014108FB0EF0884202FAB0
:1004EC0006F20BD91CEB010108F1FF3A80F0888071
:1004FC00884240F28580A8F102086144091AA4B22E
:10050C00B1FBF9F009FB101144EA014100FB0EFEAE
:10051C008E4508D91CEB010100F1FF346CD28E45DD
:10052C006AD90238614440EA0840A0FB0294A1EB6E
:10053C000E01A142C846A64656D353D05DB1B3EBCB
:10054C00080261EB0E0101FA07F722FA06F3F140FB
:10055C001F43C5E9007100263146BDE8F087C2F1A2
:10056C002003D8400CFA02FC21FA03F3914001431A
:10057C004FEA1C471FFA8CFEB3FBF7F007FB103653
:10058C000B0C43EA064300FB0EF69E4204FA02F4FF
:10059C0008D91CEB030300F1FF382FD29E422DD952
:1005AC00023863449B1B89B2B3FBF7F607FB163387
:1005BC0041EA034106FB0EF38B4208D91CEB010107
:1005CC0006F1FF3816D28B4214D9023E6144C91A87
:1005DC0046EA004638E72E46284605E70646E3E697
:1005EC001846F8E64B45A9D2B9EB020864EB0C0EA1
:1005FC000138A3E74646EAE7204694E74046D1E7B0
:10060C00D0467BE7023B614432E7304609E764445D
:10061C00023842E7704700BF10B5354C80212046A8
:10062C0001F09CF8642001F0FFF9012280212046A2
:10063C0001F09BF8642001F0F7F94021204601F00D
:10064C008DF8642001F0F0F901224021204601F0E0
:10065C008CF8642001F0E8F92021204601F07EF8A6
:10066C00642001F0E1F901222021204601F07DF8FF
:10067C00642001F0D9F91021204601F06FF86420B4
:10068C0001F0D2F901221021204601F06EF864200D
:10069C0001F0CAF90821204601F060F8642001F04D
:1006AC00C3F901220821204601F05FF8642001F013
:1006BC00BBF90421204601F051F8642001F0B4F993
:1006CC0001220421204601F050F8642001F0ACF91D
:1006DC000221204601F042F8642001F0A5F9012224
:1006EC000221204601F041F8642001F09DF910BD73
:1006FC000018024072B6FEE700B595B0302200211A
:10070C0008A8FFF7B5FD0023039304930593069304
:10071C0007930193224A116C41F080511164126CC1
:10072C0002F080520192019A02931E4A116841F420
:10073C0040411160126802F440420292029A022275
:10074C00089201210B9110210C910E920F9308230A
:10075C001093B423119312920423139308A800F05E
:10076C00DBFBB0B901F064F8A8B90F2303930223A3
:10077C000493002305934FF4A05306934FF4805336
:10078C000793052103A800F015FE30B915B05DF8EC
:10079C0004FBFFF7AFFFFFF7ADFFFFF7ABFF00BFA9
:1007AC00003802400070004008B501F011F9FFF765
:1007BC00A3FF00F005F800F041F8FFF72DFFFCE770
:1007CC0030B589B0002403940494059406940794DE
:1007DC000094184B1A6B42F001021A631A6B02F068
:1007EC0001020092009A01941A6B42F008021A63FB
:1007FC001A6B02F008020192019A02941A6B42F0F1
:10080C0040021A631B6B03F040030293029B0A4DD8
:10081C002246FE21284600F0A8FFFE230393012365
:10082C0004930594069403A9284600F099FE09B098
:10083C0030BD00BF003802400018024008B50A481D
:10084C000A4B03604FF4E133436000238360C360C1
:10085C0003610C2242618361C36100F05DF900B950
:10086C0008BDFFF747FFFBE72800002000440040CD
:10087C0010B588B000230393049305930693079354
:10088C000268184B9A4201D008B010BD00240194A4
:10089C0003F5FA331A6C42F400321A641A6C02F43F
:1008AC0000320192019A02941A6B42F008021A6308
:1008BC001B6B03F008030293029B60230393022338
:1008CC000493032306930723079303A9064800F018
:1008DC0047FE22462146262000F0FAFF262001F092
:1008EC002FF8D1E700440040000C0240FEE7FEE781
:1008FC00FEE7FEE7FEE770477047704708B501F06A
:10090C0081F808BD08B5024800F0C2F908BD00BF67
:10091C002800002082B0002100910B4B5A6C42F44D
:10092C0080425A645A6C02F480420092009A0191FF
:10093C001A6C42F080521A641B6C03F080530193C2
:10094C00019B02B0704700BF00380240026802F100
:10095C000C0353E8003F23F490730C3242E800314F
:10096C000029F3D1026802F1140353E8003F23F08D
:10097C000103143242E800310029F3D1036B012B3F
:10098C0005D0202380F842300023036370470268AF
:10099C0002F10C0353E8003F23F010030C3242E841
:1009AC0000310029F3D1ECE790F84130DBB2212B78
:1009BC0001D0022070478368B3F5805F17D0036ABB
:1009CC005A1C02621A7803685A60C38C9BB2013BB2
:1009DC009BB2C3844BB90268D36823F08003D36005
:1009EC000268D36843F04003D3600020704703696A
:1009FC00002BE4D1036A1B880268C3F3080353601D
:100A0C00036A02330362E0E738B5044602681369EF
:100A1C0023F44053C1680B43136183680269134389
:100A2C0042691343C2691A430168CB6823F4164325
:100A3C0023F00C031343CB600268536923F4407317
:100A4C0081690B4353610368314A934206D002F526
:100A5C008062934202D000F063FD01E000F070FD73
:100A6C00E369B3F5004F29D00021031849411B1845
:100A7C0041F10001C90041EA5371DB0018186368A9
:100A8C004FEA83024FEA937341F10001FFF742FCF6
:100A9C00204DA5FB00325109642303FB11031B01FC
:100AAC003233A5FB03235B0903F0F00202EB0112C6
:100ABC0003F00F03216813448B6038BD0023021828
:100ACC0043EB0301121841F10001C90041EA5271D4
:100ADC00D200101841F10001626892185B41FFF7D7
:100AEC0019FC0C4DA5FB00325109642303FB1103C7
:100AFC00DB003233A5FB03235B095A0002F4F872C6
:100B0C0002EB011203F00703216813448B60D4E756
:100B1C00001001401F85EB5160B310B5044690F8EE
:100B2C00413013B3242384F841302268D36823F472
:100B3C000053D3602046FFF767FF2268136923F444
:100B4C00904313612268536923F02A03536122688E
:100B5C00D36843F40053D36000206064202384F8EE
:100B6C00413084F84230606310BD80F84030FFF7AC
:100B7C007FFED7E701207047704708B50168CA6847
:100B8C0022F04002CA60202280F84120FFF7F4FFD7
:100B9C00002008BD7047704708B5806B0023C385E3
:100BAC00C384FFF7F8FF08BD704790F84230DBB202
:100BBC00222B69D18368B3F5805F4FD0826AB3F57D
:100BCC00805F04D0002B56D10369002B53D10368EE
:100BDC005B681370836A01338362C38D9BB2013BE4
:100BEC009BB2C385002B51D100B583B00268D3688A
:100BFC0023F02003D3600268D36823F48073D3609E
:100C0C000268536923F001035361202380F84230BA
:100C1C0000234363036B012B33D10023036302686E
:100C2C0002F10C0353E8003F23F010030C3242E8AE
:100C3C0000310029F3D103681A6812F0100F06D0A6
:100C4C00002201921A6801925B680193019B818DCD
:100C5C00FFF7AAFF002003B05DF804FB0269002A2D
:100C6C00ACD1826A03685B68C3F308031380836AA0
:100C7C0002338362B1E703685B6803F07F03137090
:100C8C00A8E7FFF787FFE5E70220704700207047D1
:100C9C0030B583B0044602681368D068516913F00C
:100CAC000F0505D113F0200F02D010F0200F19D131
:100CBC002DB111F0010119D110F4907F16D1216BD7
:100CCC0001297DD013F0800F03D010F0800F40F07D
:100CDC00198113F0400F03D010F0400F40F0168133
:100CEC0003B030BD2046FFF760FFF9E713F0010FAA
:100CFC0006D010F4807F03D0626C42F00102626473
:100D0C0013F0040F04D019B1626C42F00202626459
:100D1C0013F0020F04D019B1626C42F00402626449
:100D2C0013F0080F07D010F0200F00D119B1626C2E
:100D3C0042F008026264626C002AD1D013F0200FDA
:100D4C0002D010F0200F29D123685B6903F0400317
:100D5C00626C12F0080F00D163B32046FFF7F6FD6A
:100D6C0023685B6913F0400F20D0226802F1140352
:100D7C0053E8003F23F04003143242E800310029CD
:100D8C00F3D1E36B73B1634A1A65E06B00F03DFD80
:100D9C000028A5D0E06B036D9847A1E72046FFF72C
:100DAC0004FFD1E72046FFF7F6FE99E72046FFF750
:100DBC00F2FE95E72046FFF7EEFE002363648FE713
:100DCC0013F0100F3FF47EAF10F0100F3FF47AAF1A
:100DDC00002301931368019353680193019B53699A
:100DEC0013F0400F52D0E26B13685B689BB2002B80
:100DFC003FF476AFA18D99427FF672AFE385D3694C
:100E0C00B3F5807F37D0226802F10C0353E8003F22
:100E1C0023F480730C3242E800310029F3D12268AC
:100E2C0002F1140353E8003F23F00103143242E8AB
:100E3C0000310029F3D1226802F1140353E8003F7A
:100E4C0023F04003143242E800310029F3D120236F
:100E5C0084F8423000232363226802F10C0353E828
:100E6C00003F23F010030C3242E800310029F3D18B
:100E7C00E06B00F080FC02236363A18DE38D9BB2D9
:100E8C00C91A89B22046FFF78FFE29E7A18DE38DA1
:100E9C009BB2C91A89B2E38D9BB2002B3FF420AFF1
:100EAC0000293FF41DAF226802F10C0353E8003F08
:100EBC0023F490730C3242E800300028F3D12268FE
:100ECC0002F1140353E8003F23F00103143242E80B
:100EDC0000300028F3D1202384F842300023236310
:100EEC00226802F10C0353E8003F23F010030C328C
:100EFC0042E800300028F3D1022363632046FFF759
:100F0C0053FEEDE62046FFF74FFDE9E62046FFF7DE
:100F1C0034FEE5E6A50B0008002800F0E08170B572
:100F2C0082B00446036813F0010F3BD09F4B9B68C3
:100F3C0003F00C03042B2CD09C4B9B6803F00C038C
:100F4C00082B21D06368B3F5803F4FD0B3F5A02FA9
:100F5C0052D0964B1A6822F480321A601A6822F426
:100F6C0080221A606368002B50D000F057FD0546B4
:100F7C008E4B1B6813F4003F14D100F04FFD401B47
:100F8C006428F5D90320B1E1884B5B6813F4800F1A
:100F9C00D8D0864B1B6813F4003F03D06368002B3A
:100FAC0000F09F81236813F0020F54D07F4B9B6895
:100FBC0013F00C0F3ED07D4B9B6803F00C03082BF9
:100FCC0033D0E368002B68D0794B01221A6000F013
:100FDC0025FD0546754B1B6813F0020F54D100F02C
:100FEC001DFD401B0228F5D903207FE16F4A1368D1
:100FFC0043F480331360B5E76C4B1A6842F48022DB
:10100C001A601A6842F480321A60ABE700F006FDF1
:10101C000546664B1B6813F4003FC3D000F0FEFC82
:10102C00401B6428F5D9032060E1604B5B6813F426
:10103C00800FC6D15D4B1B6813F0020F03D0E36821
:10104C00012B40F05081594A136823F0F8032169B1
:10105C0043EAC1031360236813F0080F42D063699D
:10106C006BB3534B0122C3F8802E00F0D7FC05461E
:10107C004E4B5B6F13F0020F34D100F0CFFC401BD2
:10108C000228F5D9032031E1484A136823F0F8030C
:10109C00216943EAC1031360DDE7454B00221A6066
:1010AC0000F0BCFC0546414B1B6813F0020FD2D07C
:1010BC0000F0B4FC401B0228F5D9032016E13C4B90
:1010CC000022C3F8802E00F0A9FC0546374B5B6F5D
:1010DC0013F0020F06D000F0A1FC401B0228F5D93A
:1010EC00032003E1236813F0040F77D02F4B1B6C04
:1010FC0013F0805F33D1002301932C4B1A6C42F018
:10110C0080521A641B6C03F080530193019B0125E0
:10111C00284B1B6813F4807F23D0A368012B34D099
:10112C00052B38D0214B1A6F22F001021A671A6F67
:10113C0022F004021A67A368002B3DD000F06EFC6D
:10114C0006461A4B1B6F13F0020F46D100F066FCDB
:10115C00801B41F288339842F3D90320C6E0002566
:10116C00D6E7144A136843F48073136000F056FCFE
:10117C000646104B1B6813F4807FCED100F04EFC5A
:10118C00801B0228F5D90320B0E0084A136F43F006
:10119C0001031367CFE7054B1A6F42F004021A677D
:1011AC001A6F42F001021A67C5E700BF003802400F
:1011BC00000047420070004000F030FC0646524BE5
:1011CC001B6F13F0020F08D000F028FC801B41F2BB
:1011DC0088339842F3D9032088E0EDB9A369002B3A
:1011EC0000F08380484A926802F00C02082A51D021
:1011FC00022B17D0454B00221A6600F00FFC044658
:10120C00414B1B6813F0007F42D000F007FC001B21
:10121C000228F5D9032069E03B4A136C23F0805374
:10122C001364DBE7394B00221A6600F0F7FB054626
:10123C00354B1B6813F0007F06D000F0EFFB401B12
:10124C000228F5D9032051E0E369226A1343626A4C
:10125C0043EA8213A26A5208013A43EA0243E26A61
:10126C0043EA0263284A5360284B01221A6600F0B5
:10127C00D5FB0446244B1B6813F0007F06D100F00D
:10128C00CDFB001B0228F5D903202FE000202DE018
:10129C0000202BE0012B2BD01B4B5B6803F480014F
:1012AC00E269914226D103F03F02216A8A4223D19E
:1012BC00616A47F6C0721A40B2EB811F1ED103F46B
:1012CC004031A26A5208013AB1EB024F18D103F037
:1012DC007063E26AB3EB026F14D1002006E00120C8
:1012EC007047012002E0012000E0002002B070BD38
:1012FC000120FBE70120F9E70120F7E70120F5E7E2
:10130C000120F3E70120F1E70038024000004742DA
:10131C0008B5254B9B6803F00C03042B3FD0082B1E
:10132C003FD1214B5A6802F03F025B6813F4800FE7
:10133C0012D01D4B5968C1F388111C480023A1FB26
:10134C000001FEF7E7FF184B5B68C3F30143013361
:10135C005B00B0FBF3F025E0134B5968C1F3881C1C
:10136C004FEA4C11B1EB0C006EEB0E0E4FEA8E13E4
:10137C0043EA90638101091A63EB0E03DB0043EA35
:10138C005173C90011EB0C0C43F1000399020023BB
:10139C004FEA8C2041EA9C51FEF7BCFFD3E703488F
:1013AC0000E0034808BD00BF0038024040787D01D2
:1013BC000024F400002800F09B8070B50D46044614
:1013CC004F4B1B6803F00F038B4208D2CBB24C4A35
:1013DC001370136803F00F038B4240F08B8023686B
:1013EC0013F0020F17D013F0040F04D0454A936882
:1013FC0043F4E0539360236813F0080F04D0414A80
:10140C00936843F4604393603E4A936823F0F0037F
:10141C00A1680B439360236813F0010F32D063680B
:10142C00012B21D09A1E012A25D9364A126812F0B6
:10143C00020F61D033498A6822F0030213438B6098
:10144C0000F0ECFA06462F4B9B6803F00C03626825
:10145C00B3EB820F16D000F0E1FA801B41F2883317
:10146C009842F0D9032042E0264A126812F4003F59
:10147C00E0D101203BE0234A126812F0007FD9D161
:10148C00012034E01E4B1B6803F00F03AB4207D95D
:10149C00EAB21B4B1A701B6803F00F03AB422DD141
:1014AC00236813F0040F06D0164A936823F4E05314
:1014BC00E1680B439360236813F0080F07D0114ABF
:1014CC00936823F46043216943EAC1039360FFF7F7
:1014DC001FFF0C4B9B68C3F303130B4AD35CD84020
:1014EC000A4B18600A4B186800F04CFA002070BDCB
:1014FC00012070470120FAE70120F8E70120F6E708
:10150C00003C024000380240DC1A000808000020B1
:10151C0004000020014B1868704700BF0800002031
:10152C0008B5FFF7F7FF044B9B68C3F38223034A0C
:10153C00D35CD84008BD00BF00380240EC1A00084C
:10154C0008B5FFF7E7FF044B9B68C3F34233034A2C
:10155C00D35CD84008BD00BF00380240EC1A00082C
:10156C0000230F2B00F2F18070B582B061E085682A
:10157C005E000324B44025EA0405CC68B4402C4337
:10158C008460456825EA02054C68C4F300129A4051
:10159C002A4342605BE0DC08083450F8246003F016
:1015AC00070295000F22AA4026EA020E0A69AA40F9
:1015BC0042EA0E0240F824205DE0092200E00022FD
:1015CC0002FA0EF22A430234604D45F82420604A98
:1015DC0094686FEA0C0224EA0C054E6816F4801F1E
:1015EC0001D04CEA04055A4CA560E46802EA0405F3
:1015FC004E6816F4001F01D04CEA0405544CE5600B
:10160C00646802EA04054E6816F4003F01D04CEA07
:10161C0004054F4C6560246822404D6815F4803FEA
:10162C0001D04CEA04024A4C226001330F2B00F229
:10163C008A8001229A400C6804EA020C32EA040403
:10164C00F3D14C6804F00304013C012C8FD94A6897
:10165C0002F00302032A09D0C4685D000322AA40E9
:10166C0024EA02048A68AA402243C2604A6802F053
:10167C000302022A8FD004684FEA430E032202FAB7
:10168C000EF224EA02044A6802F0030202FA0EF295
:10169C00224302604A6812F4403FC6D000220192F5
:1016AC002C4A546C44F480445464526C02F48042CE
:1016BC000192019A9C08A51C244A52F8255003F06B
:1016CC0003024FEA820E0F2202FA0EF225EA0205FD
:1016DC00214A90423FF473AF02F58062904222D0CF
:1016EC0002F58062904220D002F5806290421ED0BA
:1016FC0002F5806290421CD002F5806290421AD0B2
:10170C0002F58062904218D002F58062904216D0A9
:10171C0002F58062904214D002F5806290423FF450
:10172C004CAF0A224CE701224AE7022248E7032287
:10173C0046E7042244E7052242E7062240E7072257
:10174C003EE708223CE702B070BD7047003801400C
:10175C00003C01400038024000000240036919427D
:10176C0001D001207047002070470AB18161704799
:10177C0009048161704770B50446866D00F04EF91E
:10178C0094F83530DBB2022B06D08023636500233E
:10179C0084F83430012070BD05462268136823F0AC
:1017AC00160313602268536923F080035361236C82
:1017BC00E3B12268136823F00803136022681368EE
:1017CC0023F00103136023681B6813F0010F11D081
:1017DC0000F024F9431B052BF5D920236365032066
:1017EC0084F83500002384F83430D4E7A36C002B44
:1017FC00DFD1E3E7E26D3F239340B360012384F82C
:10180C003530002084F83400C5E790F83530DBB271
:10181C00022B03D08023436501207047052380F8F9
:10182C0035300268136823F0010313600020704701
:10183C0010B582B000230193194B1A6C42F0805200
:10184C001A641B6C03F080530193019B154B01220E
:10185C001A6400F0E3F80446134B5B6813F4803F02
:10186C0008D100F0DBF8001BB0F57A7FF4D9032027
:10187C0002B010BD0B4B01225A6400F0CFF80446A5
:10188C00094B5B6813F4003F07D100F0C7F8001B4D
:10189C00B0F57A7FF4D90320EAE70020E8E700BF2F
:1018AC000038024000000E4200700040074AD36826
:1018BC0023F4E0631B041B0C000200F4E060034300
:1018CC0043F0BF6343F40033D360704700ED00E096
:1018DC0000B5194BDB68C3F30223C3F1070CBCF151
:1018EC00040F28BF4FF0040C03F1040EBEF1060FD9
:1018FC0018D9033B4FF0FF3E0EFA0CFC21EA0C0109
:10190C0099400EFA03F322EA0303194300280BDB78
:10191C000901C9B200F1604000F5614080F8001384
:10192C005DF804FB0023E5E700F00F000901C9B2E4
:10193C00024B1954F4E700BF00ED00E014ED00E099
:10194C00002807DB00F01F02400901239340024AE4
:10195C0042F82030704700BF00E100E00138B0F1E0
:10196C00807F0BD24FF0E0235861054AF02182F8BA
:10197C0023100020986107221A61704701207047DC
:10198C0000ED00E010B504460E4B18784FF47A7356
:10199C00B3FBF0F30C4A1068B0FBF3F0FFF7DEFF7B
:1019AC0068B90F2C01D901200AE0002221464FF022
:1019BC00FF30FFF78DFF054B1C60002000E001207D
:1019CC0010BD00BF00000020080000200400002013
:1019DC0008B50B4B1A6842F400721A601A6842F48C
:1019EC0080621A601A6842F480721A600320FFF752
:1019FC005DFF0F20FFF7C6FFFEF78CFF002008BD30
:101A0C00003C0240034A1168034B1B780B441360E3
:101A1C00704700BF7000002000000020014B1868C8
:101A2C00704700BF7000002038B50446FFF7F6FF82
:101A3C000546B4F1FF3F02D0044B1B781C44FFF762
:101A4C00EDFF401BA042FAD338BD00BF00000020C0
:101A5C00034AD2F8883043F47003C2F888307047D8
:101A6C0000ED00E0DFF834D0FFF7F2FF0C480D4931
:101A7C000D4A002302E0D458C4500433C4188C42DD
:101A8C00F9D30A4A0A4C002301E013600432A24243
:101A9C00FBD3FEF7C9FBFEF787FE7047000003205F
:101AAC00000000200C000020041B00080C0000208B
:101ABC0074000020FEE70000F8B500BFF8BC08BCBD
:101ACC009E467047F8B500BFF8BC08BC9E467047F0
:101ADC0000000000000000000102030406070809D2
:081AEC000000000001020304E8
:081AF4005CE8FF7F0100000027
:041AFC0015020008C7
:041B0000ED010008EB
:0C1B040001000000100000000024F400AC
:0400000508001A7164
:00000001FF
