:020000040800F2
:100000000000032039210008D5080008D70800089F
:10001000D9080008DB080008DD080008000000001F
:10002000000000000000000000000000DF080008E1
:10003000E108000800000000E3080008E5080008E7
:1000400089210008892100088921000889210008E8
:1000500089210008892100088921000889210008D8
:1000600089210008892100088921000889210008C8
:1000700089210008892100088921000889210008B8
:1000800089210008892100088921000889210008A8
:10009000ED0800088921000889210008892100084D
:1000A0008921000889210008892100088921000888
:1000B0008921000889210008892100088921000878
:1000C0008921000889210008892100088921000868
:1000D0008921000889210008FD08000889210008FD
:1000E0008921000889210008892100088921000848
:1000F0008921000889210008892100088921000838
:100100008921000889210008892100088921000827
:100110008921000889210008892100088921000817
:100120008921000889210008892100088921000807
:1001300089210008892100088921000889210008F7
:1001400089210008892100088921000889210008E7
:1001500089210008892100088921000889210008D7
:1001600089210008892100088921000889210008C7
:100170008921000889210008892100080000000069
:1001800089210008892100088921000889210008A7
:100190008921000889210008892100088921000897
:0C01A000000000000000000089210008A1
:1001AC000348044B834202D0034B03B118477047FA
:1001BC001C0000201C00002000000000054806491F
:1001CC000B1AD90F01EBA301491002D0034B03B159
:1001DC00184770471C0000201C0000200000000085
:1001EC0010B5064C237843B9FFF7DAFF044B13B173
:1001FC000448AFF300800123237010BD1C000020C5
:10020C00000000008C21000808B5044B1BB1044908
:10021C000448AFF30080BDE80840CFE700000000C1
:10022C00200000208C21000870B50D4E0D4D761B62
:10023C00B61006D0002455F8043B01349847A6426A
:10024C00F9D1094E094D761B01F09AFFB61006D074
:10025C00002455F8043B01349847A642F9D170BDEF
:10026C00CC210008CC210008D0210008CC210008AA
:10027C00830730B548D0541E002A3FD0CAB203467B
:10028C0001E0013C3AD303F8012B9D07F9D1032C73
:10029C002DD9CDB245EA05250F2C45EA054536D9B1
:1002AC00A4F1100222F00F0C03F1200EE6444FEAE9
:1002BC00121C03F1100242E9045542E902551032B6
:1002CC007245F8D10CF1010214F00C0F03EB021281
:1002DC0004F00F0C13D0ACF1040323F0030304332C
:1002EC00134442F8045B9342FBD10CF003042CB191
:1002FC00CAB21C4403F8012B9C42FBD130BD6446AE
:10030C001346002CF4D1F9E703461446BFE71A460E
:10031C00A446E0E753B94AB9002908BF00281CBF1E
:10032C004FF0FF314FF0FF3000F074B9ADF1080C15
:10033C006DE904CE00F006F8DDF804E0DDE90223F7
:10034C0004B070472DE9F047089D04468E46002BFB
:10035C004DD18A42944669D9B2FA82F252B101FA6D
:10036C0002F3C2F1200120FA01F10CFA02FC41EA7D
:10037C00030E94404FEA1C48210CBEFBF8F61FFA02
:10038C008CF708FB16E341EA034306FB07F199429D
:10039C000AD91CEB030306F1FF3080F01F81994250
:1003AC0040F21C81023E63445B1AA4B2B3FBF8F02A
:1003BC0008FB103344EA034400FB07F7A7420AD9B1
:1003CC001CEB040400F1FF3380F00A81A74240F2D9
:1003DC0007816444023840EA0640E41B00261DB144
:1003EC00D4400023C5E900433146BDE8F0878B4279
:1003FC0009D9002D00F0EF800026C5E90001304638
:10040C003146BDE8F087B3FA83F6002E4AD18B4211
:10041C0002D3824200F2F980841A61EB03030120BB
:10042C009E46002DE0D0C5E9004EDDE702B9FFDEA7
:10043C00B2FA82F2002A40F09280A1EB0C014FEA52
:10044C001C471FFA8CFE0126200CB1FBF7F307FBAF
:10045C00131140EA01410EFB03F0884208D91CEB52
:10046C00010103F1FF3802D2884200F2CB804346EF
:10047C00091AA4B2B1FBF7F007FB101144EA0144CE
:10048C000EFB00FEA64508D91CEB040400F1FF315D
:10049C0002D2A64500F2BB800846A4EB0E0440EA4B
:1004AC0003409CE7C6F12007B34022FA07FC4CEA54
:1004BC00030C20FA07F401FA06F31C43F9404FEA47
:1004CC001C4900FA06F3B1FBF9F8200C1FFA8CFE5C
:1004DC0009FB181140EA014108FB0EF0884202FAB0
:1004EC0006F20BD91CEB010108F1FF3A80F0888071
:1004FC00884240F28580A8F102086144091AA4B22E
:10050C00B1FBF9F009FB101144EA014100FB0EFEAE
:10051C008E4508D91CEB010100F1FF346CD28E45DD
:10052C006AD90238614440EA0840A0FB0294A1EB6E
:10053C000E01A142C846A64656D353D05DB1B3EBCB
:10054C00080261EB0E0101FA07F722FA06F3F140FB
:10055C001F43C5E9007100263146BDE8F087C2F1A2
:10056C002003D8400CFA02FC21FA03F3914001431A
:10057C004FEA1C471FFA8CFEB3FBF7F007FB103653
:10058C000B0C43EA064300FB0EF69E4204FA02F4FF
:10059C0008D91CEB030300F1FF382FD29E422DD952
:1005AC00023863449B1B89B2B3FBF7F607FB163387
:1005BC0041EA034106FB0EF38B4208D91CEB010107
:1005CC0006F1FF3816D28B4214D9023E6144C91A87
:1005DC0046EA004638E72E46284605E70646E3E697
:1005EC001846F8E64B45A9D2B9EB020864EB0C0EA1
:1005FC000138A3E74646EAE7204694E74046D1E7B0
:10060C00D0467BE7023B614432E7304609E764445D
:10061C00023842E7704700BF72B6FEE700B595B0EE
:10062C003022002108A8FFF723FE00230393049334
:10063C000593069307930193224A116C41F0805164
:10064C001164126C02F080520192019A02931E4ABC
:10065C00116841F440411160126802F44042029268
:10066C00029A0222089201210B9110210C910E92F8
:10067C000F9308231093B423119312920423139312
:10068C0008A800F0EBFCB0B901F06EF9A8B90F2383
:10069C00039302230493002305934FF4A053069372
:1006AC004FF480530793052103A800F025FF30B9C0
:1006BC0015B05DF804FBFFF7AFFFFFF7ADFFFFF7D9
:1006CC00ABFF00BF003802400070004000B58BB09B
:1006DC0001F01AFAFFF7A2FF00F044F800F09CF8C2
:1006EC0001F048FA1A4801F04BFB1A4C0122042184
:1006FC00204601F0D5F801220821204601F0D0F85F
:10070C0001221021204601F0CBF8012220212046A5
:10071C0001F0C6F842F2107310220F490F4800F096
:10072C0066FA0F4B02AA93E8030082E803004FF429
:10073C0000730493002305930693079308210891F3
:10074C008DF8243001AB04A9014801F047FBE8E720
:10075C0084000020001C0240000000203800002013
:10076C00A4210008F0B58BB00024059406940794DE
:10077C00089409940194254B1A6B42F001021A63F8
:10078C001A6B02F001020192019A02941A6B42F068
:10079C0008021A631A6B02F008020292029A03947E
:1007AC001A6B42F080021A631A6B02F080020392F9
:1007BC00039A04941A6B42F040021A631B6B03F009
:1007CC0040030493049B124F22463C21384601F00F
:1007DC0067F8104D22464FF4FF71284601F060F87F
:1007EC003C230593012606960794089405A93846E0
:1007FC0000F058FF4FF4FF73059306960794089486
:10080C0005A9284600F04EFF0BB0F0BD00380240A1
:10081C00001C02400018024008B50A480A4B03604D
:10082C004FF4E133436000238360C36003610C2207
:10083C0042618361C36100F0AAF900B908BDFFF7FA
:10084C00EBFEFBE7380000200044004010B588B0F8
:10085C000023039304930593069307930268184BA4
:10086C009A4201D008B010BD0024019403F5FA336C
:10087C001A6C42F400321A641A6C02F400320192BF
:10088C00019A02941A6B42F008021A631B6B03F074
:10089C0008030293029B6023039302230493032314
:1008AC0006930723079303A9064800F0FBFE224694
:1008BC002146262001F0A8F8262001F0DDF8D1E72A
:1008CC0000440040000C0240FEE7FEE7FEE7FEE7B6
:1008DC00FEE770477047704708B501F02FF908BD67
:1008EC0008B5024801F0FCFA08BD00BF84000020E6
:1008FC0008B5024800F06EFA08BD00BF38000020B1
:10090C0082B0002100910B4B5A6C42F480425A6425
:10091C005A6C02F480420092009A01911A6C42F0D7
:10092C0080521A641B6C03F080530193019B02B03C
:10093C00704700BF00380240026802F10C0353E814
:10094C00003F23F490730C3242E800310029F3D1BC
:10095C00026802F1140353E8003F23F00103143240
:10096C0042E800310029F3D1036B012B05D0202381
:10097C0080F84230002303637047026802F10C03D5
:10098C0053E8003F23F010030C3242E800310029F9
:10099C00F3D1ECE790F84130DBB2212B01D00220EF
:1009AC0070478368B3F5805F17D0036A5A1C0262E4
:1009BC001A7803685A60C38C9BB2013B9BB2C38408
:1009CC004BB90268D36823F08003D3600268D36804
:1009DC0043F04003D360002070470369002BE4D13F
:1009EC00036A1B880268C3F308035360036A02336B
:1009FC000362E0E738B504460268136923F44053F8
:100A0C00C1680B4313618368026913434269134342
:100A1C00C2691A430168CB6823F4164323F00C0314
:100A2C001343CB600268536923F4407381690B4311
:100A3C0053610368314A934206D002F580629342B7
:100A4C0002D000F00FFE01E000F01CFEE369B3F5EC
:100A5C00004F29D00021031849411B1841F1000116
:100A6C00C90041EA5371DB00181863684FEA83022E
:100A7C004FEA937341F10001FFF74CFC204DA5FBAD
:100A8C0000325109642303FB11031B013233A5FB14
:100A9C0003235B0903F0F00202EB011203F00F03D6
:100AAC00216813448B6038BD0023021843EB03010B
:100ABC00121841F10001C90041EA5271D20010181C
:100ACC0041F10001626892185B41FFF723FC0C4D69
:100ADC00A5FB00325109642303FB1103DB00323305
:100AEC00A5FB03235B095A0002F4F87202EB011216
:100AFC0003F00703216813448B60D4E70010014016
:100B0C001F85EB512DE9F04383B005460E46174681
:100B1C009946DDF828802C68246836EA04030CBF5B
:100B2C004FF0010C4FF0000CBC4528D1B8F1FF3F41
:100B3C00F1D001F00FF8A0EB0900404523D8B8F133
:100B4C00000F22D02B68DA6812F0040FE3D0802E4D
:100B5C00E1D0402EDFD01A6812F0080FDBD0002451
:100B6C0001941A6801925B680193019B2846FFF778
:100B7C00E3FE08236B6485F84040012000E0002070
:100B8C0003B0BDE8F0830320FAE70320F8E760B375
:100B9C0010B5044690F8413013B3242384F8413047
:100BAC002268D36823F40053D3602046FFF722FF5A
:100BBC002268136923F4904313612268536923F06C
:100BCC002A0353612268D36843F40053D360002096
:100BDC006064202384F8413084F84230606310BD97
:100BEC0080F84030FFF732FED7E7012070472DE93F
:100BFC00F04182B01E4690F84130DBB2202B56D12A
:100C0C0004460D469046002955D00AB901204FE004
:100C1C0000234364212380F8413000F09BFF0746FA
:100C2C00A4F82480A4F82680A368B3F5805F02D0D2
:100C3C004FF0000814E023692BB34FF000080FE0CD
:100C4C00202384F84130032032E038F8023B22683C
:100C5C00C3F308035360E28C92B2013A92B2E2847D
:100C6C00E38C9BB293B100963B4600228021204638
:100C7C00FFF748FF0028E3D1002DE6D015F8012B33
:100C8C0023685A60E7E7A8460025E9E700963B464B
:100C9C00002240212046FFF735FF18B9202384F8A5
:100CAC00413005E0202384F84130032000E002208D
:100CBC0002B0BDE8F0810120FAE7704708B5016881
:100CCC00CA6822F04002CA60202280F84120FFF757
:100CDC00F4FF002008BD7047704708B5806B0023F7
:100CEC00C385C384FFF7F8FF08BD704790F8423006
:100CFC00DBB2222B69D18368B3F5805F4FD0826A57
:100D0C00B3F5805F04D0002B56D10369002B53D16F
:100D1C0003685B681370836A01338362C38D9BB273
:100D2C00013B9BB2C385002B51D100B583B0026847
:100D3C00D36823F02003D3600268D36823F4807354
:100D4C00D3600268536923F001035361202380F8B8
:100D5C00423000234363036B012B33D10023036325
:100D6C00026802F10C0353E8003F23F010030C322D
:100D7C0042E800310029F3D103681A6812F0100F11
:100D8C0006D0002201921A6801925B680193019BC4
:100D9C00818DFFF7AAFF002003B05DF804FB026908
:100DAC00002AACD1826A03685B68C3F30803138022
:100DBC00836A02338362B1E703685B6803F07F03E5
:100DCC001370A8E7FFF787FFE5E7022070470020C4
:100DDC007047000030B583B0044602681368D068D1
:100DEC00516913F00F0505D113F0200F02D010F04C
:100DFC00200F19D12DB111F0010119D110F4907FF0
:100E0C0016D1216B01297DD013F0800F03D010F087
:100E1C00800F40F0198113F0400F03D010F0400FF9
:100E2C0040F0168103B030BD2046FFF75FFFF9E7B5
:100E3C0013F0010F06D010F4807F03D0626C42F0E7
:100E4C000102626413F0040F04D019B1626C42F019
:100E5C000202626413F0020F04D019B1626C42F00A
:100E6C000402626413F0080F07D010F0200F00D1B9
:100E7C0019B1626C42F008026264626C002AD1D033
:100E8C0013F0200F02D010F0200F29D123685B69DA
:100E9C0003F04003626C12F0080F00D163B32046DC
:100EAC00FFF74AFD23685B6913F0400F20D02268DE
:100EBC0002F1140353E8003F23F04003143242E8DC
:100ECC0000310029F3D1E36B73B1634A1A65E06B0F
:100EDC0000F036FD0028A5D0E06B036D9847A1E724
:100EEC002046FFF703FFD1E72046FFF7F5FE99E711
:100EFC002046FFF7F1FE95E72046FFF7EDFE0023B5
:100F0C0063648FE713F0100F3FF47EAF10F0100FF7
:100F1C003FF47AAF00230193136801935368019354
:100F2C00019B536913F0400F52D0E26B13685B685E
:100F3C009BB2002B3FF476AFA18D99427FF672AF36
:100F4C00E385D369B3F5807F37D0226802F10C03B7
:100F5C0053E8003F23F480730C3242E8003100293F
:100F6C00F3D1226802F1140353E8003F23F001038C
:100F7C00143242E800310029F3D1226802F1140343
:100F8C0053E8003F23F04003143242E800310029BB
:100F9C00F3D1202384F8423000232363226802F12A
:100FAC000C0353E8003F23F010030C3242E80031ED
:100FBC000029F3D1E06B00F079FC02236363A18D6F
:100FCC00E38D9BB2C91A89B22046FFF78EFE29E742
:100FDC00A18DE38D9BB2C91A89B2E38D9BB2002B14
:100FEC003FF420AF00293FF41DAF226802F10C033F
:100FFC0053E8003F23F490730C3242E80030002891
:10100C00F3D1226802F1140353E8003F23F00103EB
:10101C00143242E800300028F3D1202384F8423007
:10102C0000232363226802F10C0353E8003F23F0F2
:10103C0010030C3242E800300028F3D10223636322
:10104C002046FFF752FEEDE62046FFF7A3FCE9E64B
:10105C002046FFF733FEE5E6E70C0008002800F019
:10106C00E08170B582B00446036813F0010F3BD0E9
:10107C009F4B9B6803F00C03042B2CD09C4B9B6860
:10108C0003F00C03082B21D06368B3F5803F4FD0DD
:10109C00B3F5A02F52D0964B1A6822F480321A6006
:1010AC001A6822F480221A606368002B50D000F07A
:1010BC0051FD05468E4B1B6813F4003F14D100F014
:1010CC0049FD401B6428F5D90320B1E1884B5B68CE
:1010DC0013F4800FD8D0864B1B6813F4003F03D059
:1010EC006368002B00F09F81236813F0020F54D02B
:1010FC007F4B9B6813F00C0F3ED07D4B9B6803F02D
:10110C000C03082B33D0E368002B68D0794B0122F9
:10111C001A6000F01FFD0546754B1B6813F0020F9B
:10112C0054D100F017FD401B0228F5D903207FE1B4
:10113C006F4A136843F480331360B5E76C4B1A683D
:10114C0042F480221A601A6842F480321A60ABE7CB
:10115C0000F000FD0546664B1B6813F4003FC3D03E
:10116C0000F0F8FC401B6428F5D9032060E1604BCB
:10117C005B6813F4800FC6D15D4B1B6813F0020F34
:10118C0003D0E368012B40F05081594A136823F0D7
:10119C00F803216943EAC1031360236813F0080FB5
:1011AC0042D063696BB3534B0122C3F8802E00F01D
:1011BC00D1FC05464E4B5B6F13F0020F34D100F09F
:1011CC00C9FC401B0228F5D9032031E1484A1368B9
:1011DC0023F0F803216943EAC1031360DDE7454BB3
:1011EC0000221A6000F0B6FC0546414B1B6813F058
:1011FC00020FD2D000F0AEFC401B0228F5D9032020
:10120C0016E13C4B0022C3F8802E00F0A3FC0546EF
:10121C00374B5B6F13F0020F06D000F09BFC401BAA
:10122C000228F5D9032003E1236813F0040F77D0CB
:10123C002F4B1B6C13F0805F33D1002301932C4B8D
:10124C001A6C42F080521A641B6C03F080530193A9
:10125C00019B0125284B1B6813F4807F23D0A368C6
:10126C00012B34D0052B38D0214B1A6F22F0010200
:10127C001A671A6F22F004021A67A368002B3DD07C
:10128C0000F068FC06461A4B1B6F13F0020F46D198
:10129C0000F060FC801B41F288339842F3D90320A4
:1012AC00C6E00025D6E7144A136843F48073136034
:1012BC0000F050FC0646104B1B6813F4807FCED117
:1012CC0000F048FC801B0228F5D90320B0E0084A46
:1012DC00136F43F001031367CFE7054B1A6F42F00E
:1012EC0004021A671A6F42F001021A67C5E700BFC1
:1012FC0000380240000047420070004000F02AFC19
:10130C000646524B1B6F13F0020F08D000F022FC64
:10131C00801B41F288339842F3D9032088E0EDB961
:10132C00A369002B00F08380484A926802F00C02FB
:10133C00082A51D0022B17D0454B00221A6600F018
:10134C0009FC0446414B1B6813F0007F42D000F0AF
:10135C0001FC001B0228F5D9032069E03B4A136C01
:10136C0023F080531364DBE7394B00221A6600F03C
:10137C00F1FB0546354B1B6813F0007F06D000F0DF
:10138C00E9FB401B0228F5D9032051E0E369226AEE
:10139C001343626A43EA8213A26A5208013A43EA8F
:1013AC000243E26A43EA0263284A5360284B012253
:1013BC001A6600F0CFFB0446244B1B6813F0007F29
:1013CC0006D100F0C7FB001B0228F5D903202FE043
:1013DC0000202DE000202BE0012B2BD01B4B5B6859
:1013EC0003F48001E269914226D103F03F02216AA5
:1013FC008A4223D1616A47F6C0721A40B2EB811F50
:10140C001ED103F44031A26A5208013AB1EB024FEB
:10141C0018D103F07063E26AB3EB026F14D10020B1
:10142C0006E001207047012002E0012000E00020CE
:10143C0002B070BD0120FBE70120F9E70120F7E7BE
:10144C000120F5E70120F3E70120F1E70038024025
:10145C000000474208B5254B9B6803F00C03042B96
:10146C003FD0082B3FD1214B5A6802F03F025B68FA
:10147C0013F4800F12D01D4B5968C1F388111C480E
:10148C000023A1FB0001FEF745FF184B5B68C3F37B
:10149C00014301335B00B0FBF3F025E0134B5968BB
:1014AC00C1F3881C4FEA4C11B1EB0C006EEB0E0E25
:1014BC004FEA8E1343EA90638101091A63EB0E0322
:1014CC00DB0043EA5173C90011EB0C0C43F1000330
:1014DC00990200234FEA8C2041EA9C51FEF71AFF37
:1014EC00D3E7034800E0034808BD00BF00380240C2
:1014FC0040787D010024F400002800F09B8070B53A
:10150C000D4604464F4B1B6803F00F038B4208D269
:10151C00CBB24C4A1370136803F00F038B4240F0AC
:10152C008B80236813F0020F17D013F0040F04D034
:10153C00454A936843F4E0539360236813F0080F13
:10154C0004D0414A936843F4604393603E4A9368E5
:10155C0023F0F003A1680B439360236813F0010F91
:10156C0032D06368012B21D09A1E012A25D9364A24
:10157C00126812F0020F61D033498A6822F003021C
:10158C0013438B6000F0E6FA06462F4B9B6803F082
:10159C000C036268B3EB820F16D000F0DBFA801BF1
:1015AC0041F288339842F0D9032042E0264A12686F
:1015BC0012F4003FE0D101203BE0234A126812F004
:1015CC00007FD9D1012034E01E4B1B6803F00F03C0
:1015DC00AB4207D9EAB21B4B1A701B6803F00F031E
:1015EC00AB422DD1236813F0040F06D0164A936832
:1015FC0023F4E053E1680B439360236813F0080F66
:10160C0007D0114A936823F46043216943EAC1036C
:10161C009360FFF71FFF0C4B9B68C3F303130B4A3C
:10162C00D35CD8400A4B18600A4B186800F046FA95
:10163C00002070BD012070470120FAE70120F8E777
:10164C000120F6E7003C024000380240AC210008C3
:10165C001800002014000020014B1868704700BFD0
:10166C001800002008B5FFF7F7FF044B9B68C3F385
:10167C008223034AD35CD84008BD00BF0038024027
:10168C00BC21000808B5FFF7E7FF044B9B68C3F3C8
:10169C004233034AD35CD84008BD00BF0038024037
:1016AC00BC21000800230F2B00F2F18070B582B032
:1016BC0061E085685E000324B44025EA0405CC682B
:1016CC00B4402C438460456825EA02054C68C4F399
:1016DC0000129A402A4342605BE0DC08083450F860
:1016EC00246003F0070295000F22AA4026EA020E9E
:1016FC000A69AA4042EA0E0240F824205DE0092261
:10170C0000E0002202FA0EF22A430234604D45F842
:10171C002420604A94686FEA0C0224EA0C054E6897
:10172C0016F4801F01D04CEA04055A4CA560E468FD
:10173C0002EA04054E6816F4001F01D04CEA0405B9
:10174C00544CE560646802EA04054E6816F4003FE8
:10175C0001D04CEA04054F4C6560246822404D686A
:10176C0015F4803F01D04CEA04024A4C226001334C
:10177C000F2B00F28A8001229A400C6804EA020CBA
:10178C0032EA0404F3D14C6804F00304013C012C4C
:10179C008FD94A6802F00302032A09D0C4685D009D
:1017AC000322AA4024EA02048A68AA402243C260A7
:1017BC004A6802F00302022A8FD004684FEA430EF3
:1017CC00032202FA0EF224EA02044A6802F003022F
:1017DC0002FA0EF2224302604A6812F4403FC6D06D
:1017EC00002201922C4A546C44F480445464526C90
:1017FC0002F480420192019A9C08A51C244A52F8DA
:10180C00255003F003024FEA820E0F2202FA0EF269
:10181C0025EA0205214A90423FF473AF02F580623B
:10182C00904222D002F58062904220D002F5806274
:10183C0090421ED002F5806290421CD002F580626C
:10184C0090421AD002F58062904218D002F5806264
:10185C00904216D002F58062904214D002F580625C
:10186C0090423FF44CAF0A224CE701224AE7022295
:10187C0048E7032246E7042244E7052242E7062212
:10188C0040E707223EE708223CE702B070BD7047F4
:10189C0000380140003C014000380240000002408A
:1018AC000AB18161704709048161704770B50446C3
:1018BC00866D00F04FF994F83530DBB2022B06D070
:1018CC0080236365002384F83430012070BD054605
:1018DC002268136823F0160313602268536923F0FF
:1018EC0080035361236CE3B12268136823F008036F
:1018FC0013602268136823F00103136023681B68CC
:10190C0013F0010F11D000F025F9431B052BF5D96D
:10191C0020236365032084F83500002384F83430D9
:10192C00D4E7A36C002BDFD1E3E7E26D3F239340B8
:10193C00B360012384F83530002084F83400C5E707
:10194C0090F83530DBB2022B03D0802343650120A5
:10195C007047052380F835300268136823F00103C3
:10196C00136000207047000010B582B00023019373
:10197C00194B1A6C42F080521A641B6C03F08053A2
:10198C000193019B154B01221A6400F0E3F8044605
:10199C00134B5B6813F4803F08D100F0DBF8001B9D
:1019AC00B0F57A7FF4D9032002B010BD0B4B0122A5
:1019BC005A6400F0CFF80446094B5B6813F4003FFF
:1019CC0007D100F0C7F8001BB0F57A7FF4D90320DB
:1019DC00EAE70020E8E700BF0038024000000E42B2
:1019EC0000700040074AD36823F4E0631B041B0C0F
:1019FC00000200F4E060034343F0BF6343F40033A0
:101A0C00D360704700ED00E000B5194BDB68C3F301
:101A1C000223C3F1070CBCF1040F28BF4FF0040CD8
:101A2C0003F1040EBEF1060F18D9033B4FF0FF3E35
:101A3C000EFA0CFC21EA0C0199400EFA03F322EA8F
:101A4C000303194300280BDB0901C9B200F1604004
:101A5C0000F5614080F800135DF804FB0023E5E716
:101A6C0000F00F000901C9B2024B1954F4E700BF92
:101A7C0000ED00E014ED00E0002807DB00F01F0291
:101A8C00400901239340024A42F82030704700BFBE
:101A9C0000E100E00138B0F1807F0BD24FF0E02381
:101AAC005861054AF02182F8231000209861072222
:101ABC001A6170470120704700ED00E010B5044634
:101ACC000E4B18784FF47A73B3FBF0F30C4A106892
:101ADC00B0FBF3F0FFF7DEFF68B90F2C01D9012042
:101AEC000AE0002221464FF0FF30FFF78DFF054B37
:101AFC001C60002000E0012010BD00BF1000002081
:101B0C00180000201400002008B50B4B1A6842F492
:101B1C0000721A601A6842F480621A601A6842F401
:101B2C0080721A600320FFF75DFF0F20FFF7C6FFDE
:101B3C00FEF7E6FE002008BD003C0240034A116897
:101B4C00034B1B780B441360704700BF80000020D0
:101B5C0010000020014B1868704700BF8000002067
:101B6C00034AD2F8883043F47003C2F888307047C7
:101B7C0000ED00E008B50E480E4B036005234360F2
:101B8C0000238360C3604FF4003202614FF4800283
:101B9C0042610376012242768276C37603774377DD
:101BAC0000F048F800B908BDFEF736FDFBE700BFB2
:101BBC00840000200064004010B588B0002303931B
:101BCC0004930593069307930268184B9A4201D02D
:101BDC0008B010BD0024019403F5EA331A6C42F0EE
:101BEC0000721A641A6C02F000720192019A02944B
:101BFC001A6B42F008021A631B6B03F00803029382
:101C0C00029B032303930222049206930923079356
:101C1C0003A90748FFF746FD224621461420FFF78B
:101C2C00F3FE1420FFF728FFD2E700BF006400404A
:101C3C00000C0240002800F0A18038B5044690F852
:101C4C002030D3B12268136843F001031360FFF70F
:101C5C0081FF054623685A6812F0010F10D1FFF777
:101C6C0079FF401B0A28F5D9636A43F40033636299
:101C7C00052384F82030012038BDFFF79DFFE1E7F4
:101C8C001A6822F002021A60FFF764FF0546236807
:101C9C005A6812F0020F0DD0FFF75CFF401B0A28A8
:101CAC00F5D9636A43F400336362052384F820306A
:101CBC000120E1E7227E012A3DD01A6822F0800241
:101CCC001A60637E012B3BD02268136823F040031B
:101CDC001360A37E012B39D02268136823F02003F4
:101CEC001360E37E012B37D02268136843F0100396
:101CFC001360237F012B35D02268136823F008036F
:101D0C001360637F012B33D02268136823F0040324
:101D1C001360A368E2681343226913436269134397
:101D2C006268013A21681343CB6100206062012391
:101D3C0084F82030A0E71A6842F080021A60C0E7ED
:101D4C002268136843F040031360C2E722681368EB
:101D5C0043F020031360C4E72268136823F01003D8
:101D6C001360C6E72268136843F008031360C8E7E2
:101D7C002268136843F004031360CAE7012070471C
:101D8C0070B5044690F82050EDB2012D06D0436A90
:101D9C0043F4002343620125284670BD022380F8DA
:101DAC0020300268136823F001031360FFF7D2FEA2
:101DBC00064623685B6813F0010F0CD0FFF7CAFED0
:101DCC00831B0A2BF5D9636A43F400336362052342
:101DDC0084F82030E0E700256562DDE730B590F847
:101DEC0020C00468A4680CF1FF3C5FFA8CFCBCF1C9
:101DFC00010F62D814F0E05F59D0C4F3016C0124D8
:101E0C0004FA0CF41C608B68002B3DD10D68CB6878
:101E1C00046843EA45550CF118031B01E5500368AF
:101E2C000C690CF1180E03EB0E135C600B7D012B8F
:101E3C0035D0D17993791B0443EA0163517943EA94
:101E4C00012314790168234301EB0C11C1F88C3187
:101E5C00D17893781B0443EA0163517843EA012358
:101E6C00117802680B4302EB0C12C2F8883102683D
:101E7C000CF1180C4FEA0C1C52F80C3043F0010317
:101E8C0042F80C3000201DE04C6843EAC403CC68D7
:101E9C0023430CF11804240105682B51BFE7036898
:101EAC0003EB0E13596841F480715960C1E7436A22
:101EBC0043F400134362012004E0436A43F480239B
:101ECC004362012030BD70477047704770477047C0
:101EDC00704770477047704770477047704770473E
:101EEC002DE9F84F054603685C69D3F804809F68B8
:101EFC00D3F80CB0D3F810A0D3F8189014F0010656
:101F0C003BD017F0010616D001229A6017F0020F91
:101F1C0008D117F0040F0CD117F0080606D04FF4B7
:101F2C00805608E0FFF7CFFF002604E0FFF7CEFF56
:101F3C0001E04FF4006617F4807F0DD02B684FF44E
:101F4C0080729A6017F4007F40F0868017F4806FDF
:101F5C0000F0868046F4005617F4803F0DD02B68B5
:101F6C004FF480329A6017F4003F40F0838017F4EE
:101F7C00802F00F0838046F4004614F0080F07D041
:101F8C001BF0100F04D046F400762B681022DA6098
:101F9C0014F0040F02D01BF0080F79D114F0020FCB
:101FAC0004D02B68DB6813F0030F78D114F0400FCA
:101FBC0007D01AF0100F04D046F480662B6810225C
:101FCC001A6114F0200F02D01AF0080F6BD114F024
:101FDC00100F04D02B681B6913F0030F6AD114F493
:101FEC00003F02D018F0100F68D114F4803F02D0DB
:101FFC0018F0080F69D114F4004F7AD018F0040FC0
:10200C0074D014F4807F04D019F0010F01D046F085
:10201C00010614F4007F04D019F0020F01D046F031
:10202C00020614F4806F04D019F0040F01D046F0AE
:10203C00040614F4006F59D019F0700956D0B9F198
:10204C00400F65D058D8B9F1200F5ED0B9F1300FE0
:10205C0042D146F0200644E02846FFF735FF7BE7E7
:10206C0017F4006F02D046F4804675E72846FFF758
:10207C002EFF71E72846FFF728FF7EE717F4002FA5
:10208C0002D046F4803678E72846FFF721FF74E744
:10209C002B680822DA602846FFF71CFF7EE72846EB
:1020AC00FFF717FF82E72B6808221A612846FFF713
:1020BC0013FF8CE72846FFF70EFF90E72B681022E2
:1020CC005A602846FFF709FF8FE72B6808225A60F1
:1020DC002846FFF703FF8EE7B9F1100F01D146F048
:1020EC0008062A68936923F0700393612B68042215
:1020FC005A609EB9BDE8F88FB9F1500F0BD0B9F109
:10210C00600FEED146F48076EBE746F01006E8E778
:10211C0046F04006E5E746F08006E2E76B6A1E43B0
:10212C006E622846FFF7DBFEE4E70000DFF834D0F0
:10213C00FFF716FD0C480D490D4A002302E0D45858
:10214C00C4500433C4188C42F9D30A4A0A4C0023F5
:10215C0001E013600432A242FBD3FEF765F8FEF7F0
:10216C00B5FA704700000320000000201C0000207E
:10217C00D42100081C000020AC000020FEE7000069
:10218C00F8B500BFF8BC08BC9E467047F8B500BF58
:08219C00F8BC08BC9E46704728
:1021A40020002000200020000000000000000000AB
:1021B40001020304060708090000000001020304E9
:0821C4008CE1FF7F0100000027
:0421CC0015020008F0
:0421D000ED01000815
:1021D40068656C6C6F20776F7264EFBC8C0D0A00BD
:0C21E40001000000100000000024F400C6
:040000050800213995
:00000001FF
