:020000040800F2
:100000000000032069180008710700087307000842
:10001000750700087707000879070008000000004E
:100020000000000000000000000000007B07000846
:100030007D070008000000007F0700088107000816
:10004000B9180008B9180008B9180008B91800084C
:10005000B9180008B9180008B9180008B91800083C
:10006000B9180008B9180008B9180008B91800082C
:10007000B9180008B9180008B9180008B91800081C
:10008000B9180008B9180008B9180008B91800080C
:1000900089070008B9180008B9180008B91800083D
:1000A000B9180008B9180008B9180008B9180008EC
:1000B000B9180008B9180008B9180008B9180008DC
:1000C000B9180008B9180008B9180008B9180008CC
:1000D000B9180008B9180008B9180008B9180008BC
:1000E000B9180008B9180008B9180008B9180008AC
:1000F000B9180008B9180008B9180008B91800089C
:10010000B9180008B9180008B9180008B91800088B
:10011000B9180008B9180008B9180008B91800087B
:10012000B9180008B9180008B9180008B91800086B
:10013000B9180008B9180008B9180008B91800085B
:10014000B9180008B9180008B9180008B91800084B
:10015000B9180008B9180008B9180008B91800083B
:10016000B9180008B9180008B9180008B91800082B
:10017000B9180008B9180008B918000800000000F4
:10018000B9180008B9180008B9180008B91800080B
:10019000B9180008B9180008B9180008B9180008FB
:0C01A0000000000000000000B91800087A
:1001AC0010B5054C237833B9044B13B10448AFF3A5
:1001BC0000800123237010BD70000020000000009F
:1001CC007C23000808B5034B1BB103490348AFF36C
:1001DC00008008BD00000000740000207C23000893
:1001EC0053B94AB9002908BF00281CBF4FF0FF3192
:1001FC004FF0FF3000F074B9ADF1080C6DE904CE8E
:10020C0000F006F8DDF804E0DDE9022304B07047E5
:10021C002DE9F047089D04468E46002B4DD18A42AD
:10022C00944669D9B2FA82F252B101FA02F3C2F1E0
:10023C00200120FA01F10CFA02FC41EA030E944071
:10024C004FEA1C48210CBEFBF8F61FFA8CF708FB92
:10025C0016E341EA034306FB07F199420AD91CEB6A
:10026C00030306F1FF3080F01F81994240F21C819C
:10027C00023E63445B1AA4B2B3FBF8F008FB1033E4
:10028C0044EA034400FB07F7A7420AD91CEB040419
:10029C0000F1FF3380F00A81A74240F207816444E9
:1002AC00023840EA0640E41B00261DB1D44000236E
:1002BC00C5E900433146BDE8F0878B4209D9002DD2
:1002CC0000F0EF800026C5E9000130463146BDE85C
:1002DC00F087B3FA83F6002E4AD18B4202D38242C6
:1002EC0000F2F980841A61EB030301209E46002D75
:1002FC00E0D0C5E9004EDDE702B9FFDEB2FA82F2CA
:10030C00002A40F09280A1EB0C014FEA1C471FFA27
:10031C008CFE0126200CB1FBF7F307FB131140EA0E
:10032C0001410EFB03F0884208D91CEB010103F1DB
:10033C00FF3802D2884200F2CB804346091AA4B29D
:10034C00B1FBF7F007FB101144EA01440EFB00FE71
:10035C00A64508D91CEB040400F1FF3102D2A645D6
:10036C0000F2BB800846A4EB0E0440EA03409CE775
:10037C00C6F12007B34022FA07FC4CEA030C20FA22
:10038C0007F401FA06F31C43F9404FEA1C4900FA42
:10039C0006F3B1FBF9F8200C1FFA8CFE09FB1811BF
:1003AC0040EA014108FB0EF0884202FA06F20BD932
:1003BC001CEB010108F1FF3A80F08880884240F282
:1003CC008580A8F102086144091AA4B2B1FBF9F0C6
:1003DC0009FB101144EA014100FB0EFE8E4508D9C1
:1003EC001CEB010100F1FF346CD28E456AD9023846
:1003FC00614440EA0840A0FB0294A1EB0E01A1422B
:10040C00C846A64656D353D05DB1B3EB080261EB98
:10041C000E0101FA07F722FA06F3F1401F43C5E972
:10042C00007100263146BDE8F087C2F12003D840A8
:10043C000CFA02FC21FA03F3914001434FEA1C47EA
:10044C001FFA8CFEB3FBF7F007FB10360B0C43EADC
:10045C00064300FB0EF69E4204FA02F408D91CEB8C
:10046C00030300F1FF382FD29E422DD9023863448A
:10047C009B1B89B2B3FBF7F607FB163341EA03412A
:10048C0006FB0EF38B4208D91CEB010106F1FF3879
:10049C0016D28B4214D9023E6144C91A46EA004670
:1004AC0038E72E46284605E70646E3E61846F8E602
:1004BC004B45A9D2B9EB020864EB0C0E0138A3E74B
:1004CC004646EAE7204694E74046D1E7D0467BE72C
:1004DC00023B614432E7304609E76444023842E7A4
:1004EC00704700BF72B6FEE700B595B03022002110
:1004FC0008A801F001FA00230393049305930693D3
:10050C0007930193224A116C41F080511164126CD3
:10051C0002F080520192019A02931E4A116841F432
:10052C0040411160126802F440420292029A022287
:10053C00089201210B9110210C910E920F9308231C
:10054C001093B423119312920423139308A800F070
:10055C00F1F9B0B900F016FEA8B90F2303930223EA
:10056C000493002305934FF4A05306934FF4805348
:10057C000793052103A800F02BFC30B915B05DF8EA
:10058C0004FBFFF7AFFFFFF7ADFFFFF7ABFF00BFBB
:10059C00003802400070004008B500F0C3FEFFF7C1
:1005AC00A3FF00F00DF800F06FF800F0F1FE034827
:1005BC0000F0F4FF00F0CEF8FEE700BFD8000020FA
:1005CC00F0B58BB000240594069407940894099414
:1005DC0000942A4B1A6B42F001021A631A6B02F058
:1005EC0001020092009A01941A6B42F008021A63FD
:1005FC001A6B02F008020192019A02941A6B42F0F3
:10060C0004021A631A6B02F004020292029A039417
:10061C001A6B42F080021A631A6B02F0800203928A
:10062C00039A04941A6B42F040021A631B6B03F09A
:10063C0040030493049B124F22463C21384600F0A1
:10064C009BFD104D22464FF4FF71284600F094FD9F
:10065C003C230593012606960794089405A9384671
:10066C0000F08CFC4FF4FF730593069607940894E6
:10067C0005A9284600F082FC0BB0F0BD0038024002
:10068C00001C02400018024008B50A480A4B0360DF
:10069C004FF4E133436000238360C36003610C2299
:1006AC0042618361C36100F015F900B908BDFFF721
:1006BC0019FFFBE78C0000200044004000B589B016
:1006CC000023039304930593069307930268154B39
:1006DC009A4202D009B05DF804FB0021019103F5A8
:1006EC00FA331A6C42F400321A641A6C02F40032B7
:1006FC000192019A02911A6B42F008021A631B6B69
:10070C0003F008030293029B6023039302230493D8
:10071C00032306930723079303A9034800F02EFC39
:10072C00D8E700BF00440040000C024010464FF0D8
:10073C00000C0AE0064B1B6813F0400FFAD011F9BD
:10074C000C20034B5A600CF1010C8445F2DB704712
:10075C000044004008B5024801F044F908BD00BF50
:10076C0094230008FEE7FEE7FEE7FEE7FEE770478E
:10077C007047704708B500F0EFFD08BD08B502489A
:10078C0000F047FF08BD00BFD800002082B0002158
:10079C0000910B4B5A6C42F480425A645A6C02F42E
:1007AC0080420092009A01911A6C42F080521A64B5
:1007BC001B6C03F080530193019B02B0704700BF88
:1007CC000038024038B504460268136923F44053DC
:1007DC00C1680B4313618368026913434269134375
:1007EC00C2691A430168CB6823F4164323F00C0347
:1007FC001343CB600268536923F4407381690B4344
:10080C0053610368314A934206D002F580629342E9
:10081C0002D000F093FB01E000F0A0FBE369B3F51C
:10082C00004F29D00021031849411B1841F1000148
:10083C00C90041EA5371DB00181863684FEA830260
:10084C004FEA937341F10001FFF7CAFC204DA5FB61
:10085C0000325109642303FB11031B013233A5FB46
:10086C0003235B0903F0F00202EB011203F00F0308
:10087C00216813448B6038BD0023021843EB03013D
:10088C00121841F10001C90041EA5271D20010184E
:10089C0041F10001626892185B41FFF7A1FC0C4D1D
:1008AC00A5FB00325109642303FB1103DB00323337
:1008BC00A5FB03235B095A0002F4F87202EB011248
:1008CC0003F00703216813448B60D4E70010014048
:1008DC001F85EB5160B310B5044690F8413013B34B
:1008EC00242384F841302268D36823F40053D36066
:1008FC002046FFF767FF2268136923F490431361C6
:10090C002268536923F02A0353612268D36843F4A5
:10091C000053D36000206064202384F8413084F8B5
:10092C004230606310BD80F84030FFF7C7FED7E758
:10093C0001207047002800F0E08170B582B00446B9
:10094C00036813F0010F3BD09F4B9B6803F00C0323
:10095C00042B2CD09C4B9B6803F00C03082B21D050
:10096C006368B3F5803F4FD0B3F5A02F52D0964BB0
:10097C001A6822F480321A601A6822F480221A60F3
:10098C006368002B50D000F0F3FC05468E4B1B68BF
:10099C0013F4003F14D100F0EBFC401B6428F5D994
:1009AC000320B1E1884B5B6813F4800FD8D0864BE1
:1009BC001B6813F4003F03D06368002B00F09F8189
:1009CC00236813F0020F54D07F4B9B6813F00C0F6D
:1009DC003ED07D4B9B6803F00C03082B33D0E368AF
:1009EC00002B68D0794B01221A6000F0C1FC05463F
:1009FC00754B1B6813F0020F54D100F0B9FC401B6F
:100A0C000228F5D903207FE16F4A136843F4803341
:100A1C001360B5E76C4B1A6842F480221A601A68AE
:100A2C0042F480321A60ABE700F0A2FC0546664B3C
:100A3C001B6813F4003FC3D000F09AFC401B6428E1
:100A4C00F5D9032060E1604B5B6813F4800FC6D1CD
:100A5C005D4B1B6813F0020F03D0E368012B40F0D1
:100A6C005081594A136823F0F803216943EAC10302
:100A7C001360236813F0080F42D063696BB3534BB8
:100A8C000122C3F8802E00F073FC05464E4B5B6FC1
:100A9C0013F0020F34D100F06BFC401B0228F5D987
:100AAC00032031E1484A136823F0F803216943EA33
:100ABC00C1031360DDE7454B00221A6000F058FCBF
:100ACC000546414B1B6813F0020FD2D000F050FCCE
:100ADC00401B0228F5D9032016E13C4B0022C3F839
:100AEC00802E00F045FC0546374B5B6F13F0020F70
:100AFC0006D000F03DFC401B0228F5D9032003E191
:100B0C00236813F0040F77D02F4B1B6C13F0805F0E
:100B1C0033D1002301932C4B1A6C42F080521A648F
:100B2C001B6C03F080530193019B0125284B1B6820
:100B3C0013F4807F23D0A368012B34D0052B38D03D
:100B4C00214B1A6F22F001021A671A6F22F004026D
:100B5C001A67A368002B3DD000F00AFC06461A4B1E
:100B6C001B6F13F0020F46D100F002FC801B41F208
:100B7C0088339842F3D90320C6E00025D6E7144AFF
:100B8C00136843F48073136000F0F2FB0646104BBD
:100B9C001B6813F4807FCED100F0EAFB801B022887
:100BAC00F5D90320B0E0084A136F43F00103136733
:100BBC00CFE7054B1A6F42F004021A671A6F42F026
:100BCC0001021A67C5E700BF003802400000474227
:100BDC000070004000F0CCFB0646524B1B6F13F02C
:100BEC00020F08D000F0C4FB801B41F288339842FE
:100BFC00F3D9032088E0EDB9A369002B00F08380C2
:100C0C00484A926802F00C02082A51D0022B17D0E5
:100C1C00454B00221A6600F0ABFB0446414B1B68A7
:100C2C0013F0007F42D000F0A3FB001B0228F5D983
:100C3C00032069E03B4A136C23F080531364DBE719
:100C4C00394B00221A6600F093FB0546354B1B68A6
:100C5C0013F0007F06D000F08BFB401B0228F5D967
:100C6C00032051E0E369226A1343626A43EA821368
:100C7C00A26A5208013A43EA0243E26A43EA026377
:100C8C00284A5360284B01221A6600F071FB044677
:100C9C00244B1B6813F0007F06D100F069FB001B8E
:100CAC000228F5D903202FE000202DE000202BE0B6
:100CBC00012B2BD01B4B5B6803F48001E269914242
:100CCC0026D103F03F02216A8A4223D1616A47F69A
:100CDC00C0721A40B2EB811F1ED103F44031A26ADC
:100CEC005208013AB1EB024F18D103F07063E26A7B
:100CFC00B3EB026F14D1002006E0012070470120F5
:100D0C0002E0012000E0002002B070BD0120FBE7F2
:100D1C000120F9E70120F7E70120F5E70120F3E7CF
:100D2C000120F1E7003802400000474208B5254B8E
:100D3C009B6803F00C03042B3FD0082B3FD1214BB5
:100D4C005A6802F03F025B6813F4800F12D01D4BFF
:100D5C005968C1F388111C480023A1FB0001FFF75F
:100D6C003FFA184B5B68C3F3014301335B00B0FBE4
:100D7C00F3F025E0134B5968C1F3881C4FEA4C1172
:100D8C00B1EB0C006EEB0E0E4FEA8E1343EA906340
:100D9C008101091A63EB0E03DB0043EA5173C900AE
:100DAC0011EB0C0C43F10003990200234FEA8C2049
:100DBC0041EA9C51FFF714FAD3E7034800E00348DB
:100DCC0008BD00BF0038024040787D010024F400CB
:100DDC00002800F09B8070B50D4604464F4B1B68F5
:100DEC0003F00F038B4208D2CBB24C4A137013683A
:100DFC0003F00F038B4240F08B80236813F0020F3B
:100E0C0017D013F0040F04D0454A936843F4E05311
:100E1C009360236813F0080F04D0414A936843F49D
:100E2C00604393603E4A936823F0F003A1680B4340
:100E3C009360236813F0010F32D06368012B21D02B
:100E4C009A1E012A25D9364A126812F0020F61D077
:100E5C0033498A6822F0030213438B6000F088FA4E
:100E6C0006462F4B9B6803F00C036268B3EB820FB2
:100E7C0016D000F07DFA801B41F288339842F0D9ED
:100E8C00032042E0264A126812F4003FE0D1012010
:100E9C003BE0234A126812F0007FD9D1012034E0E4
:100EAC001E4B1B6803F00F03AB4207D9EAB21B4B76
:100EBC001A701B6803F00F03AB422DD1236813F09B
:100ECC00040F06D0164A936823F4E053E1680B43F1
:100EDC009360236813F0080F07D0114A936823F42A
:100EEC006043216943EAC1039360FFF71FFF0C4B7A
:100EFC009B68C3F303130B4AD35CD8400A4B1860AE
:100F0C000A4B186800F0E8F9002070BD012070470A
:100F1C000120FAE70120F8E70120F6E7003C024047
:100F2C0000380240B4230008080000200400002010
:100F3C00014B1868704700BF0800002008B5FFF788
:100F4C00F7FF044B9B68C3F38223034AD35CD8405E
:100F5C0008BD00BF00380240C423000808B5FFF7E5
:100F6C00E7FF044B9B68C3F34233034AD35CD8407E
:100F7C0008BD00BF00380240C423000800230F2B1B
:100F8C0000F2F18070B582B061E085685E000324E8
:100F9C00B44025EA0405CC68B4402C438460456811
:100FAC0025EA02054C68C4F300129A402A434260B9
:100FBC005BE0DC08083450F8246003F0070295006D
:100FCC000F22AA4026EA020E0A69AA4042EA0E0241
:100FDC0040F824205DE0092200E0002202FA0EF223
:100FEC002A430234604D45F82420604A94686FEA25
:100FFC000C0224EA0C054E6816F4801F01D04CEA52
:10100C0004055A4CA560E46802EA04054E6816F41F
:10101C00001F01D04CEA0405544CE560646802EAF8
:10102C0004054E6816F4003F01D04CEA04054F4C01
:10103C006560246822404D6815F4803F01D04CEA6D
:10104C0004024A4C226001330F2B00F28A800122E9
:10105C009A400C6804EA020C32EA0404F3D14C689E
:10106C0004F00304013C012C8FD94A6802F00302FE
:10107C00032A09D0C4685D000322AA4024EA0204B2
:10108C008A68AA402243C2604A6802F00302022A1C
:10109C008FD004684FEA430E032202FA0EF224EAC0
:1010AC0002044A6802F0030202FA0EF222430260C2
:1010BC004A6812F4403FC6D0002201922C4A546C6C
:1010CC0044F480445464526C02F480420192019ABC
:1010DC009C08A51C244A52F8255003F003024FEA41
:1010EC00820E0F2202FA0EF225EA0205214A9042E4
:1010FC003FF473AF02F58062904222D002F5806219
:10110C00904220D002F5806290421ED002F580629F
:10111C0090421CD002F5806290421AD002F5806297
:10112C00904218D002F58062904216D002F580628F
:10113C00904214D002F5806290423FF44CAF0A22E8
:10114C004CE701224AE7022248E7032246E7042241
:10115C0044E7052242E7062240E707223EE7082241
:10116C003CE702B070BD704700380140003C0140C4
:10117C0000380240000002400AB181617047090446
:10118C008161704710B582B000230193194B1A6C22
:10119C0042F080521A641B6C03F080530193019B44
:1011AC00154B01221A6400F0E3F80446134B5B68FC
:1011BC0013F4803F08D100F0DBF8001BB0F57A7F08
:1011CC00F4D9032002B010BD0B4B01225A6400F07D
:1011DC00CFF80446094B5B6813F4003F07D100F0CD
:1011EC00C7F8001BB0F57A7FF4D90320EAE700209A
:1011FC00E8E700BF0038024000000E4200700040DB
:10120C00074AD36823F4E0631B041B0C000200F4B0
:10121C00E060034343F0BF6343F40033D360704793
:10122C0000ED00E000B5194BDB68C3F30223C3F1FA
:10123C00070CBCF1040F28BF4FF0040C03F1040E93
:10124C00BEF1060F18D9033B4FF0FF3E0EFA0CFC13
:10125C0021EA0C0199400EFA03F322EA0303194325
:10126C0000280BDB0901C9B200F1604000F56140B8
:10127C0080F800135DF804FB0023E5E700F00F0095
:10128C000901C9B2024B1954F4E700BF00ED00E0AC
:10129C0014ED00E0002807DB00F01F0240090123D9
:1012AC009340024A42F82030704700BF00E100E052
:1012BC000138B0F1807F0BD24FF0E0235861054A22
:1012CC00F02182F823100020986107221A617047E0
:1012DC000120704700ED00E010B504460E4B187865
:1012EC004FF47A73B3FBF0F30C4A1068B0FBF3F0D5
:1012FC00FFF7DEFF68B90F2C01D901200AE00022AC
:10130C0021464FF0FF30FFF78DFF054B1C6000208E
:10131C0000E0012010BD00BF0000002008000020EC
:10132C000400002008B50B4B1A6842F400721A60D6
:10133C001A6842F480621A601A6842F480721A6069
:10134C000320FFF75DFF0F20FFF7C6FFFFF71EFA24
:10135C00002008BD003C0240034A1168034B1B7877
:10136C000B441360704700BFD40000200000002025
:10137C00014B1868704700BFD4000020034AD2F814
:10138C00883043F47003C2F88830704700ED00E0F9
:10139C0008B50E480E4B03600523436000238360A1
:1013AC00C3604FF4003202614FF480024261037655
:1013BC00012242768276C3760377437700F048F8B1
:1013CC0000B908BDFFF78EF8FBE700BFD80000207E
:1013DC000064004010B588B0002303930493059378
:1013EC00069307930268184B9A4201D008B010BDBF
:1013FC000024019403F5EA331A6C42F000721A646B
:10140C001A6C02F000720192019A02941A6B42F06B
:10141C0008021A631B6B03F008030293029B03235D
:10142C0003930222049206930923079303A9074806
:10143C00FFF7A4FD224621461420FFF7F3FE1420EB
:10144C00FFF728FFD2E700BF00640040000C024009
:10145C00002800F0A18038B5044690F82030D3B1B4
:10146C002268136843F001031360FFF781FF054600
:10147C0023685A6812F0010F10D1FFF779FF401B57
:10148C000A28F5D9636A43F400336362052384F8B0
:10149C002030012038BDFFF79DFFE1E71A6822F0EC
:1014AC0002021A60FFF764FF054623685A6812F0BF
:1014BC00020F0DD0FFF75CFF401B0A28F5D9636AB9
:1014CC0043F400336362052384F820300120E1E704
:1014DC00227E012A3DD01A6822F080021A60637EB7
:1014EC00012B3BD02268136823F040031360A37ECA
:1014FC00012B39D02268136823F020031360E37E9C
:10150C00012B37D02268136843F010031360237F3C
:10151C00012B35D02268136823F008031360637F16
:10152C00012B33D02268136823F004031360A368E3
:10153C00E268134322691343626913436268013AF8
:10154C0021681343CB6100206062012384F82030B2
:10155C00A0E71A6842F080021A60C0E7226813689C
:10156C0043F040031360C2E72268136843F0200382
:10157C001360C4E72268136823F010031360C6E7F6
:10158C002268136843F008031360C8E722681368E5
:10159C0043F004031360CAE70120704770B504469A
:1015AC0090F82050EDB2012D06D0436A43F400238D
:1015BC0043620125284670BD022380F82030026862
:1015CC00136823F001031360FFF7D2FE064623686D
:1015DC005B6813F0010F0CD0FFF7CAFE831B0A2BBC
:1015EC00F5D9636A43F400336362052384F8203031
:1015FC00E0E700256562DDE770477047704770478C
:10160C007047704770477047704770477047704716
:10161C0070472DE9F84F054603685C69D3F80480E0
:10162C009F68D3F80CB0D3F810A0D3F8189014F02E
:10163C0001063BD017F0010616D001229A6017F074
:10164C00020F08D117F0040F0CD117F0080606D0C2
:10165C004FF4805608E0FFF7CFFF002604E0FFF7B9
:10166C00CEFF01E04FF4006617F4807F0DD02B689D
:10167C004FF480729A6017F4007F40F0868017F464
:10168C00806F00F0868046F4005617F4803F0DD032
:10169C002B684FF480329A6017F4003F40F083803F
:1016AC0017F4802F00F0838046F4004614F0080FE6
:1016BC0007D01BF0100F04D046F400762B681022D4
:1016CC00DA6014F0040F02D01BF0080F79D114F07B
:1016DC00020F04D02B68DB6813F0030F78D114F0E1
:1016EC00400F07D01AF0100F04D046F480662B6818
:1016FC0010221A6114F0200F02D01AF0080F6BD1CF
:10170C0014F0100F04D02B681B6913F0030F6AD16F
:10171C0014F4003F02D018F0100F68D114F4803F7D
:10172C0002D018F0080F69D114F4004F7AD018F0D9
:10173C00040F74D014F4807F04D019F0010F01D081
:10174C0046F0010614F4007F04D019F0020F01D00A
:10175C0046F0020614F4806F04D019F0040F01D087
:10176C0046F0040614F4006F59D019F0700956D0E5
:10177C00B9F1400F65D058D8B9F1200F5ED0B9F14E
:10178C00300F42D146F0200644E02846FFF735FFE3
:10179C007BE717F4006F02D046F4804675E72846C5
:1017AC00FFF72EFF71E72846FFF728FF7EE717F4B7
:1017BC00002F02D046F4803678E72846FFF721FF49
:1017CC0074E72B680822DA602846FFF71CFF7EE7D7
:1017DC002846FFF717FF82E72B6808221A61284674
:1017EC00FFF713FF8CE72846FFF70EFF90E72B68F7
:1017FC0010225A602846FFF709FF8FE72B68082252
:10180C005A602846FFF703FF8EE7B9F1100F01D19C
:10181C0046F008062A68936923F0700393612B68DD
:10182C0004225A609EB9BDE8F88FB9F1500F0BD065
:10183C00B9F1600FEED146F48076EBE746F0100676
:10184C00E8E746F04006E5E746F08006E2E76B6A1B
:10185C001E436E622846FFF7DBFEE4E7DFF834D068
:10186C00FFF78CFD0C480D490D4A002302E0D458BB
:10187C00C4500433C4188C42F9D30A4A0A4C0023CE
:10188C0001E013600432A242FBD300F011F8FEF722
:10189C0083FE704700000320000000207000002031
:1018AC00402400087000002014010020FEE7000016
:1018BC0070B50D4D0D4C641BA4100026A64209D129
:1018CC000B4D0C4C00F054FD641BA4100026A642DA
:1018DC0005D170BD55F8043B98470136EEE755F835
:1018EC00043B98470136F2E73824000838240008F6
:1018FC00382400083C24000802440346934200D1DB
:10190C00704703F8011BF9E770B50E46054618B190
:10191C0083690BB900F048FAAB69AC6813B9284677
:10192C0000F042FA2C4B9C4220D16C68636EDB07B2
:10193C0005D4A389980502D4A06D00F0D3FAA3892D
:10194C0019071DD52369DBB1013EA36816F8011FE9
:10195C00013BA36039BB002B38DA22460A2128460A
:10196C0000F048F8013011D00A2511E01B4B9C42C5
:10197C0001D1AC68DAE71A4B9C4208BFEC68D5E79A
:10198C002146284600F088F80028DDD04FF0FF35BE
:10199C00636EDA0705D4A3899B0502D4A06D00F011
:1019AC00A2FA284670BD002B04DAA2699A4206DC22
:1019BC000A2904D023685A1C22601970C5E72246F4
:1019CC00284600F017F80130BFD1DFE723680A255D
:1019DC005A1C22601D70DBE7F0230008102400085D
:1019EC00D0230008024B01461868FFF78DBF00BFDB
:1019FC000C000020F8B50E461446054618B1836954
:101A0C000BB900F0D1F9214B9C422BD16C68A36926
:101A1C00A360A3891A072FD523696BB323692068A8
:101A2C00C01A6369F6B28342374604DC2146284665
:101A3C0000F026F930BBA368013BA36023685A1C55
:101A4C0022601E7063690130834204D0A389DB07D6
:101A5C0006D50A2E04D12146284600F011F988B982
:101A6C003846F8BD0A4B9C4201D1AC68CFE7094B14
:101A7C009C4208BFEC68CAE72146284600F00CF8E7
:101A8C000028CBD04FF0FF37EAE700BFF023000867
:101A9C0010240008D0230008324B70B51D68064690
:101AAC000C4625B1AB6913B9284600F07DF92E4BD5
:101ABC009C420FD16C68A389B4F90C2019072CD463
:101ACC00DD0611D40923336042F04003A3814FF0AB
:101ADC00FF303EE0254B9C4201D1AC68EBE7244B38
:101AEC009C4208BFEC68E6E7580712D5616B41B120
:101AFC0004F14403994202D0304600F05BFA002313
:101B0C006363A38923F02403A38100236360236907
:101B1C002360A38943F00803A38123694BB9A389EC
:101B2C0003F42073B3F5007F03D02146304600F058
:101B3C0001FAA089B4F90C2010F001030AD000239B
:101B4C00A36063695B42A361236943B910F0800011
:101B5C00BAD170BD810758BF6369A360F4E7002058
:101B6C00F7E700BF0C000020F02300081024000849
:101B7C00D02300088A892DE9F041054610070C4650
:101B8C0058D44B68002B05DC0B6C002B02DC0020BE
:101B9C00BDE8F081E66A002EF9D0002312F48052E1
:101BAC002F682B6032D0606DA3895A0705D5636806
:101BBC00C01A636B0BB1236CC01A00230246E66A91
:101BCC00216A2846B047431CA38906D129681D29E0
:101BDC002CD82A4ACA40D60728D500226260D904DC
:101BEC002269226004D5421C01D12B6803B96065BF
:101BFC00616B2F600029CAD004F14403994202D0D2
:101C0C00284600F0D7F900206063C1E7216A012360
:101C1C002846B047411CC7D12B68002BC4D01D2BC4
:101C2C0001D0162B01D12F60B1E7A38943F04003FB
:101C3C00A381ADE70F69002FA9D093070E6808BFE9
:101C4C004B690F6018BF0023A6EB07088B60B8F137
:101C5C00000F9CDD216AA66A43463A462846B047E7
:101C6C00002806DCA38943F04003A3814FF0FF302A
:101C7C008EE70744A8EB0008E9E700BF010040200D
:101C8C0038B50B6905460C4613B90025284638BDF6
:101C9C0018B183690BB900F087F8144B9C421BD127
:101CAC006C68B4F90C30002BEFD0626ED00704D402
:101CBC00990502D4A06D00F015F928462146FFF7CE
:101CCC0059FF636EDA070546E0D4A3899B05DDD482
:101CDC00A06D00F008F9D9E7054B9C4201D1AC6826
:101CEC00DFE7044B9C4208BFEC68DAE7F0230008FE
:101CFC0010240008D0230008002310B50446C0E9C6
:101D0C000033C0E90433836081814366C2818361FF
:101D1C00194608225C30FFF7EFFD054B6362054B5B
:101D2C00A362054BE362054B2462236310BD00BF25
:101D3C00A1210008C3210008FB2100081F22000874
:101D4C00014900F0AFB800BF8D1C000870B56822C7
:101D5C004D1E55430E4605F1740100F097F90446EB
:101D6C0040B10021C0E900160C30A06005F16802FA
:101D7C00FFF7C2FD204670BD014800F0B3B800BFAC
:101D8C0001010020014800F0AEB800BF01010020A5
:101D9C00014800F0A7B800BF02010020014800F084
:101DAC00A2B800BF0201002010B50446FFF7F0FFF7
:101DBC00A3691BB1BDE81040FFF7F0BFC4E91233B3
:101DCC002365134B134A1B68A262A34204BF012371
:101DDC00A361204600F020F86060204600F01CF85B
:101DEC00A060204600F018F80022E0600421606832
:101DFC00FFF782FFA06801220921FFF77DFFE06851
:101E0C0002221221FFF778FF0123A361D2E700BF62
:101E1C00CC2300084D1D0008F8B50746FFF7ACFFB2
:101E2C001E4B1E68B36913B93046FFF7BDFF483629
:101E3C00D6E90134013B03D533680BB33668F7E7B9
:101E4C00B4F90C50D5B9164BE36004F15800656633
:101E5C0000F047F8FFF796FFC4E90155C4E90455B3
:101E6C002560A5610822294604F15C00FFF744FDBA
:101E7C00C4E90D55C4E912552046F8BD6834D9E7BC
:101E8C0004213846FFF762FF044630600028D5D1A4
:101E9C00FFF778FF0C233B60EEE700BFCC23000874
:101EAC000100FFFF2DE9F8430646884600F148047F
:101EBC000027D4E90195B9F1010905D52468002C56
:101ECC00F7D13846BDE8F883AB89012B07D9B5F9B2
:101EDC000E30013303D029463046C04707436835DE
:101EEC00E9E770477047704770B50E46B1F90E10B0
:101EFC00002996B014461D4608DAB6F90C300022BB
:101F0C002A601A0610D44FF480630EE06A4600F083
:101F1C00A7F90028F1DB019A02F47042A2F50053F4
:101F2C005A425A412A60EEE740230020236016B043
:101F3C0070BD00008B8973B59D0706460C4607D50E
:101F4C0004F14703236023610123636102B070BD78
:101F5C0001AB6A46FFF7C8FF00990546304600F012
:101F6C0095F848B9B4F90C309A05EFD423F0030373
:101F7C0043F00203A381E3E70D4BB362A389206016
:101F8C0043F08003A381009B6361019B20615BB1E3
:101F9C00B4F90E10304600F075F928B1A38923F07E
:101FAC00030343F00103A381A0890543A581CDE779
:101FBC004D1D000837B5002944D051F8043C019060
:101FCC00002BA1F10404B8BFE41800F07DF91E4AFF
:101FDC000198136833B96360146003B0BDE83040F6
:101FEC0000F078B9A34208D9256861198B4201BF6A
:101FFC0019685B6849192160EDE71A465B680BB1FB
:10200C00A342FAD911685518A5420BD12468214472
:10201C005418A3421160E0D11C685B6853602144E2
:10202C001160DAE702D90C230360D6E72568611941
:10203C008B4204BF19685B68636004BF4919216057
:10204C005460CAE703B030BD0401002070B50E4ED9
:10205C000C463168054611B900F08CF83060214609
:10206C00284600F087F8431C0AD0C41C24F0030453
:10207C00A04207D0211A284600F07CF8013001D18B
:10208C004FF0FF34204670BD080100202DE9F041CF
:10209C00CD1C25F0030508350C2D38BF0C25002D63
:1020AC00074601DBA94205D90C233B6000263046CC
:1020BC00BDE8F0812E4E00F007F933681C4634BBA6
:1020CC0029463846FFF7C2FF431C04464DD13468FD
:1020DC002646002E40D123683146384604EB0308CF
:1020EC0000F048F880453AD1216803356D1A25F087
:1020FC00030508350C2D38BF0C2529463846FFF74B
:10210C00A5FF01302BD023682B4423600EE02268FE
:10211C00521B1ED40B2A16D96119A342256018BF75
:10212C005960636808BF316062514B60384604F1F6
:10213C000B0600F0CFF826F00706231DF21AB6D0D6
:10214C009B1BA350B3E76268A3420CBF32605A607A
:10215C00ECE723466468B2E734467668B9E70C23AB
:10216C003B60384600F0B6F8A1E72560DEE700BF1B
:10217C000401002038B5064D0023044608462B60A8
:10218C0000F0E8F8431C02D12B6803B1236038BD82
:10219C000C01002010B50C46B1F90E1000F0A0F89F
:1021AC000028ABBF636DA3891B1823F48053ACBF0D
:1021BC006365A38110BD2DE9F0411F468B89DB05BA
:1021CC0005460C46164605D5B1F90E100223002221
:1021DC0000F068F8A389B4F90E1023F48053A3819E
:1021EC0032463B462846BDE8F04100F017B810B522
:1021FC000C46B1F90E1000F055F8431CA38915BF1D
:10220C00606523F4805343F48053A38118BFA381EA
:10221C0010BDB1F90E1000F013B8000038B5074D21
:10222C0004460846114600222A601A46FEF77EFA3A
:10223C00431C02D12B6803B1236038BD0C01002074
:10224C0038B5064D0023044608462B6000F05AF8BA
:10225C00431C02D12B6803B1236038BD0C01002054
:10226C0038B5074D00230446084611462B6000F094
:10227C0051F8431C02D12B6803B1236038BD00BF59
:10228C000C01002038B5064D0023044608462B608F
:10229C0000F048F8431C02D12B6803B1236038BD11
:1022AC000C01002038B5074D0446084611460022A3
:1022BC002A601A4600F03EF8431C02D12B6803B189
:1022CC00236038BD0C0100200148FFF70BBE00BF96
:1022DC00000100200148FFF706BE00BF00010020EE
:1022EC0038B5074D04460846114600222A601A46A6
:1022FC0000F028F8431C02D12B6803B1236038BDD1
:10230C000C010020024B58221A604FF0FF3070472E
:10231C000C010020024B58221A604FF0FF3070471E
:10232C000C010020024B58221A600020704700BF9D
:10233C000C010020024B58221A604FF0FF307047FE
:10234C000C010020024B58221A604FF0FF307047EE
:10235C000C010020044A05491368002B08BF0B46EA
:10236C001844106018467047100100201801002016
:10237C00F8B500BFF8BC08BC9E467047F8B500BF66
:08238C00F8BC08BC9E46704736
:1023940057656C636F6D6520746F20746865205891
:1023A40048206C696272617279205E765E0000007A
:1023B40000000000000000000102030406070809F1
:1023C40000000000010203041000002000000000CF
:1023D40000000000000000000000000000000000F9
:1023E40000000000000000000000000000000000E9
:1023F40000000000000000000000000000000000D9
:1024040000000000000000000000000000000000C8
:1024140000000000000000000000000000000000B8
:0C242400000000000000000000000000AC
:08243000ECDDFF7F010000005C
:04243800D1010008C6
:04243C00AD010008E6
:1024400001000000100000000024F4001000002033
:1024500000000000F023000810240008D02300082A
:10246000000000000000000000000000000000006C
:10247000000000000000000000000000000000005C
:10248000000000000000000000000000000000004C
:10249000000000000000000000000000000000003C
:1024A000000000000000000000000000000000002C
:04000005080018696E
:00000001FF
