:020000040800F2
:1000000000000320AD2700089D0800089F08000895
:10001000A1080008A3080008A508000800000000C7
:10002000000000000000000000000000A708000819
:10003000A908000800000000AB080008AD0800088F
:10004000FD270008FD270008FD270008FD27000800
:10005000FD270008FD270008FD270008FD270008F0
:10006000FD270008FD270008FD270008FD270008E0
:10007000FD270008FD270008FD270008FD270008D0
:10008000FD270008FD270008FD270008FD270008C0
:10009000B5080008FD270008FD270008FD27000817
:1000A000FD270008FD270008FD270008FD270008A0
:1000B000FD270008FD270008FD270008FD27000890
:1000C000FD270008FD270008FD270008FD27000880
:1000D000FD270008C5080008D5080008FD2700080E
:1000E000FD270008FD270008FD270008FD27000860
:1000F000FD270008FD270008FD270008FD27000850
:10010000FD270008FD270008FD270008FD2700083F
:10011000FD270008FD270008FD270008FD2700082F
:10012000FD270008FD270008E5080008FD27000856
:10013000FD270008FD270008FD270008FD2700080F
:10014000FD270008FD270008FD270008FD270008FF
:10015000FD270008FD270008FD270008FD270008EF
:10016000FD270008FD270008FD270008FD270008DF
:10017000FD270008FD270008FD27000800000000FB
:10018000FD270008FD270008FD270008FD270008BF
:10019000FD270008FD270008FD270008FD270008AF
:0C01A0000000000000000000FD27000827
:1001AC0010B5054C237833B9044B13B10448AFF3A5
:1001BC0000800123237010BD0C0000200000000003
:1001CC005828000808B5034B1BB103490348AFF38B
:1001DC00008008BD00000000100000205828000816
:1001EC0053B94AB9002908BF00281CBF4FF0FF3192
:1001FC004FF0FF3000F074B9ADF1080C6DE904CE8E
:10020C0000F006F8DDF804E0DDE9022304B07047E5
:10021C002DE9F047089D04468E46002B4DD18A42AD
:10022C00944669D9B2FA82F252B101FA02F3C2F1E0
:10023C00200120FA01F10CFA02FC41EA030E944071
:10024C004FEA1C48210CBEFBF8F61FFA8CF708FB92
:10025C0016E341EA034306FB07F199420AD91CEB6A
:10026C00030306F1FF3080F01F81994240F21C819C
:10027C00023E63445B1AA4B2B3FBF8F008FB1033E4
:10028C0044EA034400FB07F7A7420AD91CEB040419
:10029C0000F1FF3380F00A81A74240F207816444E9
:1002AC00023840EA0640E41B00261DB1D44000236E
:1002BC00C5E900433146BDE8F0878B4209D9002DD2
:1002CC0000F0EF800026C5E9000130463146BDE85C
:1002DC00F087B3FA83F6002E4AD18B4202D38242C6
:1002EC0000F2F980841A61EB030301209E46002D75
:1002FC00E0D0C5E9004EDDE702B9FFDEB2FA82F2CA
:10030C00002A40F09280A1EB0C014FEA1C471FFA27
:10031C008CFE0126200CB1FBF7F307FB131140EA0E
:10032C0001410EFB03F0884208D91CEB010103F1DB
:10033C00FF3802D2884200F2CB804346091AA4B29D
:10034C00B1FBF7F007FB101144EA01440EFB00FE71
:10035C00A64508D91CEB040400F1FF3102D2A645D6
:10036C0000F2BB800846A4EB0E0440EA03409CE775
:10037C00C6F12007B34022FA07FC4CEA030C20FA22
:10038C0007F401FA06F31C43F9404FEA1C4900FA42
:10039C0006F3B1FBF9F8200C1FFA8CFE09FB1811BF
:1003AC0040EA014108FB0EF0884202FA06F20BD932
:1003BC001CEB010108F1FF3A80F08880884240F282
:1003CC008580A8F102086144091AA4B2B1FBF9F0C6
:1003DC0009FB101144EA014100FB0EFE8E4508D9C1
:1003EC001CEB010100F1FF346CD28E456AD9023846
:1003FC00614440EA0840A0FB0294A1EB0E01A1422B
:10040C00C846A64656D353D05DB1B3EB080261EB98
:10041C000E0101FA07F722FA06F3F1401F43C5E972
:10042C00007100263146BDE8F087C2F12003D840A8
:10043C000CFA02FC21FA03F3914001434FEA1C47EA
:10044C001FFA8CFEB3FBF7F007FB10360B0C43EADC
:10045C00064300FB0EF69E4204FA02F408D91CEB8C
:10046C00030300F1FF382FD29E422DD9023863448A
:10047C009B1B89B2B3FBF7F607FB163341EA03412A
:10048C0006FB0EF38B4208D91CEB010106F1FF3879
:10049C0016D28B4214D9023E6144C91A46EA004670
:1004AC0038E72E46284605E70646E3E61846F8E602
:1004BC004B45A9D2B9EB020864EB0C0E0138A3E74B
:1004CC004646EAE7204694E74046D1E7D0467BE72C
:1004DC00023B614432E7304609E76444023842E7A4
:1004EC00704700BF10B58AB0012208920023069312
:1004FC000792009301930293039305930493054C85
:10050C006946204601F036FF204601F0CFFF0AB0C5
:10051C0010BD00BF3801002010B5074C1922214630
:10052C00064800F079FE40F6FF731A222146044873
:10053C0000F061FB10BD00BF28000020A4000020CB
:10054C00EC00002072B6FEE700B595B03022002119
:10055C0008A802F073F90023039304930593069300
:10056C0007930193224A116C41F080511164126C73
:10057C0002F080520192019A02931E4A116841F4D2
:10058C0040411160126802F440420292029A022227
:10059C00089201210B9110210C910E920F930823BC
:1005AC001093B423119312920423139308A800F010
:1005BC0047FEB0B901F0D2FCA8B90F230393022374
:1005CC000493002305934FF4A05306934FF48053E8
:1005DC000793052103A801F081F830B915B05DF837
:1005EC0004FBFFF7AFFFFFF7ADFFFFF7ABFF00BF5B
:1005FC00003802400070004008B501F07FFDFFF7A5
:10060C00A3FF00F013F802F0B1F800F093F801F03A
:10061C00ABFD00F06FF8044801F048FFFFF762FFF4
:10062C00FFF77AFFFCE700BF38010020F0B58BB074
:10063C0000240594069407940894099400942A4B7A
:10064C001A6B42F001021A631A6B02F0010200925B
:10065C00009A01941A6B42F002021A631A6B02F0B0
:10066C0002020192019A02941A6B42F008021A6378
:10067C001A6B02F008020292029A03941A6B42F06F
:10068C0080021A631A6B02F080020392039A04949C
:10069C001A6B42F040021A631B6B03F04003049385
:1006AC00049B124F22463C21384601F0EBF9104DC9
:1006BC0022464FF4FF71284601F0E4F93C230593E0
:1006CC00012606960794089405A9384601F0DCF833
:1006DC004FF4FF73059306960794089405A92846D2
:1006EC0001F0D2F80BB0F0BD00380240001C024003
:1006FC000018024008B50C480C4B03600C4B4360CF
:10070C004FF4805383600023C3604FF48062026116
:10071C000C2242618361C36100F03DFA00B908BD4F
:10072C00FFF710FFFBE700BFA40000200010014002
:10073C00A086010008B50A480A4B03604FF4E13368
:10074C00436000238360C36003610C2242618361B8
:10075C00C36100F020FA00B908BDFFF7F3FEFBE718
:10076C00EC0000200044004030B58BB00023059312
:10077C00069307930893099303683E4A934204D067
:10078C003D4A93424AD00BB030BD0446002501953A
:10079C003A4B5A6C42F010025A645A6C02F0100236
:1007AC000192019A02951A6B42F002021A631B6BBA
:1007BC0003F002030293029BC023059302230693CA
:1007CC00032308930723099305A92D4801F05CF82E
:1007DC002C482D4B03604FF0006343608560C5606F
:1007EC004FF480630361456185614FF48073C3618D
:1007FC004FF440330362456201F0CAF958B9214BFA
:10080C00E3639C6300221146252001F0F7FB2520B1
:10081C0001F02CFCB7E7FFF795FEF0E700240394FA
:10082C00164B1A6C42F400321A641A6C02F4003241
:10083C000392039A04941A6B42F008021A631B6B1E
:10084C0003F008030493049B60230593022306938F
:10085C00032308930723099305A90C4801F014F806
:10086C0022462146262001F0C9FB262001F0FEFB82
:10087C0089E700BF001001400044004000380240EE
:10088C00000402404400002040640240000C02407E
:10089C00FEE7FEE7FEE7FEE7FEE7704770477047AE
:1008AC0008B501F045FC08BD08B5024801F039FE59
:1008BC0008BD00BF3801002008B5024800F0BAFAA4
:1008CC0008BD00BFA400002008B5024800F0B2FA31
:1008DC0008BD00BFEC00002008B5024801F050FA3A
:1008EC0008BD00BF4400002082B0002100910B4BDA
:1008FC005A6C42F480425A645A6C02F48042009260
:10090C00009A01911A6C42F080521A641B6C03F02D
:10091C0080530193019B02B0704700BF0038024026
:10092C00026802F10C0353E8003F23F0C0030C32C1
:10093C0042E800310029F3D1202380F84130704780
:10094C00026802F10C0353E8003F23F490730C325D
:10095C0042E800310029F3D1026802F1140353E894
:10096C00003F23F00103143242E800310029F3D197
:10097C00036B012B05D0202380F842300023036346
:10098C007047026802F10C0353E8003F23F0100398
:10099C000C3242E800310029F3D1ECE790F84130F9
:1009AC00DBB2212B01D0022070478368B3F5805F46
:1009BC0017D0036A5A1C02621A7803685A60C38CF7
:1009CC009BB2013B9BB2C3844BB90268D36823F042
:1009DC008003D3600268D36843F04003D3600020E7
:1009EC0070470369002BE4D1036A1B880268C3F3C8
:1009FC0008035360036A02330362E0E738B5044628
:100A0C000268136923F44053C1680B431361836874
:100A1C000269134342691343C2691A430168CB68E4
:100A2C0023F4164323F00C031343CB600268536981
:100A3C0023F4407381690B4353610368314A934239
:100A4C0006D002F58062934202D000F0FDFE01E078
:100A5C0000F00AFFE369B3F5004F29D00021031819
:100A6C0049411B1841F10001C90041EA5371DB00F7
:100A7C00181863684FEA83024FEA937341F100013F
:100A8C00FFF7AEFB204DA5FB00325109642303FB9D
:100A9C0011031B013233A5FB03235B0903F0F002A6
:100AAC0002EB011203F00F03216813448B6038BD75
:100ABC000023021843EB0301121841F10001C90095
:100ACC0041EA5271D200101841F10001626892188B
:100ADC005B41FFF785FB0C4DA5FB003251096423EC
:100AEC0003FB1103DB003233A5FB03235B095A0024
:100AFC0002F4F87202EB011203F0070321681344AD
:100B0C008B60D4E7001001401F85EB512DE9F043B9
:100B1C0083B005460E4617469946DDF828802C68AA
:100B2C00246836EA04030CBF4FF0010C4FF0000CA4
:100B3C00BC4528D1B8F1FF3FF1D001F005FBA0EB8B
:100B4C000900404523D8B8F1000F22D02B68DA6891
:100B5C0012F0040FE3D0802EE1D0402EDFD01A68C3
:100B6C0012F0080FDBD0002401941A6801925B6824
:100B7C000193019B2846FFF7E3FE08236B6485F87D
:100B8C004040012000E0002003B0BDE8F0830320CA
:100B9C00FAE70320F8E760B310B5044690F841304B
:100BAC0013B3242384F841302268D36823F4005310
:100BBC00D3602046FFF722FF2268136923F4904389
:100BCC0013612268536923F02A0353612268D368A6
:100BDC0043F40053D36000206064202384F8413038
:100BEC0084F84230606310BD80F84030FFF7BCFDE4
:100BFC00D7E7012070472DE9F04182B01E4690F8EE
:100C0C004130DBB2202B56D104460D4690460029CC
:100C1C0055D00AB901204FE000234364212380F80A
:100C2C00413001F091FA0746A4F82480A4F82680FC
:100C3C00A368B3F5805F02D04FF0000814E023697D
:100C4C002BB34FF000080FE0202384F84130032031
:100C5C0032E038F8023B2268C3F308035360E28C9D
:100C6C0092B2013A92B2E284E38C9BB293B10096B9
:100C7C003B46002280212046FFF748FF0028E3D1A5
:100C8C00002DE6D015F8012B23685A60E7E7A8463B
:100C9C000025E9E700963B46002240212046FFF75D
:100CAC0035FF18B9202384F8413005E0202384F85F
:100CBC004130032000E0022002B0BDE8F0810120A9
:100CCC00FAE7704708B50168CA6822F04002CA60AA
:100CDC00202280F84120FFF7F4FF002008BD704768
:100CEC007047704710B5846B23685A6994F841308B
:100CFC00DBB2212B10D023685A6902F0400294F821
:100D0C004230DBB2222B11D0636C43F010036364CE
:100D1C002046FFF7E6FF10BD02F08002002AEAD061
:100D2C000023E3842046FFF7FBFDE4E7002AEBD029
:100D3C000023E3852046FFF703FEE5E708B5806B4B
:100D4C000023C385C384FFF7CCFF08BD704790F820
:100D5C004230DBB2222B69D18368B3F5805F4FD070
:100D6C00826AB3F5805F04D0002B56D10369002B47
:100D7C0053D103685B681370836A01338362C38D3C
:100D8C009BB2013B9BB2C385002B51D100B583B004
:100D9C000268D36823F02003D3600268D36823F47D
:100DAC008073D3600268536923F0010353612023DD
:100DBC0080F8423000234363036B012B33D10023B3
:100DCC000363026802F10C0353E8003F23F01003A5
:100DDC000C3242E800310029F3D103681A6812F092
:100DEC00100F06D0002201921A6801925B680193E1
:100DFC00019B818DFFF7AAFF002003B05DF804FB77
:100E0C000269002AACD1826A03685B68C3F30803E9
:100E1C001380836A02338362B1E703685B6803F073
:100E2C007F031370A8E7FFF75AFFE5E7022070472E
:100E3C000020704730B583B0044602681368D06850
:100E4C00516913F00F0505D113F0200F02D010F0EB
:100E5C00200F19D12DB111F0010119D110F4907F8F
:100E6C0016D1216B01297DD013F0800F03D010F027
:100E7C00800F40F0198113F0400F03D010F0400F99
:100E8C0040F0168103B030BD2046FFF760FFF9E754
:100E9C0013F0010F06D010F4807F03D0626C42F087
:100EAC000102626413F0040F04D019B1626C42F0B9
:100EBC000202626413F0020F04D019B1626C42F0AA
:100ECC000402626413F0080F07D010F0200F00D159
:100EDC0019B1626C42F008026264626C002AD1D0D3
:100EEC0013F0200F02D010F0200F29D123685B697A
:100EFC0003F04003626C12F0080F00D163B320467C
:100F0C00FFF71EFD23685B6913F0400F20D02268A9
:100F1C0002F1140353E8003F23F04003143242E87B
:100F2C0000310029F3D1E36B73B1634A1A65E06BAE
:100F3C0000F013FF0028A5D0E06B036D9847A1E7E4
:100F4C002046FFF704FFD1E72046FFF7CAFE99E7DA
:100F5C002046FFF7C6FE95E72046FFF7C2FE0023AA
:100F6C0063648FE713F0100F3FF47EAF10F0100F97
:100F7C003FF47AAF002301931368019353680193F4
:100F8C00019B536913F0400F52D0E26B13685B68FE
:100F9C009BB2002B3FF476AFA18D99427FF672AFD6
:100FAC00E385D369B3F5807F37D0226802F10C0357
:100FBC0053E8003F23F480730C3242E800310029DF
:100FCC00F3D1226802F1140353E8003F23F001032C
:100FDC00143242E800310029F3D1226802F11403E3
:100FEC0053E8003F23F04003143242E8003100295B
:100FFC00F3D1202384F8423000232363226802F1CA
:10100C000C0353E8003F23F010030C3242E800318C
:10101C000029F3D1E06B00F056FE02236363A18D2F
:10102C00E38D9BB2C91A89B22046FFF78FFE29E7E0
:10103C00A18DE38D9BB2C91A89B2E38D9BB2002BB3
:10104C003FF420AF00293FF41DAF226802F10C03DE
:10105C0053E8003F23F490730C3242E80030002830
:10106C00F3D1226802F1140353E8003F23F001038B
:10107C00143242E800300028F3D1202384F84230A7
:10108C0000232363226802F10C0353E8003F23F092
:10109C0010030C3242E800300028F3D102236363C2
:1010AC002046FFF753FEEDE62046FFF777FCE9E616
:1010BC002046FFF707FEE5E6490D000808B5806BF2
:1010CC0001234363036B012B02D0FFF709FE08BD1C
:1010DC00818D4908FFF73AFEF9E708B50346806BA6
:1010EC001B681B6813F4807F2BD10023C385026817
:1010FC0002F10C0353E8003F23F480730C3242E8F6
:10110C0000310029F3D1026802F1140353E8003FC7
:10111C0023F00103143242E800310029F3D10268B4
:10112C0002F1140353E8003F23F04003143242E869
:10113C0000310029F3D1202380F84230036B012BBE
:10114C0007D000234363036B012B0FD0FFF7C7FDC0
:10115C0008BD026802F10C0353E8003F23F01003B2
:10116C000C3242E800310029F3D1EAE7818DFFF718
:10117C00EDFDEDE730B583B0044613468162828500
:10118C0000254564222280F84220C26B1F48D063A0
:10119C00E26B1F481064E26B1E48D064E26B15656D
:1011AC0020680A46011DE06B00F058FD019523688C
:1011BC001A6801925B680193019B23695BB12268F9
:1011CC0002F10C0353E8003F43F480730C3242E805
:1011DC0000310029F3D1226802F1140353E8003FD7
:1011EC0043F00103143242E800310029F3D12268A4
:1011FC0002F1140353E8003F43F04003143242E879
:10120C0000310029F3D1002003B030BDE7100008F5
:10121C00C9100008F10C000808B590F84230DBB298
:10122C00202B08D149B10AB9012008BD0023036362
:10123C00FFF7A0FFF9E70220F7E70120F5E7000030
:10124C00002800F0E08170B582B00446036813F00A
:10125C00010F3BD09F4B9B6803F00C03042B2CD04D
:10126C009C4B9B6803F00C03082B21D06368B3F5EF
:10127C00803F4FD0B3F5A02F52D0964B1A6822F472
:10128C0080321A601A6822F480221A606368002B7C
:10129C0050D000F059FF05468E4B1B6813F4003FED
:1012AC0014D100F051FF401B6428F5D90320B1E1A3
:1012BC00884B5B6813F4800FD8D0864B1B6813F4F3
:1012CC00003F03D06368002B00F09F81236813F06C
:1012DC00020F54D07F4B9B6813F00C0F3ED07D4B0C
:1012EC009B6803F00C03082B33D0E368002B68D009
:1012FC00794B01221A6000F027FF0546754B1B68DD
:10130C0013F0020F54D100F01FFF401B0228F5D937
:10131C0003207FE16F4A136843F480331360B5E711
:10132C006C4B1A6842F480221A601A6842F48032BC
:10133C001A60ABE700F008FF0546664B1B6813F418
:10134C00003FC3D000F000FF401B6428F5D90320F8
:10135C0060E1604B5B6813F4800FC6D15D4B1B687A
:10136C0013F0020F03D0E368012B40F05081594A6F
:10137C00136823F0F803216943EAC103136023685F
:10138C0013F0080F42D063696BB3534B0122C3F8BF
:10139C00802E00F0D9FE05464E4B5B6F13F0020F0A
:1013AC0034D100F0D1FE401B0228F5D9032031E1E5
:1013BC00484A136823F0F803216943EAC103136018
:1013CC00DDE7454B00221A6000F0BEFE0546414B9E
:1013DC001B6813F0020FD2D000F0B6FE401B02289F
:1013EC00F5D9032016E13C4B0022C3F8802E00F007
:1013FC00ABFE0546374B5B6F13F0020F06D000F0C7
:10140C00A3FE401B0228F5D9032003E1236813F047
:10141C00040F77D02F4B1B6C13F0805F33D100235C
:10142C0001932C4B1A6C42F080521A641B6C03F023
:10143C0080530193019B0125284B1B6813F4807F7B
:10144C0023D0A368012B34D0052B38D0214B1A6F35
:10145C0022F001021A671A6F22F004021A67A368BD
:10146C00002B3DD000F070FE06461A4B1B6F13F09C
:10147C00020F46D100F068FE801B41F2883398427F
:10148C00F3D90320C6E00025D6E7144A136843F4C9
:10149C008073136000F058FE0646104B1B6813F463
:1014AC00807FCED100F050FE801B0228F5D903209E
:1014BC00B0E0084A136F43F001031367CFE7054B05
:1014CC001A6F42F004021A671A6F42F001021A678F
:1014DC00C5E700BF003802400000474200700040E2
:1014EC0000F032FE0646524B1B6F13F0020F08D071
:1014FC0000F02AFE801B41F288339842F3D9032076
:10150C0088E0EDB9A369002B00F08380484A92680B
:10151C0002F00C02082A51D0022B17D0454B0022A6
:10152C001A6600F011FE0446414B1B6813F0007F55
:10153C0042D000F009FE001B0228F5D9032069E017
:10154C003B4A136C23F080531364DBE7394B0022C6
:10155C001A6600F0F9FD0546354B1B6813F0007F49
:10156C0006D000F0F1FD401B0228F5D9032051E014
:10157C00E369226A1343626A43EA8213A26A52083D
:10158C00013A43EA0243E26A43EA0263284A53609F
:10159C00284B01221A6600F0D7FD0446244B1B6829
:1015AC0013F0007F06D100F0CFFD001B0228F5D907
:1015BC0003202FE000202DE000202BE0012B2BD06E
:1015CC001B4B5B6803F48001E269914226D103F066
:1015DC003F02216A8A4223D1616A47F6C0721A40DF
:1015EC00B2EB811F1ED103F44031A26A5208013ABA
:1015FC00B1EB024F18D103F07063E26AB3EB026FE8
:10160C0014D1002006E001207047012002E00120E7
:10161C0000E0002002B070BD0120FBE70120F9E7DB
:10162C000120F7E70120F5E70120F3E70120F1E7BE
:10163C00003802400000474208B5254B9B6803F078
:10164C000C03042B3FD0082B3FD1214B5A6802F0DE
:10165C003F025B6813F4800F12D01D4B5968C1F325
:10166C0088111C480023A1FB0001FEF7B9FD184BA3
:10167C005B68C3F3014301335B00B0FBF3F025E07F
:10168C00134B5968C1F3881C4FEA4C11B1EB0C0099
:10169C006EEB0E0E4FEA8E1343EA90638101091A2A
:1016AC0063EB0E03DB0043EA5173C90011EB0C0C26
:1016BC0043F10003990200234FEA8C2041EA9C512C
:1016CC00FEF78EFDD3E7034800E0034808BD00BFDA
:1016DC000038024040787D010024F400002800F01E
:1016EC009B8070B50D4604464F4B1B6803F00F03EF
:1016FC008B4208D2CBB24C4A1370136803F00F0321
:10170C008B4240F08B80236813F0020F17D013F03C
:10171C00040F04D0454A936843F4E0539360236864
:10172C0013F0080F04D0414A936843F4604393606C
:10173C003E4A936823F0F003A1680B43936023683F
:10174C0013F0010F32D06368012B21D09A1E012AAD
:10175C0025D9364A126812F0020F61D033498A68D3
:10176C0022F0030213438B6000F0EEFC06462F4B75
:10177C009B6803F00C036268B3EB820F16D000F089
:10178C00E3FC801B41F288339842F0D9032042E0FD
:10179C00264A126812F4003FE0D101203BE0234AB4
:1017AC00126812F0007FD9D1012034E01E4B1B6867
:1017BC0003F00F03AB4207D9EAB21B4B1A701B683C
:1017CC0003F00F03AB422DD1236813F0040F06D0A6
:1017DC00164A936823F4E053E1680B439360236843
:1017EC0013F0080F07D0114A936823F46043216962
:1017FC0043EAC1039360FFF71FFF0C4B9B68C3F3D5
:10180C0003130B4AD35CD8400A4B18600A4B186878
:10181C0000F04EFC002070BD012070470120FAE75B
:10182C000120F8E70120F6E7003C024000380240B6
:10183C00782800080800002004000020014B1868DC
:10184C00704700BF0800002008B5FFF7F7FF044BF6
:10185C009B68C3F38223034AD35CD84008BD00BF06
:10186C00003802408828000808B5FFF7E7FF044B52
:10187C009B68C3F34233034AD35CD84008BD00BF16
:10188C00003802408828000800230F2B00F2F1805A
:10189C0070B582B061E085685E000324B44025EA2F
:1018AC000405CC68B4402C438460456825EA0205E5
:1018BC004C68C4F300129A402A4342605BE0DC0897
:1018CC00083450F8246003F0070295000F22AA4058
:1018DC0026EA020E0A69AA4042EA0E0240F82420C7
:1018EC005DE0092200E0002202FA0EF22A430234E3
:1018FC00604D45F82420604A94686FEA0C0224EA93
:10190C000C054E6816F4801F01D04CEA04055A4CA5
:10191C00A560E46802EA04054E6816F4001F01D0C5
:10192C004CEA0405544CE560646802EA04054E6810
:10193C0016F4003F01D04CEA04054F4C6560246856
:10194C0022404D6815F4803F01D04CEA04024A4C09
:10195C00226001330F2B00F28A8001229A400C681E
:10196C0004EA020C32EA0404F3D14C6804F00304D8
:10197C00013C012C8FD94A6802F00302032A09D0DA
:10198C00C4685D000322AA4024EA02048A68AA40C3
:10199C002243C2604A6802F00302022A8FD0046814
:1019AC004FEA430E032202FA0EF224EA02044A68BA
:1019BC0002F0030202FA0EF2224302604A6812F4A9
:1019CC00403FC6D0002201922C4A546C44F480440F
:1019DC005464526C02F480420192019A9C08A51C3A
:1019EC00244A52F8255003F003024FEA820E0F22CC
:1019FC0002FA0EF225EA0205214A90423FF473AF37
:101A0C0002F58062904222D002F58062904220D092
:101A1C0002F5806290421ED002F5806290421CD08A
:101A2C0002F5806290421AD002F58062904218D082
:101A3C0002F58062904216D002F58062904214D07A
:101A4C0002F5806290423FF44CAF0A224CE701222F
:101A5C004AE7022248E7032246E7042244E705222C
:101A6C0042E7062240E707223EE708223CE702B0A5
:101A7C0070BD704700380140003C01400038024006
:101A8C00000002400AB1816170470904816170470E
:101A9C0030B405682C6824F480242C6004686360DE
:101AAC008368402B05D0036899600368DA6030BC0A
:101ABC00704703689A600368D960F8E710B403684C
:101ACC00D9B210390C4AA2FB014212090B4CA25C90
:101ADC00C2655F2909D923F47F7323F00303043310
:101AEC008365806D5DF8044B704723F47F7323F09E
:101AFC0003038365F5E700BFABAAAAAA7028000808
:101B0C00836A826992B9012B0AD0022B02D00BB1E5
:101B1C0000207047C36A13F0807F28D100207047E3
:101B2C00C36AB3F1C07F24D000207047B2F5005FC8
:101B3C0009D0022B25D9032B25D1C36A13F0807F42
:101B4C0023D100207047032B03D8DFE803F01404E3
:101B5C00140A00207047C36A13F0807F0DD1002057
:101B6C007047C36AB3F1C07F09D0002070470120D1
:101B7C0070470120704701207047012070470120F9
:101B8C00704701207047002070470120704700000B
:101B9C0070B5044600F0D8FA002C5BD00546022341
:101BAC0084F83530002384F834302268136823F02D
:101BBC000103136023681A6812F0010F0AD000F0B9
:101BCC00C3FA431B052BF5D920236365032084F846
:101BDC00350070BD1A68204810406168A2680A433D
:101BEC00E1680A4321690A4361690A43A1690A430E
:101BFC00E1690A43216A0A430243616A04291ED03F
:101C0C001A602668756925F00705636A1D43042B65
:101C1C0007D1A36A1D43E36A1BB12046FFF770FF8F
:101C2C0090B975612046FFF749FFE26D3F23934061
:101C3C00836000206065012384F83530C9E7E16AD0
:101C4C00206B01430A43DBE740236365012084F8E2
:101C5C003500BEE70120BCE73F8010F038B50446E4
:101C6C00856D90F8340001282BD0012084F83400C5
:101C7C0094F83500C0B2012804D0002384F8343025
:101C8C00022038BD022084F8350000206065204613
:101C9C00FFF7FEFEE26D3F239340AB6022681368B2
:101CAC0043F016031360236C23B12268136843F0CE
:101CBC00080313602268136843F0010313600020CB
:101CCC00DFE70220DDE770B50446866D00F03CFAD4
:101CDC0094F83530DBB2022B06D0802363650023E9
:101CEC0084F83430012070BD05462268136823F057
:101CFC00160313602268536923F080035361236C2D
:101D0C00E3B12268136823F0080313602268136898
:101D1C0023F00103136023681B6813F0010F11D02B
:101D2C0000F012FA431B052BF5D920236365032021
:101D3C0084F83500002384F83430D4E7A36C002BEE
:101D4C00DFD1E3E7E26D3F239340B360012384F8D6
:101D5C003530002084F83400C5E790F83530DBB21C
:101D6C00022B03D08023436501207047052380F8A4
:101D7C0035300268136823F00103136000207047AC
:101D8C00F0B583B0044600230193724B1D68724B6F
:101D9C00A3FB0535AD0A876D3E68C26D08239340E1
:101DAC00334210D003681A6812F0040F0BD01A6873
:101DBC0022F004021A60C26D08239340BB60436D8D
:101DCC0043F001034365E26D01239340334209D094
:101DDC002268526912F0800F04D0BB60636D43F02F
:101DEC0002036365E26D04239340334209D02268F9
:101DFC00126812F0020F04D0BB60636D43F0040351
:101E0C006365E26D10239340334224D0226812683C
:101E1C0012F0080F1FD0BB6023681A6812F4802FD1
:101E2C000DD01B6813F4002F04D1236C9BB12046FA
:101E3C00984710E0A36C73B1204698470BE01A68E2
:101E4C0012F4807F03D11A6822F008021A60236C06
:101E5C000BB120469847E26D20239340334255D076
:101E6C002268126812F0100F50D0BB6094F8353015
:101E7C00DBB2052B0ED023681A6812F4802F33D0F6
:101E8C001B6813F4002F2AD1636C002B3ED0204624
:101E9C0098473BE02268136823F01603136022680E
:101EAC00536923F080035361236CA3B12268136838
:101EBC0023F008031360E26D3F239340BB600123C2
:101ECC0084F83530002384F83430236D002B3FD058
:101EDC00204698473CE0A36C002BE7D1EBE7E36B83
:101EEC00A3B12046984711E01A6812F4807F09D1FB
:101EFC001A6822F010021A60012384F8353000238E
:101F0C0084F83430E36B0BB120469847636DFBB11A
:101F1C00636D13F0010F17D0052384F83530226858
:101F2C00136823F001031360019B01330193AB424F
:101F3C0004D823681B6813F0010FF5D1012384F832
:101F4C003530002384F83430E36C0BB120469847CD
:101F5C0003B0F0BD08000020B5814E1B10B582B057
:101F6C0000230193194B1A6C42F080521A641B6CBB
:101F7C0003F080530193019B154B01221A6400F06E
:101F8C00E3F80446134B5B6813F4803F08D100F070
:101F9C00DBF8001BB0F57A7FF4D9032002B010BD3A
:101FAC000B4B01225A6400F0CFF80446094B5B68D6
:101FBC0013F4003F07D100F0C7F8001BB0F57A7F8F
:101FCC00F4D90320EAE70020E8E700BF003802401C
:101FDC0000000E4200700040074AD36823F4E0630F
:101FEC001B041B0C000200F4E060034343F0BF63CE
:101FFC0043F40033D360704700ED00E000B5194B9B
:10200C00DB68C3F30223C3F1070CBCF1040F28BF38
:10201C004FF0040C03F1040EBEF1060F18D9033B6C
:10202C004FF0FF3E0EFA0CFC21EA0C0199400EFA1F
:10203C0003F322EA0303194300280BDB0901C9B29D
:10204C0000F1604000F5614080F800135DF804FB7E
:10205C000023E5E700F00F000901C9B2024B195447
:10206C00F4E700BF00ED00E014ED00E0002807DB12
:10207C0000F01F02400901239340024A42F820302D
:10208C00704700BF00E100E00138B0F1807F0BD257
:10209C004FF0E0235861054AF02182F8231000200C
:1020AC00986107221A6170470120704700ED00E02B
:1020BC0010B504460E4B18784FF47A73B3FBF0F35B
:1020CC000C4A1068B0FBF3F0FFF7DEFF68B90F2C79
:1020DC0001D901200AE0002221464FF0FF30FFF722
:1020EC008DFF054B1C60002000E0012010BD00BFDF
:1020FC0000000020080000200400002008B50B4B55
:10210C001A6842F400721A601A6842F480621A600B
:10211C001A6842F480721A600320FFF75DFF0F20EB
:10212C00FFF7C6FFFEF7E0FB002008BD003C0240B5
:10213C00034A1168034B1B780B441360704700BFB4
:10214C003401002000000020014B1868704700BFCC
:10215C0034010020034AD2F8883043F47003C2F8EB
:10216C008830704700ED00E008B50E480E4B036058
:10217C000523436000238360C3604FF40032026187
:10218C004FF4800242610376012242768276C37656
:10219C000377437700F048F800B908BDFEF7D2F991
:1021AC00FBE700BF380100200064004010B588B088
:1021BC000023039304930593069307930268184B2B
:1021CC009A4201D008B010BD0024019403F5EA3303
:1021DC001A6C42F000721A641A6C02F000720192CE
:1021EC00019A02941A6B42F008021A631B6B03F0FB
:1021FC0008030293029B0323039302220492069387
:10220C000923079303A90748FFF73EFB2246214603
:10221C001420FFF7F3FE1420FFF728FFD2E700BFCE
:10222C0000640040000C0240002800F0A18038B58A
:10223C00044690F82030D3B12268136843F00103B0
:10224C001360FFF781FF054623685A6812F0010FEF
:10225C0010D1FFF779FF401B0A28F5D9636A43F4C4
:10226C0000336362052384F82030012038BDFFF76A
:10227C009DFFE1E71A6822F002021A60FFF764FF83
:10228C00054623685A6812F0020F0DD0FFF75CFF69
:10229C00401B0A28F5D9636A43F4003363620523B3
:1022AC0084F820300120E1E7227E012A3DD01A6813
:1022BC0022F080021A60637E012B3BD022681368E7
:1022CC0023F040031360A37E012B39D022681368DE
:1022DC0023F020031360E37E012B37D022681368B0
:1022EC0043F010031360237F012B35D02268136851
:1022FC0023F008031360637F012B33D0226813682B
:10230C0023F004031360A368E268134322691343A8
:10231C00626913436268013A21681343CB61002060
:10232C006062012384F82030A0E71A6842F0800232
:10233C001A60C0E72268136843F040031360C2E7D9
:10234C002268136843F020031360C4E72268136803
:10235C0023F010031360C6E72268136843F00803E8
:10236C001360C8E72268136843F004031360CAE7DC
:10237C000120704790F82030013BDBB2012B05D9CE
:10238C00436A43F4802343620120704730B5464BC7
:10239C00D3F8002242F00102C3F80022D3F8002245
:1023AC0022F47C52C3F80022D3F80022486A42EA95
:1023BC000022C3F800224A6902F01F02012000FA31
:1023CC0002F2D3F81C026FEA020C20EA0200C3F8F6
:1023DC001C02CB69C3B9344BD3F80C020CEA0000D5
:1023EC00C3F80C028C884869CD6844EA054448302F
:1023FC0043F830408C68088840EA04404C6904F18A
:10240C00480E03EBCE035860CB69012B1ED08B69B1
:10241C00002B33D12448D0F804320CEA0303C0F863
:10242C0004320B698BBB2048D0F814320CEA03033E
:10243C00C0F814320B6A012B2ED01B4AD2F8003292
:10244C0023F00103C2F80032002030BD164BD3F844
:10245C000C021043C3F80C028C8848690D6844EADE
:10246C000544483043F8304088894C698D6840EA0F
:10247C000540483403EBC4035860C8E70A48D0F859
:10248C0004321343C0F80432CBE70748D0F81432B7
:10249C001343C0F81432CDE70349D1F81C321A4368
:1024AC00C1F81C22C9E700BF0064004070B50446A7
:1024BC0090F82050EDB2012D06D0436A43F400236E
:1024CC0043620125284670BD022380F82030026843
:1024DC00136823F001031360FFF736FE06462368EA
:1024EC005B6813F0010F0CD0FFF72EFE831B0A2B39
:1024FC00F5D9636A43F400336362052384F8203012
:10250C00E0E700256562DDE770477047704770476C
:10251C0070477047704770477047704770477047F7
:10252C0070472DE9F84F054603685C69D3F80480C1
:10253C009F68D3F80CB0D3F810A0D3F8189014F00F
:10254C0001063BD017F0010616D001229A6017F055
:10255C00020F08D117F0040F0CD117F0080606D0A3
:10256C004FF4805608E0FFF7CFFF002604E0FFF79A
:10257C00CEFF01E04FF4006617F4807F0DD02B687E
:10258C004FF480729A6017F4007F40F0868017F445
:10259C00806F00F0868046F4005617F4803F0DD013
:1025AC002B684FF480329A6017F4003F40F0838020
:1025BC0017F4802F00F0838046F4004614F0080FC7
:1025CC0007D01BF0100F04D046F400762B681022B5
:1025DC00DA6014F0040F02D01BF0080F79D114F05C
:1025EC00020F04D02B68DB6813F0030F78D114F0C2
:1025FC00400F07D01AF0100F04D046F480662B68F9
:10260C0010221A6114F0200F02D01AF0080F6BD1AF
:10261C0014F0100F04D02B681B6913F0030F6AD150
:10262C0014F4003F02D018F0100F68D114F4803F5E
:10263C0002D018F0080F69D114F4004F7AD018F0BA
:10264C00040F74D014F4807F04D019F0010F01D062
:10265C0046F0010614F4007F04D019F0020F01D0EB
:10266C0046F0020614F4806F04D019F0040F01D068
:10267C0046F0040614F4006F59D019F0700956D0C6
:10268C00B9F1400F65D058D8B9F1200F5ED0B9F12F
:10269C00300F42D146F0200644E02846FFF735FFC4
:1026AC007BE717F4006F02D046F4804675E72846A6
:1026BC00FFF72EFF71E72846FFF728FF7EE717F498
:1026CC00002F02D046F4803678E72846FFF721FF2A
:1026DC0074E72B680822DA602846FFF71CFF7EE7B8
:1026EC002846FFF717FF82E72B6808221A61284655
:1026FC00FFF713FF8CE72846FFF70EFF90E72B68D8
:10270C0010225A602846FFF709FF8FE72B68082232
:10271C005A602846FFF703FF8EE7B9F1100F01D17D
:10272C0046F008062A68936923F0700393612B68BE
:10273C0004225A609EB9BDE8F88FB9F1500F0BD046
:10274C00B9F1600FEED146F48076EBE746F0100657
:10275C00E8E746F04006E5E746F08006E2E76B6AFC
:10276C001E436E622846FFF7DBFEE4E700B583B03C
:10277C0000210191094B1A6B42F480021A631B6B06
:10278C0003F480030193019B0A463A20FFF736FCC1
:10279C003A20FFF76BFC03B05DF804FB00380240F5
:1027AC00DFF834D0FFF7D6FC0C480D490D4A002356
:1027BC0002E0D458C4500433C4188C42F9D30A4AEA
:1027CC000A4C002301E013600432A242FBD300F058
:1027DC0011F8FDF711FF70470000032000000020E6
:1027EC000C000020A02800080C0000206001002034
:1027FC00FEE7000070B50D4D0D4C641BA4100026B7
:10280C00A64209D10B4D0C4C00F020F8641BA4100F
:10281C000026A64205D170BD55F8043B98470136F9
:10282C00EEE755F8043B98470136F2E79828000884
:10283C0098280008982800089C28000802440346A1
:10284C00934200D1704703F8011BF9E7F8B500BFBC
:10285C00F8BC08BC9E467047F8B500BFF8BC08BC75
:04286C009E467047CD
:102870000006101600061016000000000000000000
:102880000102030406070809000000000102030416
:082890008CD9FF7F010000005C
:04289800D101000862
:04289C00AD01000882
:0C28A00001000000100000000024F40003
:04000005080027AD1B
:00000001FF
